:0400000025EF58F0A0
:08000800046ED8CF05F0E0CF33
:1000100006F00001E9CF0CF0EACF07F0E1CF08F0DD
:10002000E2CF09F0D9CF0AF0DACF0BF0F3CF12F01C
:10003000F4CF13F0FACF14F0F5CF15F0F6CF16F099
:10004000F7CF17F000C00EF001C00FF002C010F0A3
:1000500003C011F09DA230EF00F09EB2D3EF02F08A
:100060009DAA36EF00F09EBACBEF02F00EC000F072
:100070000FC001F010C002F011C003F00CC0E9FF86
:1000800007C0EAFF078E08C0E1FF09C0E2FF0AC00F
:10009000D9FF0BC0DAFF12C0F3FF13C0F4FF14C086
:1000A000FAFF15C0F5FF16C0F6FF17C0F7FF0450A2
:1000B00006C0E0FF05C0D8FF1000F76ACA0FF66E51
:1000C000000EF7220900F550120000C1814001C066
:1000D000804101C0804100C1814001C0804100C118
:1000E000814000C1814001C0804101C0804100C108
:1000F000814000C1814001C0804100C1814001C0F8
:10010000804101C0804100C1814001C0804100C1E7
:10011000814000C1814001C0804100C1814001C0D7
:10012000804101C0804100C1814000C1814001C0C7
:10013000804101C0804100C1814001C0804100C1B7
:10014000814000C1814001C0804101C0804100C1A7
:10015000814000C1814001C0804100C1814001C097
:10016000804101C0804100C1814000C1814001C087
:10017000804101C0804100C1814001C0804100C177
:10018000814000C1814001C0804100C1814001C067
:10019000804101C0804100C1814001C0804100C157
:1001A000814000C1814001C0804101C0804100C147
:1001B000814000C1814001C0804100C1814001C037
:1001C000804101C0804100C18140F76ADA0FF66EBC
:1001D000010EF7220900F550120000C0C101C3034F
:1001E00002C2C60607C705C5C404CC0C0DCD0FCF8F
:1001F000CE0E0ACACB0BC90908C8D81819D91BDBFF
:10020000DA1A1EDEDF1FDD1D1CDC14D4D515D7174E
:1002100016D6D21213D311D1D010F03031F133F3FE
:10022000F23236F6F737F53534F43CFCFD3DFF3F4E
:100230003EFEFA3A3BFB39F9F83828E8E929EB2B7E
:100240002AEAEE2E2FEF2DEDEC2CE42425E527E70E
:10025000E62622E2E323E12120E0A06061A163A37E
:10026000A26266A6A767A56564A46CACAD6DAF6F0E
:100270006EAEAA6A6BAB69A9A86878B8B979BB7B7E
:100280007ABABE7E7FBF7DBDBC7CB47475B577B7CE
:10029000B67672B2B373B17170B0509091519353FE
:1002A000529296565797559594549C5C5D9D5F9FCE
:1002B0009E5E5A9A9B5B99595898884849894B8BFE
:1002C0008A4A4E8E8F4F8D4D4C8C4484854587478E
:1002D0004686824243834181804041542B434D47AF
:1002E000463D310041542B434D47533D220004000D
:1002F0005A50635D13E1656B660E6525E96E020E6B
:10030000EA6ED8B0EA2A30C0EFFF0400652B100E69
:10031000636F140E0A01706F3BD100016351100826
:100320005CE1660E6525E96E020EEA6ED8B0EA2A37
:1003300030C0EFFF0400652B010E655D660FE96EAE
:10034000020EEA6ED8B0EA2AEF50160807E35BC047
:1003500063F0140E0A01706F3ED00001010E655D5E
:10036000660FE96E020EEA6ED8B0EA2AEF50200856
:1003700007E15EC063F0140E0A01706F2CD000011B
:10038000010E655D660FE96E020EEA6ED8B0EA2ACC
:10039000EF50210807E161C063F0140E0A01706F8D
:1003A0001AD00001010E655D660FE96E020EEA6E5D
:1003B000D8B0EA2AEF50220807E160C063F0140EBB
:1003C0000A01706F08D00001656B5AC063F00A0122
:1003D000706B8A969396DCD000016051635D12E1E8
:1003E000660E6525E96E020EEA6ED8B0EA2A30C0C4
:1003F000EFFF0400652B61C063F0140E0A01706FFB
:10040000C7D000016151635D2BE1660E6525E96E81
:10041000020EEA6ED8B0EA2A30C0EFFF0400652B66
:1004200002016751220809E16851640DF350692502
:100430000A01716F726B0ED00201010E0001655D41
:10044000660FE96E020EEA6ED8B0EA2A0A01726BF4
:10045000EFCF71FA140E706F62C063F099D0000193
:100460006251635D1AE1660E6525E96E020EEA6E61
:10047000D8B0EA2A30C0EFFF0400652B0A017151A1
:10048000D8B472077107715304E1725302E15EC080
:1004900063F0140E706F7CD000015B50635D12E15D
:1004A000660E6525E96E020EEA6ED8B0EA2A30C003
:1004B000EFFF0400652B5CC063F0140E0A01706F3F
:1004C00067D000015C50635D12E1660E6525E96E40
:1004D000020EEA6ED8B0EA2A30C0EFFF0400652BA6
:1004E0005DC063F0140E0A01706F52D000015D50C0
:1004F000635D12E1660E6525E96E020EEA6ED8B004
:10050000EA2A30C0EFFF0400652B150E636F140E4E
:100510000A01706F3DD000016351150812E1660EAB
:100520006525E96E020EEA6ED8B0EA2A30C0EFFF08
:100530000400652B5EC063F0140E0A01706F28D0B2
:1005400000015E50635D12E1660E6525E96E020EE4
:10055000EA6ED8B0EA2A30C0EFFF0400652B5FC016
:1005600063F0140E0A01706F13D000015F50635DD9
:100570000FE1660E6525E96E020EEA6ED8B0EA2A32
:1005800030C0EFFF04005AC063F00A01706B328A7A
:100590000001D0EF02F09EAAFED7AECF30F0A7D672
:1005A0009E9A36EF00F01B2A0A01705307E070078D
:1005B000705304E15AC063F08A9693961E521CE071
:1005C0001E061E5219E11F5204E01F061F5201E1D0
:1005D0001C84592A5950010803E23288020E596ED0
:1005E0000D01A62BA651040803E2A66B010EA56F10
:1005F0003284640E1E6E0A011B50280814E11B6A27
:100600001CB004D01C808A8A939A03D01C908A9ACA
:10061000939A1CAC07D0315201E03106315201E10E
:100620001C8A01D0316A1D5213E01D061D520AE1D9
:10063000736932B205D01CA202D01C9201D01C8278
:1006400057C01DF0335204E03306335201E13292B9
:100650009E92000136EF00F041542B434D47463D3A
:1006600031000E0EEA6E760EE96EEF5011E0050EC7
:10067000016EBF0E006E0400002EFDD7012EF9D7CB
:100680002E0E006E002EFED700000400EF2EEFD7D6
:100690001200929A899A0E01775140097A6FC950D7
:1006A0007ACEC9FFC730FEE3C95078CEC9FFC73044
:1006B000FEE3C95079CEC9FFC730FEE3929A898A1A
:1006C00000011200929A898A929A0E01776B0A0EA3
:1006D000786FAA0E796F0001DCDF020E0E01776FD2
:1006E0000A0E786FAA0E796F0001D3DF040E0E0197
:1006F000776F0A0E786FAA0E796F0001CADF060EB7
:100700000E01776F0A0E786FAA0E796F0001C1DFB4
:10071000080E0E01776F0A0E786FAA0E796F00012E
:10072000B8DF0A0E0E01776F786FAA0E796F00019D
:10073000B0DF0C0E0E01776F0A0E786FAA0E796F7C
:100740000001A7DF0E0E0E01776F0A0E786FAA0E5A
:10075000796F00019EDFA3EF58F06DCE77FE0E019A
:10076000786B6ECE79FE000194DF12006DCE77FEBD
:10077000100E0E01786F6ECE79FE00018ADF120036
:10078000F2CF77FEF29EAA6A010EA96EA69CA69EE3
:10079000A680A8500E0177BFF28E366E36C037F0B5
:1007A0000D01AF9136B0AF81D8903630AF93E8B03D
:1007B000AF833630006E00323F0E0016AF9500B0AA
:1007C000AF853630006E003200321F0E0016AF9734
:1007D00000B0AF873638006E0F0E0016AF9900B02C
:1007E000AF893638006E0032070E0016AF9B00B09E
:1007F000AF8B3638006E00320032030E0016AF9D0C
:1008000000B0AF8D006A36BE0080AF9F00B0AF8FE2
:10081000F2CF77FEF29EAA6A020EA96EA69CA69E51
:10082000A680A8500E0177BFF28E366E36C038F023
:100830000D01B09136B0B081D8903630B093E8B0A9
:10084000B0833630006E00323F0E0016B09500B017
:10085000B0853630006E003200321F0E0016B097A1
:1008600000B0B0873638006E0F0E0016B09900B099
:10087000B0893638006E0032070E0016B09B00B00B
:10088000B08B3638006E00320032030E0016B09D79
:1008900000B0B08D006A36BE0080B09F00B0B08F4F
:1008A000F2CF77FEF29EAA6A030EA96EA69CA69EC0
:1008B000A680A8500E0177BFF28E366E36C039F092
:1008C0000D01B19136B0B181D8903630B193E8B016
:1008D000B1833630006E00323F0E0016B19500B085
:1008E000B1853630006E003200321F0E0016B1970F
:1008F00000B0B1873638006E0F0E0016B19900B007
:10090000B1893638006E0032070E0016B19B00B078
:10091000B18B3638006E00320032030E0016B19DE6
:1009200000B0B18D006A36BE0080B19F00B0B18FBB
:100930000E015F930D01AFA103D00E015F830D0186
:100940000E015F950D01AFA303D00E015F850D0170
:100950000E015F970D01AFA503D00E015F870D015A
:100960000E015F990D01AFA703D00E015F890D0144
:100970000E015F9B0D01AFA903D00E015F8B0D012E
:100980000E015F9D0D01AFAB03D00E015F8D0D0118
:100990000E015F9F0D01AFAD03D00E015F8F0D0102
:1009A0000E0160910D01AFAF03D00E0160810D010A
:1009B0000E0160930D01B0A103D00E0160830D0103
:1009C0000E0160950D01B0A303D00E0160850D01ED
:1009D0000E0160970D01B0A503D00E0160870D01D7
:1009E0000E0160990D01B0A703D00E0160890D01C1
:1009F0000E01609B0D01B0A903D00E01608B0D01AB
:100A00000E01609D0D01B0AB03D00E01608D0D0194
:100A10000E01609F0D01B0AD03D00E01608F0D017E
:100A20000E0161910D01B0AF03D00E0161810D0186
:100A30000E0161930D01B1A103D00E0161830D017F
:100A40000E0161950D01B1A303D00E0161850D0169
:100A50000E0161970D01B1A503D00E0161870D0153
:100A60000E0161990D01B1A703D00E0161890D013D
:100A7000F2CF77FEF29EAA6A040EA96EA69CA69EED
:100A8000A680A8500E0177BFF28E366E36C03AF0BF
:100A90000D01B39136B0B381D8903630B393E8B03E
:100AA000B3833630006E00323F0E0016B39500B0AF
:100AB000B3853630006E003200321F0E0016B39739
:100AC00000B0B3873638006E0F0E0016B39900B031
:100AD000B3893638006E0032070E0016B39B00B0A3
:100AE000B38B3638006E00320032030E0016B39D11
:100AF00000B0B38D006A36BE0080B39F00B0B38FE4
:100B0000F2CF77FEF29EAA6A050EA96EA69CA69E5B
:100B1000A680A8500E0177BFF28E366E36C03BF02D
:100B20000D01B49136B0B481D8903630B493E8B0AA
:100B3000B4833630006E00323F0E0016B49500B01C
:100B4000B4853630006E003200321F0E0016B497A6
:100B500000B0B4873638006E0F0E0016B49900B09E
:100B6000B4893638006E0032070E0016B49B00B010
:100B7000B48B3638006E00320032030E0016B49D7E
:100B800000B0B48D006A36BE0080B49F00B0B48F50
:100B9000F2CF77FEF29EAA6A060EA96EA69CA69ECA
:100BA000A680A8500E0177BFF28E366E36C03CF09C
:100BB0000D01B59136B0B581D8903630B593E8B017
:100BC000B5833630006E00323F0E0016B59500B08A
:100BD000B5853630006E003200321F0E0016B59714
:100BE00000B0B5873638006E0F0E0016B59900B00C
:100BF000B5893638006E0032070E0016B59B00B07E
:100C0000B58B3638006E00320032030E0016B59DEB
:100C100000B0B58D006A36BE0080B59F00B0B58FBC
:100C2000F2CF77FEF29EAA6A070EA96EA69CA69E38
:100C3000A680A8500E0177BFF28E366E36C03DF00A
:100C40000D01B79136B0B781D8903630B793E8B080
:100C5000B7833630006E00323F0E0016B79500B0F5
:100C6000B7853630006E003200321F0E0016B7977F
:100C700000B0B7873638006E0F0E0016B79900B077
:100C8000B7893638006E0032070E0016B79B00B0E9
:100C9000B78B3638006E00320032030E0016B79D57
:100CA00000B0B78D006A36BE0080B79F00B0B78F26
:100CB000F2CF77FEF29EAA6A080EA96EA69CA69EA7
:100CC000A680A8500E0177BFF28E366E36C03EF079
:100CD0000D01B89136B0B881D8903630B893E8B0ED
:100CE000B8833630006E00323F0E0016B89500B063
:100CF000B8853630006E003200321F0E0016B897ED
:100D000000B0B8873638006E0F0E0016B89900B0E4
:100D1000B8893638006E0032070E0016B89B00B056
:100D2000B88B3638006E00320032030E0016B89DC4
:100D300000B0B88D006A36BE0080B89F00B0B88F92
:100D4000F2CF77FEF29EAA6A090EA96EA69CA69E15
:100D5000A680A8500E0177BFF28E366E36C03FF0E7
:100D60000D01B99136B0B981D8903630B993E8B059
:100D7000B9833630006E00323F0E0016B99500B0D0
:100D8000B9853630006E003200321F0E0016B9975A
:100D900000B0B9873638006E0F0E0016B99900B052
:100DA000B9893638006E0032070E0016B99B00B0C4
:100DB000B98B3638006E00320032030E0016B99D32
:100DC00000B0B98D006A36BE0080B99F00B0B98FFF
:100DD000F2CF77FEF29EAA6A0A0EA96EA69CA69E84
:100DE000A680A8500E0177BFF28E366E36C040F056
:100DF0000D01BB9136B0BB81D8903630BB93E8B0C3
:100E0000BB833630006E00323F0E0016BB9500B03B
:100E1000BB853630006E003200321F0E0016BB97C5
:100E200000B0BB873638006E0F0E0016BB9900B0BD
:100E3000BB893638006E0032070E0016BB9B00B02F
:100E4000BB8B3638006E00320032030E0016BB9D9D
:100E500000B0BB8D006A36BE0080BB9F00B0BB8F68
:100E6000F2CF77FEF29EAA6A0B0EA96EA69CA69EF2
:100E7000A680A8500E0177BFF28E366E36C041F0C4
:100E80000D01BC9136B0BC81D8903630BC93E8B02F
:100E9000BC833630006E00323F0E0016BC9500B0A9
:100EA000BC853630006E003200321F0E0016BC9733
:100EB00000B0BC873638006E0F0E0016BC9900B02B
:100EC000BC893638006E0032070E0016BC9B00B09D
:100ED000BC8B3638006E00320032030E0016BC9D0B
:100EE00000B0BC8D006A36BE0080BC9F00B0BC8FD5
:100EF000F2CF77FEF29EAA6A0C0EA96EA69CA69E61
:100F0000A680A8500E0177BFF28E366E36C042F032
:100F10000D01BD9136B0BD81D8903630BD93E8B09B
:100F2000BD833630006E00323F0E0016BD9500B016
:100F3000BD853630006E003200321F0E0016BD97A0
:100F400000B0BD873638006E0F0E0016BD9900B098
:100F5000BD893638006E0032070E0016BD9B00B00A
:100F6000BD8B3638006E00320032030E0016BD9D78
:100F700000B0BD8D006A36BE0080BD9F00B0BD8F41
:100F8000F2CF77FEF29EAA6A0D0EA96EA69CA69ECF
:100F9000A680A8500E0177BFF28E366E36C043F0A1
:100FA0000D01BF9136B0BF81D8903630BF93E8B005
:100FB000BF833630006E00323F0E0016BF9500B082
:100FC000BF853630006E003200321F0E0016BF970C
:100FD00000B0BF873638006E0F0E0016BF9900B004
:100FE000BF893638006E0032070E0016BF9B00B076
:100FF000BF8B3638006E00320032030E0016BF9DE4
:1010000000B0BF8D006A36BE0080BF9F00B0BF8FAA
:10101000F2CF77FEF29EAA6A0E0EA96EA69CA69E3D
:10102000A680A8500E0177BFF28E366E36C044F00F
:101030000D01C09136B0C081D8903630C093E8B071
:10104000C0833630006E00323F0E0016C09500B0EF
:10105000C0853630006E003200321F0E0016C09779
:1010600000B0C0873638006E0F0E0016C09900B071
:10107000C0893638006E0032070E0016C09B00B0E3
:10108000C08B3638006E00320032030E0016C09D51
:1010900000B0C08D006A36BE0080C09F00B0C08F17
:1010A000F2CF77FEF29EAA6A0F0EA96EA69CA69EAC
:1010B000A680A8500E0177BFF28E366E36C045F07E
:1010C0000D01C19136B0C181D8903630C193E8B0DE
:1010D000C1833630006E00323F0E0016C19500B05D
:1010E000C1853630006E003200321F0E0016C197E7
:1010F00000B0C1873638006E0F0E0016C19900B0DF
:10110000C1893638006E0032070E0016C19B00B050
:10111000C18B3638006E00320032030E0016C19DBE
:1011200000B0C18D006A36BE0080C19F00B0C18F83
:10113000F2CF77FEF29EAA6A100EA96EA69CA69E1A
:10114000A680A8500E0177BFF28E366E0D01D391A6
:1011500036B0D381D8903630D393E8B0D3833630CD
:10116000006E00323F0E0016D39500B0D3853630A6
:10117000006E003200321F0E0016D39700B0D387E6
:101180003638006E0F0E0016D39900B0D38936386A
:10119000006E0032070E0016D39B00B0D38B36389A
:1011A000006E00320032030E0016D39D00B0D38DC6
:1011B000006A36BE0080D39F00B0D38FF2CF77FE97
:1011C000F29EAA6A110EA96EA69CA69EA680A850A1
:1011D0000E0177BFF28E366E0D01D49136B0D481F8
:1011E000D8903630D493E8B0D483F2CF77FEF29E15
:1011F000AA6A120EA96EA69CA69EA680A8500E01F1
:1012000077BFF28E366E0D01D49536B0D485D89066
:101210003630D497E8B0D4873630006E00323F0EB7
:101220000016D49900B0D4893630006E00320032F6
:101230001F0E0016D49B00B0D48B3638006E0F0EF4
:101240000016D49D00B0D48D3638006E0032070EE3
:101250000016D49F00B0D48F3638006E00320032B2
:10126000030E0016D59100B0D581006A36BE00800D
:10127000D59300B0D583F2CF77FEF29EAA6A130E03
:10128000A96EA69CA69EA680A8500E0177BFF28EDE
:10129000366E0D01D59536B0D585D8903630D597B8
:1012A000E8B0D587F2CF77FEF29EAA6A140EA96E37
:1012B000A69CA69EA680A8500E0177BFF28E366E21
:1012C0000D01D79136B0D781D8903630D793E8B09A
:1012D000D7833630006E00323F0E0016D79500B02F
:1012E000D7853630006E003200321F0E0016D797B9
:1012F00000B0D7873638006E0F0E0016D79900B0B1
:10130000D7893638006E0032070E0016D79B00B022
:10131000D78B3638006E00320032030E0016D79D90
:1013200000B0D78D006A36BE0080D79F00B0D78F3F
:10133000F2CF77FEF29EAA6A150EA96EA69CA69E13
:10134000A680A8500E0177BFF28E366E0D01D8919F
:1013500036B0D881D8903630D893E8B0D883F2CF61
:1013600077FEF29EAA6A160EA96EA69CA69EA6807D
:10137000A8500E0177BFF28E366E0D01D89536B0AB
:10138000D885D8903630D897E8B0D8873630006EF8
:1013900000323F0E0016D89900B0D8893630006E62
:1013A000003200321F0E0016D89B00B0D88B3638A2
:1013B000006E0F0E0016D89D00B0D88D3638006E26
:1013C0000032070E0016D89F00B0D88F3638006E56
:1013D00000320032030E0016D99100B0D981006AA4
:1013E00036BE0080D99300B0D983F2CF77FEF29E4B
:1013F000AA6A170EA96EA69CA69EA680A8500E01EA
:1014000077BFF28E366E0D01D99536B0D985D8905A
:101410003630D997E8B0D987F2CF77FEF29EAA6A24
:10142000180EA96EA69CA69EA680A8500E0177BF96
:10143000F28E556EF2CF77FEF29EAA6A190EA96E51
:10144000A69CA69EA680A85077BFF28E566EF2CFBD
:1014500077FEF29EAA6A1A0EA96EA69CA69EA68088
:10146000A85077BFF28E576EF2CF77FEF29EAA6A2F
:101470001B0EA96EA69CA69EA680A85077BFF28ED2
:10148000586EF2CF77FEF29EAA6A1C0EA96EA69C39
:10149000A69EA680A85077BFF28E246B236FF2CF52
:1014A00077FEF29EAA6A1D0EA96EA69CA69EA68035
:1014B000A85077BFF28E0001646FF2CF77FEF29EE4
:1014C000AA6A1E0EA96EA69CA69EA680A8500E0112
:1014D00077BFF28E266B256FF2CF77FEF29EAA6A57
:1014E0001F0EA96EA69CA69EA680A85077BFF28E5E
:1014F000286B276FF2CF77FEF29EAA6A200EA96EA4
:10150000A69CA69EA680A85077BFF28E2A6B296F54
:10151000F2CF77FEF29EAA6A210EA96EA69CA69E25
:10152000A680A85077BFF28E2C6B2B6FF2CF77FE80
:10153000F29EAA6A220EA96EA69CA69EA680A8501C
:1015400077BFF28E2E6B2D6FF2CF77FEF29EAA6AD6
:10155000230EA96EA69CA69EA680A85077BFF28EE9
:10156000306B2F6FF2CF77FEF29EAA6A240EA96E1F
:10157000A69CA69EA680A85077BFF28E326B316FD4
:10158000F2CF77FEF29EAA6A250EA96EA69CA69EB1
:10159000A680A85077BFF28E346B336FF2CF77FE00
:1015A000F29EAA6A260EA96EA69CA69EA680A850A8
:1015B00077BFF28E366B356FF2CF77FEF29EAA6A56
:1015C000270EA96EA69CA69EA680A85077BFF28E75
:1015D000386B376FF2CF77FEF29EAA6A280EA96E9B
:1015E000A69CA69EA680A85077BFF28E3A6B396F54
:1015F000F2CF77FEF29EAA6A290EA96EA69CA69E3D
:10160000A680A85077BFF28E3C6B3B6FF2CF77FE7F
:10161000F29EAA6A2A0EA96EA69CA69EA680A85033
:1016200077BFF28E3E6B3D6FF2CF77FEF29EAA6AD5
:101630002B0EA96EA69CA69EA680A85077BFF28E00
:10164000406B3F6FF2CF77FEF29EAA6A2C0EA96E16
:10165000A69CA69EA680A85077BFF28E426B416FD3
:10166000F2CF77FEF29EAA6A2D0EA96EA69CA69EC8
:10167000A680A85077BFF28E446B436FF2CF77FEFF
:10168000F29EAA6A2E0EA96EA69CA69EA680A850BF
:1016900077BFF28E466B456FF2CF77FEF29EAA6A55
:1016A0002F0EA96EA69CA69EA680A85077BFF28E8C
:1016B000486B476FF2CF77FEF29EAA6A300EA96E92
:1016C000A69CA69EA680A85077BFF28E4A6B496F53
:1016D000F2CF77FEF29EAA6A310EA96EA69CA69E54
:1016E000A680A85077BFF28E4C6B4B6F6D6B0400D9
:1016F000320E6D25776FF2CF78FEF29EAA6A77CE12
:10170000A9FFA69CA69EA680A85078BFF28E6E6FF9
:101710006E510D0803E06D510F0824E2036A6D510C
:10172000740FE96E0A0E0320EA6EEF6A320E6D2521
:10173000776FF250006EF29EAA6A77CEA9FF6ECE46
:10174000A8FFA69CA69EA6840F01550EA76EAA0E02
:10175000A76EA682A6B2FED7A6940050F21210D0B1
:101760000BD00E01036A6D51740FE96E0A0E03204F
:10177000EA6E6ECEEFFF0F010E016D2BB8D70F0191
:101780000E01706B030E6F6F726B716B746B736B0A
:1017900004005D0E6F25776F000E7021786FF2CF19
:1017A00079FEF29E78CEAAFF77CEA9FFA69CA69ED0
:1017B000A680A85079BFF28E766B756F75510D08B3
:1017C00002E1765305E0725303E171511E0809E20C
:1017D000830E7125E96E0A0E7221EA6EEF6A13D04C
:1017E00008D0830E7125E96E0A0E7221EA6E75CE5D
:1017F000EFFF70CE03F06F516F2BD8B4702B712BAD
:10180000D8B4722BC5D76F2BD8B4702B726B716B99
:1018100004005D0E6F25776F000E7021786FF2CF98
:1018200079FEF29E78CEAAFF77CEA9FFA69CA69E4F
:10183000A680A85079BFF28E766B756F75510D0832
:1018400002E1765305E0725303E171511E0809E28B
:10185000A30E7125E96E0A0E7221EA6EEF6A13D0AB
:1018600008D0A30E7125E96E0A0E7221EA6E75CEBC
:10187000EFFF70CE03F06F516F2BD8B4702B712B2C
:10188000D8B4722BC5D76F2BD8B4702B726B716B19
:1018900004005D0E6F25776F000E7021786FF2CF18
:1018A00079FEF29E78CEAAFF77CEA9FFA69CA69ECF
:1018B000A680A85079BFF28E766B756F75510D08B2
:1018C00002E1765305E0725303E171511E0809E20B
:1018D000C30E7125E96E0A0E7221EA6EEF6A13D00B
:1018E00008D0C30E7125E96E0A0E7221EA6E75CE1C
:1018F000EFFF70CE03F06F516F2BD8B4702B712BAC
:10190000D8B4722BC5D76F2BD8B4702B726B716B98
:1019100004005D0E6F25776F000E7021786FF2CF97
:1019200079FEF29E78CEAAFF77CEA9FFA69CA69E4E
:10193000A680A85079BFF28E766B756F75510D0831
:1019400002E1765305E0725303E171511E0809E28A
:10195000E30E7125E96E0A0E7221EA6EEF6A13D06A
:1019600008D0E30E7125E96E0A0E7221EA6E75CE7B
:10197000EFFF70CE03F06F516F2BD8B4702B712B2B
:10198000D8B4722BC5D76F2BD8B4702B726B716B18
:1019900004005D0E6F25776F000E7021786FF2CF17
:1019A00079FEF29E78CEAAFF77CEA9FFA69CA69ECE
:1019B000A680A85079BFF28E766B756F75510D08B1
:1019C00002E1765305E0725303E171511E0809E20A
:1019D000030E7125E96E0B0E7221EA6EEF6A13D0C9
:1019E00008D0030E7125E96E0B0E7221EA6E75CEDA
:1019F000EFFF70CE03F06F516F2BD8B4702B712BAB
:101A0000D8B4722BC5D76F2BD8B4702B726B716B97
:101A100004005D0E6F25776F000E7021786FF2CF96
:101A200079FEF29E78CEAAFF77CEA9FFA69CA69E4D
:101A3000A680A85079BFF28E766B756F75510D0830
:101A400002E1765305E0725303E171511E0809E289
:101A5000230E7125E96E0B0E7221EA6EEF6A13D028
:101A600008D0230E7125E96E0B0E7221EA6E75CE39
:101A7000EFFF70CE03F06F516F2BD8B4702B712B2A
:101A8000D8B4722BC5D76F2BD8B4702B726B716B17
:101A900004005D0E6F25776F000E7021786FF2CF16
:101AA00079FEF29E78CEAAFF77CEA9FFA69CA69ECD
:101AB000A680A85079BFF28E766B756F75510D08B0
:101AC00002E1765305E0725303E171511E0809E209
:101AD000430E7125E96E0B0E7221EA6EEF6A13D088
:101AE00008D0430E7125E96E0B0E7221EA6E75CE99
:101AF000EFFF70CE03F06F516F2BD8B4702B712BAA
:101B0000D8B4722BC5D76F2BD8B4702B726B716B96
:101B100004005D0E6F25776F000E7021786FF2CF95
:101B200079FEF29E78CEAAFF77CEA9FFA69CA69E4C
:101B3000A680A85079BFF28E766B756F75510D082F
:101B400002E1765305E0725303E171511E0809E288
:101B5000630E7125E96E0B0E7221EA6EEF6A13D0E7
:101B600008D0630E7125E96E0B0E7221EA6E75CEF8
:101B7000EFFF70CE03F06F516F2BD8B4702B712B29
:101B8000D8B4722BC5D76F2BD8B4702B726B716B16
:101B900004005D0E6F25776F000E7021786FF2CF15
:101BA00079FEF29E78CEAAFF77CEA9FFA69CA69ECC
:101BB000A680A85079BFF28E766B756F75510D08AF
:101BC00002E1765305E0725303E171511E0809E208
:101BD000830E7125E96E0B0E7221EA6EEF6A13D047
:101BE00008D0830E7125E96E0B0E7221EA6E75CE58
:101BF000EFFF70CE03F06F516F2BD8B4702B712BA9
:101C0000D8B4722BC5D76F2BD8B4702B726B716B95
:101C100004005D0E6F25776F000E7021786FF2CF94
:101C200079FEF29E78CEAAFF77CEA9FFA69CA69E4B
:101C3000A680A85079BFF28E766B756F75510D082E
:101C400002E1765305E0725303E171511E0809E287
:101C5000A30E7125E96E0B0E7221EA6EEF6A13D0A6
:101C600008D0A30E7125E96E0B0E7221EA6E75CEB7
:101C7000EFFF70CE03F06F516F2BD8B4702B712B28
:101C8000D8B4722BC5D76F2BD8B4702B726B716B15
:101C900004005D0E6F25776F000E7021786FF2CF14
:101CA00079FEF29E78CEAAFF77CEA9FFA69CA69ECB
:101CB000A680A85079BFF28E766B756F75510D08AE
:101CC00002E1765305E0725303E171511E0809E207
:101CD000C30E7125E96E0B0E7221EA6EEF6A13D006
:101CE00008D0C30E7125E96E0B0E7221EA6E75CE17
:101CF000EFFF70CE03F06F516F2BD8B4702B712BA8
:101D0000D8B4722BC5D76F2BD8B4702B726B716B94
:101D100004005D0E6F25776F000E7021786FF2CF93
:101D200079FEF29E78CEAAFF77CEA9FFA69CA69E4A
:101D3000A680A85079BFF28E766B756F75510D082D
:101D400002E1765305E0725303E171511E0809E286
:101D5000E30E7125E96E0B0E7221EA6EEF6A13D065
:101D600008D0E30E7125E96E0B0E7221EA6E75CE76
:101D7000EFFF70CE03F06F516F2BD8B4702B712B27
:101D8000D8B4722BC5D76F2BD8B4702B726B716B14
:101D900004005D0E6F25776F000E7021786FF2CF13
:101DA00079FEF29E78CEAAFF77CEA9FFA69CA69ECA
:101DB000A680A85079BFF28E766B756F75510D08AD
:101DC00002E1765305E0725303E171511E0809E206
:101DD000030E7125E96E0C0E7221EA6EEF6A13D0C4
:101DE00008D0030E7125E96E0C0E7221EA6E75CED5
:101DF000EFFF70CE03F06F516F2BD8B4702B712BA7
:101E0000D8B4722BC5D76F2BD8B4702B726B716B93
:101E100004005D0E6F25776F000E7021786FF2CF92
:101E200079FEF29E78CEAAFF77CEA9FFA69CA69E49
:101E3000A680A85079BFF28E766B756F75510D082C
:101E400002E1765305E0725303E171511E0809E285
:101E5000230E7125E96E0C0E7221EA6EEF6A13D023
:101E600008D0230E7125E96E0C0E7221EA6E75CE34
:101E7000EFFF70CE03F06F516F2BD8B4702B712B26
:101E8000D8B4722BC5D76F2BD8B4702B726B716B13
:101E900004005D0E6F25776F000E7021786FF2CF12
:101EA00079FEF29E78CEAAFF77CEA9FFA69CA69EC9
:101EB000A680A85079BFF28E766B756F75510D08AC
:101EC00002E1765305E0725303E171511E0809E205
:101ED000430E7125E96E0C0E7221EA6EEF6A13D083
:101EE00008D0430E7125E96E0C0E7221EA6E75CE94
:101EF000EFFF70CE03F06F516F2BD8B4702B712BA6
:101F0000D8B4722BC5D76F2BD8B4702B726B716B92
:101F100004005D0E6F25776F000E7021786FF2CF91
:101F200079FEF29E78CEAAFF77CEA9FFA69CA69E48
:101F3000A680A85079BFF28E766B756F75510D082B
:101F400002E1765305E0725303E171511E0809E284
:101F5000630E7125E96E0C0E7221EA6EEF6A13D0E2
:101F600008D0630E7125E96E0C0E7221EA6E75CEF3
:101F7000EFFF70CE03F06F516F2BD8B4702B712B25
:101F8000D8B4722BC5D76F2BD8B4702B726B716B12
:101F900004005D0E6F25776F000E7021786FF2CF11
:101FA00079FEF29E78CEAAFF77CEA9FFA69CA69EC8
:101FB000A680A85079BFF28E766B756F75510D08AB
:101FC00002E1765305E0725303E171511E0809E204
:101FD000830E7125E96E0C0E7221EA6EEF6A13D042
:101FE00008D0830E7125E96E0C0E7221EA6E75CE53
:101FF000EFFF70CE03F06F516F2BD8B4702B712BA5
:10200000D8B4722BC5D76F2BD8B4702B726B716B91
:1020100004005D0E6F25776F000E7021786FF2CF90
:1020200079FEF29E78CEAAFF77CEA9FFA69CA69E47
:10203000A680A85079BFF28E766B756F75510D082A
:1020400002E1765305E0725303E171511E0809E283
:10205000A30E7125E96E0C0E7221EA6EEF6A13D0A1
:1020600008D0A30E7125E96E0C0E7221EA6E75CEB2
:10207000EFFF70CE03F06F516F2BD8B4702B712B24
:10208000D8B4722BC5D76F2BD8B4702B726B716B11
:1020900004005D0E6F25776F000E7021786FF2CF10
:1020A00079FEF29E78CEAAFF77CEA9FFA69CA69EC7
:1020B000A680A85079BFF28E766B756F75510D08AA
:1020C00002E1765305E0725303E171511E0809E203
:1020D000C30E7125E96E0C0E7221EA6EEF6A13D001
:1020E00008D0C30E7125E96E0C0E7221EA6E75CE12
:1020F000EFFF70CE03F06F516F2BD8B4702B712BA4
:10210000D8B4722BC5D76F2BD8B4702B726B716B90
:1021100004005D0E6F25776F000E7021786FF2CF8F
:1021200079FEF29E78CEAAFF77CEA9FFA69CA69E46
:10213000A680A85079BFF28E766B756F75510D0829
:1021400002E1765305E0725303E171511E0809E282
:10215000E30E7125E96E0C0E7221EA6EEF6A13D060
:1021600008D0E30E7125E96E0C0E7221EA6E75CE71
:10217000EFFF70CE03F06F516F2BD8B4702B712B23
:10218000D8B4722BC5D700011200929A899A0E0119
:10219000795141097C6FC9507CCEC9FFC730FEE33D
:1021A000C9507ACEC9FFC730FEE3C950C96AC730EB
:1021B000FEE3C9CF7BFE929A898A7BCE01F00001B3
:1021C000120077CE79FE090E0E017A6F0001DDDF75
:1021D00001C078FE0E0178CE01F00001120077CE2A
:1021E00079FE190E0E017A6F0001CFDF01C078FE73
:1021F0000E0178CE01F0000112000E017851070B9C
:10220000006E7831016E013201321F0E011601504D
:102210007925E96E000E7A21EA6EEFCF01F0002AEF
:1022200001D00132002EFDD7010E0116000112006F
:102230000E017B517D03F3CF01F0F4CF00F07E035C
:10224000F35000267C517D03F3500020026E000104
:1022500012000E017851070B006E7831016E0132C9
:1022600001321F0E011601507A25E96E000E7B2106
:10227000EA6E016A012A002A01D00136002EFDD73C
:10228000795303E00150EF1203D0011E0150EF1605
:10229000000112000E01776B010E776F7751140861
:1022A00017E377CE78FE0D0E7A6FE30E796F00019B
:1022B000A4DF77CE78FE0E01796B01B0792B0D0E7D
:1022C0007B6FDF0E7A6F0001C4DF0E01772BE6D73C
:1022D000000189EF15F00E01776B000172DF01C07C
:1022E0006FFA1CA803D00A016F1F00010D01E497CB
:1022F0000A016FA103D00D01E4870A01D8906F3164
:102300000D01E499E8B0E4890A016F31006E0032F2
:102310003F0E00160D01E49B00B0E48B0A016F3103
:10232000006E003200321F0E00160D01E49D00B059
:10233000E48D0A016F39006E0F0E00160D01E49F47
:1023400000B0E48F0A016F39006E0032070E0016EC
:102350000D01E59100B0E5810A016F39006E003290
:102360000032030E00160D01E59300B0E583006A0C
:102370000A016FBF00800D01E59500B0E5850E01F3
:10238000776B00012CDF01C06FFA1CA803D00A0193
:102390006F1F00010D01E5970A016FA103D00D0128
:1023A000E5870A01D8906F310D01E599E8B0E5891C
:1023B000020E0E01776F000104DF01C06FFA1CA846
:1023C00003D00A016F1F00010D01E3930A016FA101
:1023D00003D00D01E3830A01D8906F310D01E3951D
:1023E000E8B0E3850A016F31006E00323F0E00163F
:1023F0000D01E39700B0E3870A016F31006E0032F0
:1024000000321F0E00160D01E39900B0E3890A01A6
:102410006F39006E0F0E00160D01E39B00B0E38BC9
:102420000A016F39006E0032070E00160D01E39DA0
:1024300000B0E38D0A016F39006E00320032030EE6
:1024400000160D01E39F00B0E38F006A0A016FBF21
:1024500000800D01E49100B0E481020E0E01776F5F
:102460000001BDDE01C06FFA1CA803D00A016F1F76
:1024700000010D01E4930A016FA103D00D01E48373
:102480000A01D8906F310D01E495E8B0E485010EA2
:102490000E01766F76511408D8A038D376CE78FE28
:1024A0000E0E7A6F5F0E796F0001A7DE0150010BEF
:1024B0000108D8A48DD176CE78FE0D0E0E017A6F6C
:1024C000E30E796F000199DE0150010BD8A4C0D052
:1024D00076CE78FE0D0E0E017A6FDF0E796F000159
:1024E0008CDE0150010BD8A4A5D0D8900E01763512
:1024F000036AE70FE96E0D0E0320EA6E010EEE2669
:1025000001E3EF2AD8907635036AE70FE96E0D0EE6
:102510000320EA6EECCF78FEED52EFCF77FED89035
:102520007635036A230FE96E0E0E0320EA6EECCFB8
:102530007CFEED52EFCF7BFE7E6B4B0E7D6F00017C
:1025400077DE02C07AFE01C079FE0F0E0E01012473
:10255000016E000E0220036E0350785DD8A068D093
:1025600003E10150775D64E3D8907635036AE70FA5
:10257000E96E0D0E0320EA6EEC6AED52EF6A010E71
:10258000765DEC0F55E2140F0001E4EF16F00D013B
:10259000A7910E014DD00D01A7930E0149D00D0159
:1025A000A7950E0145D00D01A7970E0141D00D0151
:1025B000A7990E013DD00D01A79B0E0139D00D0149
:1025C000A79D0E0135D00D01A79F0E0131D00D0141
:1025D000A8910E012DD00D01A8930E0129D00D0157
:1025E000A8950E0125D00D01A8970E0121D00D014F
:1025F000A8990E011DD00D01A89B0E0119D00D0147
:10260000A89D0E0115D00D01A89F0E0111D00D013E
:10261000A9910E010DD00D01A9930E0109D00D0154
:10262000A9950E0105D00D01A9970E0101D00E014B
:102630000DD00001D8900E017635036AE70FE96EE0
:102640000D0E0320EA6EEC6AED52EF6AC0D0000175
:1026500076CE78FE0D0E0E017A6FDF0E796F0001D7
:10266000CCDD0150010B0108D8A4A5D0D8900E01F3
:102670007635036AE70FE96E0D0E0320EA6E010E50
:10268000EE2601E3EF2AD8907635036AE70FE96E6C
:102690000D0E0320EA6EECCF78FEED52EFCF77FE01
:1026A000D8907635036A230FE96E0E0E0320EA6E8A
:1026B000ECCF7CFEED52EFCF7BFE7E6B4B0E7D6F41
:1026C0000001B6DD02C07AFE01C079FE0F0E0E01D8
:1026D0000124016E000E0220036E0350785DD8A025
:1026E00068D003E10150775D64E3D8907635036AE2
:1026F000E70FE96E0D0E0320EA6EEC6AED52010E53
:10270000EF6E765DEC0F55E2140F000105EF17F048
:102710000D01A7810E014DD00D01A7830E0149D0F7
:102720000D01A7850E0145D00D01A7870E0141D0EF
:102730000D01A7890E013DD00D01A78B0E0139D0E7
:102740000D01A78D0E0135D00D01A78F0E0131D0DF
:102750000D01A8810E012DD00D01A8830E0129D0F5
:102760000D01A8850E0125D00D01A8870E0121D0ED
:102770000D01A8890E011DD00D01A88B0E0119D0E5
:102780000D01A88D0E0115D00D01A88F0E0111D0DD
:102790000D01A9810E010DD00D01A9830E0109D0F3
:1027A0000D01A9850E0105D00D01A9870E0101D0EB
:1027B0000E010DD00001D8900E017635036AE70FA7
:1027C000E96E0D0E0320EA6EEC6AED52EF6A9AD1C3
:1027D00076CE78FE0E0E0E017A6F5F0E796F0001D5
:1027E0000CDD0150010BD8A48ED176CE78FE0D0EF3
:1027F0000E017A6FE30E796F0001FFDC0150010BCF
:102800000108D8A4C1D076CE78FE0D0E0E017A6FE5
:10281000DF0E796F0001F1DC0150010B0108D8A433
:10282000A5D0D8900E017635036AE70FE96E0D0E3C
:102830000320EA6E010EEE2601E3EF2AD8907635EA
:10284000036AE70FE96E0D0E0320EA6EECCF78FE07
:10285000ED52EFCF77FED8907635036A230FE96EFD
:102860000E0E0320EA6EECCF7CFEED52EFCF7BFE26
:102870007E6B4B0E7D6F0001DBDC02C07AFE01C077
:1028800079FE0F0E0E010124016E000E0220036E70
:102890000350785DD8A068D003E10150775D64E310
:1028A000D8907635036AE70FE96E0D0E0320EA6EC5
:1028B000EC6AED52EF6A010E765DEC0F55E2140FF3
:1028C000000126EF17F00D01A7810E014DD00D017B
:1028D000A7830E0149D00D01A7850E0145D00D013A
:1028E000A7870E0141D00D01A7890E013DD00D0132
:1028F000A78B0E0139D00D01A78D0E0135D00D012A
:10290000A78F0E0131D00D01A8810E012DD00D0130
:10291000A8830E0129D00D01A8850E0125D00D0137
:10292000A8870E0121D00D01A8890E011DD00D012F
:10293000A88B0E0119D00D01A88D0E0115D00D0127
:10294000A88F0E0111D00D01A9810E010DD00D012E
:10295000A9830E0109D00D01A9850E0105D00D0135
:10296000A9870E0101D00E010DD00001D8900E01F3
:102970007635036AE70FE96E0D0E0320EA6EEC6A06
:10298000ED52EF6ABFD0000176CE78FE0D0E0E013B
:102990007A6FDF0E796F000130DC0150010BD8A493
:1029A000A5D0D8900E017635036AE70FE96E0D0EBB
:1029B0000320EA6E010EEE2601E3EF2AD890763569
:1029C000036AE70FE96E0D0E0320EA6EECCF78FE86
:1029D000ED52EFCF77FED8907635036A230FE96E7C
:1029E0000E0E0320EA6EECCF7CFEED52EFCF7BFEA5
:1029F0007E6B4B0E7D6F00011BDC02C07AFE01C0B6
:102A000079FE0F0E0E010124016E000E0220036EEE
:102A10000350785DD8A068D003E10150775D64E38E
:102A2000D8907635036AE70FE96E0D0E0320EA6E43
:102A3000EC6AED52EF6A010E765DEC0F55E2140F71
:102A4000000147EF17F00D01A7910E014DD00D01C8
:102A5000A7930E0149D00D01A7950E0145D00D0198
:102A6000A7970E0141D00D01A7990E013DD00D0190
:102A7000A79B0E0139D00D01A79D0E0135D00D0188
:102A8000A79F0E0131D00D01A8910E012DD00D018F
:102A9000A8930E0129D00D01A8950E0125D00D0196
:102AA000A8970E0121D00D01A8990E011DD00D018E
:102AB000A89B0E0119D00D01A89D0E0115D00D0186
:102AC000A89F0E0111D00D01A9910E010DD00D018D
:102AD000A9930E0109D00D01A9950E0105D00D0194
:102AE000A9970E0101D00E010DD00001D8900E0162
:102AF0007635036AE70FE96E0D0E0320EA6EEC6A85
:102B0000ED52EF6A00010E01762BC4D400014AEFAA
:102B100011F0486A000E0D01A9A3010E4812D890C9
:102B200048340E01776F000E0D01A9A1010E0E01B0
:102B30007711486ED8904834776F000E0D01A8AF1A
:102B4000010E0E017711486ED8904834776F000E51
:102B50000D01A8AD010E0E017711486ED8904834D2
:102B6000776F000E0D01A8AB010E0E017711486EB4
:102B7000D8904834776F000E0D01A8A9010E0E0100
:102B80007711486ED8904834776F000E0D01A8A7D2
:102B9000010E0E017711486ED8904834776F000E01
:102BA0000D01A8A5010E0E017711486E496A000EAD
:102BB0000D01A9A7010E4912D89049340E01776F73
:102BC000000E0D01A9A5010E0E017711496E466A8E
:102BD000000E0D01A7AF010E4612D89046340E012B
:102BE000776F000E0D01A7AD010E0E017711466E35
:102BF000D8904634776F000E0D01A7AB010E0E0181
:102C00007711466ED8904634776F000E0D01A7A954
:102C1000010E0E017711466ED8904634776F000E84
:102C20000D01A7A7010E0E017711466ED89046340C
:102C3000776F000E0D01A7A5010E0E017711466EEC
:102C4000D8904634776F000E0D01A7A3010E0E0138
:102C50007711466ED8904634776F000E0D01A7A10C
:102C6000010E0E017711466E4A6A000E0D01A8AFE3
:102C7000010E4A12D8904A340E01776F000E0D01F2
:102C8000A8AD010E0E0177114A6ED8904A34776FC5
:102C9000000E0D01A8AB010E0E0177114A6ED890FF
:102CA0004A34776F000E0D01A8A9010E0E017711AD
:102CB0004A6ED8904A34776F000E0D01A8A7010E16
:102CC0000E0177114A6ED8904A34776F000E0D01CD
:102CD000A8A5010E0E0177114A6ED8904A34776F7D
:102CE000000E0D01A8A3010E0E0177114A6ED890B7
:102CF0004A34776F000E0D01A8A1010E0E01771165
:102D00004A6E4B6A000E0D01A9AF010E4B12D8900E
:102D10004B340E01776F000E0D01A9AD010E0E01AF
:102D200077114B6ED8904B34776F000E0D01A9AB25
:102D3000010E0E0177114B6ED8904B34776F000E59
:102D40000D01A9A9010E0E0177114B6ED8904B34DD
:102D5000776F000E0D01A9A7010E0E0177114B6EC2
:102D6000D8904B34776F000E0D01A9A5010E0E010E
:102D700077114B6ED8904B34776F000E0D01A9A3DD
:102D8000010E0E0177114B6ED8904B34776F000E09
:102D90000D01A9A1010E0E0177114B6E476A000EBD
:102DA0000D01A8A3010E4712D89047340E01776F8A
:102DB000000E0D01A8A1010E0E017711476E0F0E36
:102DC0004B164C6A00011200E824F76AF736E30F4D
:102DD000F66E2D0EF7220A00F550FA6E0800F55037
:102DE000F96E8E2596259E25A625AE25B625BE25EF
:102DF000C625CE25D625DE25E625EE25F625FE259B
:102E000006260E2616261E262626E824F76AF736FC
:102E1000250FF66E2E0EF7220A00F550FA6E080006
:102E2000F550F96E10271827202728273027382734
:102E3000402748275027582760276827702778277A
:102E40008027882790279827A027A827E824F76AB3
:102E5000F736670FF66E2E0EF7220A00F550FA6E5F
:102E60000800F550F96EC628CE28D628DE28E628B8
:102E7000EE28F628FE2806290E2916291E292629BD
:102E80002E2936293E2946294E2956295E29E8242D
:102E9000F76AF736A90FF66E2E0EF7220A00F550E4
:102EA000FA6E0800F550F96E462A4E2A562A5E2A16
:102EB000662A6E2A762A7E2A862A8E2A962A9E2AB2
:102EC000A62AAE2AB62ABE2AC62ACE2AD62ADE2AA2
:102ED00075CE77FE0A0E0E01786F76CE79FE000170
:102EE00049EC03F0120075CE77FE1A0E0E01786FD2
:102EF00076CE79FE000149EC03F012003152D8A4DD
:102F000046D20D01ABA103D051904D9014D0D3A166
:102F100005D0D7B103D04D8051900DD0D3B105D09D
:102F2000D7A103D04D90518006D0D3A104D0D7A112
:102F300002D04D805180ABA303D051924D9214D05A
:102F4000D3A305D0D7B303D04D8251920DD0D3B3C4
:102F500005D0D7A303D04D92518206D0D3A304D07D
:102F6000D7A302D04D825182ABA503D051944D948A
:102F700014D0D3A505D0D7B503D04D8451940DD02E
:102F8000D3B505D0D7A503D04D94518406D0D3A591
:102F900004D0D7A502D04D845184ABA703D051965D
:102FA0004D9614D0D3A705D0D7B703D04D865196F0
:102FB0000DD0D3B705D0D7A703D04D96518606D0F4
:102FC000D3A704D0D7A702D04D865186ABA903D092
:102FD00051984D9814D0D3A905D0D7B903D04D88B6
:102FE00051980DD0D3B905D0D7A903D04D985188A9
:102FF00006D0D3A904D0D7A902D04D885188ABAB55
:1030000003D0519A4D9A14D0D3AB05D0D7BB03D07F
:103010004D8A519A0DD0D3BB05D0D7AB03D04D9A72
:10302000518A06D0D3AB04D0D7AB02D04D8A518A97
:10303000ABAD03D0519C4D9C14D0D3AD05D0D7BDC2
:1030400003D04D8C519C0DD0D3BD05D0D7AD03D04E
:103050004D9C518C06D0D3AD04D0D7AD02D04D8C51
:10306000518CABAF03D0519E4D9E14D0D3AF05D041
:10307000D7BF03D04D8E519E0DD0D3BF05D0D7AF53
:1030800003D04D9E518E06D0D3AF04D0D7AF02D01F
:103090004D8E518EACA103D052904E9014D0D4A13D
:1030A00005D0D8B103D04E8052900DD0D4B105D008
:1030B000D8A103D04E90528006D0D4A104D0D8A17C
:1030C00002D04E805280ACA303D052924E9214D0C4
:1030D000D4A305D0D8B303D04E8252920DD0D4B32E
:1030E00005D0D8A303D04E92528206D0D4A304D0E8
:1030F000D8A302D04E825282ACA503D053904F90F9
:1031000014D0D4A505D0D8B503D04F8053900DD09E
:10311000D4B505D0D8A503D04F90538006D0D4A500
:1031200004D0D8A502D04F805380ACA503D05390D3
:103130004F9014D0D4A505D0D8B503D04F8053906C
:103140000DD0D4B505D0D8A503D04F90538006D06C
:10315000D4A504D0D8A502D04F805380ACA703D00B
:1031600053924F9214D0D4A705D0D8B703D04F8232
:1031700053920DD0D4B705D0D8A703D04F92538225
:1031800006D0D4A704D0D8A702D04F825382ACA9CE
:1031900003D053944F9414D0D4A905D0D8B903D0F8
:1031A0004F8453940DD0D4B905D0D8A903D04F94EF
:1031B000538406D0D4A904D0D8A902D04F84538414
:1031C000ACAB03D053964F9614D0D4AB05D0D8BB3C
:1031D00003D04F8653960DD0D4BB05D0D8AB03D0C7
:1031E0004F96538606D0D4AB04D0D8AB02D04F86CE
:1031F0005386ACAD03D053984F9814D0D4AD05D0BE
:10320000D8BD03D04F8853980DD0D4BD05D0D8ADCC
:1032100003D04F98538806D0D4AD04D0D8AD02D097
:103220004F885388ACAF03D0539A4F9A14D0D4AF81
:1032300005D0D8BF03D04F8A539A0DD0D4BF05D044
:10324000D8AF03D04F9A538A06D0D4AF04D0D8AFAA
:1032500002D04F8A538AADA103D0539C4F9C14D007
:10326000D5A105D0D9B103D04F8C539C0DD0D5B189
:1032700005D0D9A103D04F9C538C06D0D5A104D042
:10328000D9A102D04F8C538CADA303D0539E4F9E37
:1032900014D0D5A305D0D9B303D04F8E539E0DD0F3
:1032A000D5B305D0D9A303D04F9E538E06D0D5A356
:1032B00004D0D9A302D04F8E538EADA503D0549025
:1032C000509014D0D5A505D0D9B503D050805490D6
:1032D0000DD0D5B505D0D9A503D05090548006D0D7
:1032E000D5A504D0D9A502D050805480ADA703D075
:1032F0005492509214D0D5A705D0D9B703D050829C
:1033000054920DD0D5B705D0D9A703D0509254828E
:1033100006D0D5A704D0D9A702D050825482040E7B
:103320000E01756F4DC076FE0001D2DD040E0E0158
:10333000756F4EC076FE0001D6DD060E0E01756F6C
:1033400051C076FE0001C4DD060E0E01756F52C03D
:1033500076FE0001C8DD0A0E0E01756F4FC076FEC5
:103360000001B6DD0A0E0E01756F50C076FE000139
:10337000BADD080E0E01756F53C076FE0001A8DDA0
:10338000080E0E01756F54C076FE0001ACDD120010
:1033900093908A90080E016E00D00000018E10D02C
:1033A000019E0E016F330001D8B08A80D8A08A90A8
:1033B000018C06D0019C012EF4D700D000008A8039
:1033C000840EE96EE92EFED700D0000001BEE8D7DA
:1033D00001BCF0D712000900F5520CE0F6CF6DFEEB
:1033E000F7CF6EFEF5CF6FFED3DF6DCEF6FF6ECE5C
:1033F000F7FFF1D712000601676966690E017B6B62
:1034000079517B5D21E204007B517725E96E000E46
:103410007821EA6EEF50060167190E017A6F036A90
:103420007A5100015DEC00F0016E06016651011851
:10343000676F036A0E017A510001E5EC00F0E8CFF6
:1034400066F60E017B2BDCD7000112009EA8FED78A
:10345000AD6E1200206A216A226A286A296A2A6AE5
:103460000D01C7B104D0ABB102D0CF8101D0CF9153
:10347000C7B304D0ABB302D0CF8301D0CF93C7B5CD
:1034800004D0ABB502D0CF8501D0CF95C7B704D05B
:10349000ABB702D0CF8701D0CF97C7B904D0ABB9B3
:1034A00002D0CF8901D0CF99C7BB04D0ABBB02D02B
:1034B000CF8B01D0CF9BC7BD04D0ABBD02D0CF8D89
:1034C00001D0CF9DC7BF04D0ABBF02D0CF8F01D0FA
:1034D000CF9FC8B104D0ACB102D0D08101D0D0917F
:1034E000C8B304D0ACB302D0D08301D0D093C8B558
:1034F00004D0ACB502D0D08501D0D095C8B704D0E7
:10350000ACB702D0D08701D0D097C8B904D0ACB93D
:1035100002D0D08901D0D099C8BB04D0ACBB02D0B6
:10352000D08B01D0D09BC8BD04D0ACBD02D0D08D13
:1035300001D0D09DC8BF04D0ACBF02D0D08F01D085
:10354000D09FC9B104D0ADB102D0D18101D0D19109
:10355000C9B304D0ADB302D0D18301D0D193C9B5E2
:1035600004D0ADB502D0D18501D0D195C9B704D072
:10357000ADB702D0D18701D0D197000ECFBF010ED9
:103580002812D89028340E01776F000E0D01CFBDA0
:10359000010E0E017711286ED8902834776F000E37
:1035A0000D01CFBB010E0E017711286ED890283483
:1035B000776F000E0D01CFB9010E0E017711286E45
:1035C000D8902834776F000E0D01CFB7010E0E0191
:1035D0007711286ED8902834776F000E0D01CFB583
:1035E000010E0E017711286ED8902834776F000EE7
:1035F0000D01CFB3010E0E017711286ED89028343B
:10360000776F000E0D01CFB1010E0E017711286EFC
:10361000000E0D01D0BF010E2912D89029340E01E1
:10362000776F000E0D01D0BD010E0E017711296ECE
:10363000D8902934776F000E0D01D0BB010E0E011A
:103640007711296ED8902934776F000E0D01D0B90B
:10365000010E0E017711296ED8902934776F000E74
:103660000D01D0B7010E0E017711296ED8902934C3
:10367000776F000E0D01D0B5010E0E017711296E86
:10368000D8902934776F000E0D01D0B3010E0E01D2
:103690007711296ED8902934776F000E0D01D0B1C3
:1036A000010E0E017711296E000E0D01D1BF010E22
:1036B0002A12D8902A340E01776F000E0D01D1BD69
:1036C000010E0E0177112A6ED8902A34776F000E02
:1036D0000D01D1BB010E0E0177112A6ED8902A344C
:1036E000776F000E0D01D1B9010E0E0177112A6E10
:1036F000D8902A34776F000E0D01D1B7010E0E015C
:1037000077112A6ED8902A34776F000E0D01D1B54B
:10371000010E0E0177112A6ED8902A34776F000EB1
:103720000D01D1B3010E0E0177112A6ED8902A3403
:10373000776F000E0D01D1B1010E0E0177112A6EC7
:10374000000E0D01C7BF010E2012D89020340E01CB
:10375000776F000E0D01C7BD010E0E017711206EAF
:10376000D8902034776F000E0D01C7BB010E0E01FB
:103770007711206ED8902034776F000E0D01C7B9F5
:10378000010E0E017711206ED8902034776F000E55
:103790000D01C7B7010E0E017711206ED8902034AD
:1037A000776F000E0D01C7B5010E0E017711206E67
:1037B000D8902034776F000E0D01C7B3010E0E01B3
:1037C0007711206ED8902034776F000E0D01C7B1AD
:1037D000010E0E017711206E000E0D01C8BF010E03
:1037E0002112D89021340E01776F000E0D01C8BD53
:1037F000010E0E017711216ED8902134776F000EE3
:103800000D01C8BB010E0E017711216ED890213435
:10381000776F000E0D01C8B9010E0E017711216EF0
:10382000D8902134776F000E0D01C8B7010E0E013C
:103830007711216ED8902134776F000E0D01C8B535
:10384000010E0E017711216ED8902134776F000E92
:103850000D01C8B3010E0E017711216ED8902134ED
:10386000776F000E0D01C8B1010E0E017711216EA8
:10387000000E0D01C9BF010E2212D89022340E0194
:10388000776F000E0D01C9BD010E0E017711226E7A
:10389000D8902234776F000E0D01C9BB010E0E01C6
:1038A0007711226ED8902234776F000E0D01C9B9BE
:1038B000010E0E017711226ED8902234776F000E20
:1038C0000D01C9B7010E0E017711226ED890223476
:1038D000776F000E0D01C9B5010E0E017711226E32
:1038E000D8902234776F000E0D01C9B3010E0E017E
:1038F0007711226ED8902234776F000E0D01C9B176
:10390000010E0E017711226E000154EF23F0948016
:1039100082B002D01CAE02D01CA406D0320E0E0122
:10392000766F000131EC03F0948082B002D01CAEBF
:1039300002D01CA4C1D01C941F6A0D01C7B102D0D3
:10394000CBA105D0C381C791CB91AB91DB91C7B31C
:1039500002D0CBA305D0C383C793CB93AB93DB93A8
:10396000C7B502D0CBA505D0C385C795CB95AB9580
:10397000DB95C7B702D0CBA705D0C387C797CB9736
:10398000AB97DB97C7B902D0CBA905D0C389C7993C
:10399000CB99AB99DB99C7BB02D0CBAB05D0C38B1E
:1039A000C79BCB9BAB9BDB9BC7BD02D0CBAD05D0F0
:1039B000C38DC79DCB9DAB9DDB9DC7BF02D0CBAF59
:1039C00005D0C38FC79FCB9FAB9FDB9FC8B102D0F1
:1039D000CCA105D0C481C891CC91AC91DC91C8B385
:1039E00002D0CCA305D0C483C893CC93AC93DC9312
:1039F000C8B502D0CCA505D0C485C895CC95AC95EA
:103A0000DC95C8B702D0CCA705D0C487C897CC979F
:103A1000AC97DC97C8B902D0CCA905D0C489C899A5
:103A2000CC99AC99DC99C8BB02D0CCAB05D0C48B87
:103A3000C89BCC9BAC9BDC9BC8BD02D0CCAD05D059
:103A4000C48DC89DCC9DAC9DDC9DC8BF02D0CCAFC1
:103A500005D0C48FC89FCC9FAC9FDC9FC9B102D05A
:103A6000CDA105D0C581C991CD91AD91DD91C9B3ED
:103A700002D0CDA305D0C583C993CD93AD93DD937B
:103A8000C9B502D0CDA505D0C585C995CD95AD9553
:103A9000DD95C9B702D0CDA705D0C587C997CD9709
:103AA000AD97DD9732A601D032961C8E89989298F8
:103AB0008996929608D00001948082A003D01CAE13
:103AC00001D01C9E0D0100011200948282B202D02E
:103AD00032A002D01CA606D0320E0E01766F000175
:103AE00031EC03F0948282B202D032A002D01CA644
:103AF00094D11C96000E0D01A7B1010E0E01776F37
:103B0000000E0D01AFB1010E0E01771907E10D0195
:103B1000C7A102D00E0102D0AB810E01000E0D0133
:103B2000A7B3010E0E01776F000E0D01AFB3010EAA
:103B30000E01771907E10D01C7A302D00E0102D0D3
:103B4000AB830E01000E0D01A7B5010E0E01776FBC
:103B5000000E0D01AFB5010E0E01771907E10D0141
:103B6000C7A502D00E0102D0AB850E01000E0D01DB
:103B7000A7B7010E0E01776F000E0D01AFB7010E52
:103B80000E01771907E10D01C7A702D00E0102D07F
:103B9000AB870E01000E0D01A7B9010E0E01776F64
:103BA000000E0D01AFB9010E0E01771907E10D01ED
:103BB000C7A902D00E0102D0AB890E01000E0D0183
:103BC000A7BB010E0E01776F000E0D01AFBB010EFA
:103BD0000E01771907E10D01C7AB02D00E0102D02B
:103BE000AB8B0E01000E0D01A7BD010E0E01776F0C
:103BF000000E0D01AFBD010E0E01771907E10D0199
:103C0000C7AD02D00E0102D0AB8D0E01000E0D012A
:103C1000A7BF010E0E01776F000E0D01AFBF010EA1
:103C20000E01771907E10D01C7AF02D00E0102D0D6
:103C3000AB8F0E01000E0D01A8B1010E0E01776FC2
:103C4000000E0D01B0B1010E0E01771907E10D0153
:103C5000C8A102D00E0102D0AC810E01000E0D01F0
:103C6000A8B3010E0E01776F000E0D01B0B3010E67
:103C70000E01771907E10D01C8A302D00E0102D091
:103C8000AC830E01000E0D01A8B5010E0E01776F79
:103C9000000E0D01B0B5010E0E01771907E10D01FF
:103CA000C8A502D00E0102D0AC850E01000E0D0198
:103CB000A8B7010E0E01776F000E0D01B0B7010E0F
:103CC0000E01771907E10D01C8A702D00E0102D03D
:103CD000AC870E01000E0D01A8B9010E0E01776F21
:103CE000000E0D01B0B9010E0E01771907E10D01AB
:103CF000C8A902D00E0102D0AC890E01000E0D0140
:103D0000A8BB010E0E01776F000E0D01B0BB010EB6
:103D10000E01771907E10D01C8AB02D00E0102D0E8
:103D2000AC8B0E01000E0D01A8BD010E0E01776FC8
:103D3000000E0D01B0BD010E0E01771907E10D0156
:103D4000C8AD02D00E0102D0AC8D0E01000E0D01E7
:103D5000A8BF010E0E01776F000E0D01B0BF010E5E
:103D60000E01771907E10D01C8AF02D00E0102D094
:103D7000AC8F0E01000E0D01A9B1010E0E01776F7F
:103D8000000E0D01B1B1010E0E01771907E10D0111
:103D9000C9A102D00E0102D0AD810E01000E0D01AD
:103DA000A9B3010E0E01776F000E0D01B1B3010E24
:103DB0000E01771907E10D01C9A302D00E0102D04F
:103DC000AD830E01000E0D01A9B5010E0E01776F36
:103DD000000E0D01B1B5010E0E01771907E10D01BD
:103DE000C9A502D00E0102D0AD850E01000E0D0155
:103DF000A9B7010E0E01776F000E0D01B1B7010ECC
:103E00000E01771907E10D01C9A702D00E0102D0FA
:103E1000AD870E01328008D00001948282A203D0C7
:103E200032A001D032900E01000112000400010EF8
:103E3000655D0E01766F020E786F660E776F76CE37
:103E400079FE0001FBEC19F0010E655D660FE96E6D
:103E5000020EEA6ED8B0EA2AEF500601675DD8A4D8
:103E60003DEF36F0660E00016525E96E020EEA6E42
:103E7000D8B0EA2AEF500601665DD8A43DEF36F0CF
:103E800002016651AA08D8A495D167512008D8A488
:103E900091D164C066F0200E0001676F1C0E686F40
:103EA00037C069F038C06AF039C06BF03AC06CF0C6
:103EB0003BC06DF03CC06EF03DC06FF03EC070F096
:103EC0003FC071F040C072F041C073F042C074F066
:103ED00043C075F044C076F045C077F0F2CF76FE6F
:103EE000F29EAA6A100EA96EA69CA69EA680A85055
:103EF0000E0176BFF28E0001786FF2CF76FEF29E51
:103F0000AA6A110EA96EA69CA69EA680A8500E01B4
:103F100076BFF28E0001796FF2CF76FEF29EAA6A2A
:103F2000120EA96EA69CA69EA680A8500E0176BF72
:103F3000F28E00017A6FF2CF76FEF29EAA6A130E1D
:103F4000A96EA69CA69EA680A8500E0176BFF28EF2
:103F500000017B6FF2CF76FEF29EAA6A140EA96E64
:103F6000A69CA69EA680A8500E0176BFF28E0001E8
:103F70007C6FF2CF76FEF29EAA6A150EA96EA69C01
:103F8000A69EA680A8500E0176BFF28E00017D6F1E
:103F9000F2CF76FEF29EAA6A160EA96EA69CA69E87
:103FA000A680A8500E0176BFF28E00017E6FF2CF80
:103FB00076FEF29EAA6A170EA96EA69CA69EA68001
:103FC000A8500E0176BFF28E00017F6F55C080F0C1
:103FD00056C081F057C082F058C083F023CE84F0E1
:103FE00064C085F025CE86F027CE87F029CE88F0F4
:103FF0002BCE89F02DCE8AF02FCE8BF031CE8CF0E7
:1040000033CE8DF035CE8EF037CE8FF039CE90F0A6
:104010003BCE91F03DCE92F03FCE93F041CE94F066
:1040200043CE95F045CE96F047CE97F049CE98F026
:104030004BCE99F00E01786B660E776F340E796F68
:104040000001FBEC19F067C69AF066C69BF08A8601
:1040500093960A0E0E01766F000131EC03F0665163
:1040600026EC1AF0675126EC1AF0685126EC1AF08B
:10407000695126EC1AF06A5126EC1AF06B5126ECC5
:104080001AF06C5126EC1AF06D5126EC1AF06E51B4
:1040900026EC1AF06F5126EC1AF0705126EC1AF04B
:1040A000715126EC1AF0725126EC1AF0735126EC7D
:1040B0001AF0745126EC1AF0755126EC1AF076516C
:1040C00026EC1AF0775126EC1AF0785126EC1AF00B
:1040D000795126EC1AF07A5126EC1AF07B5126EC35
:1040E0001AF07C5126EC1AF07D5126EC1AF07E5124
:1040F00026EC1AF07F5126EC1AF0805126EC1AF0CB
:10410000815126EC1AF0825126EC1AF0835126ECEC
:104110001AF0845126EC1AF0855126EC1AF08651DB
:1041200026EC1AF0875126EC1AF0885126EC1AF08A
:10413000895126EC1AF08A5126EC1AF08B5126ECA4
:104140001AF08C5126EC1AF08D5126EC1AF08E5193
:1041500026EC1AF08F5126EC1AF0905126EC1AF04A
:10416000915126EC1AF0925126EC1AF0935126EC5C
:104170001AF0945126EC1AF0955126EC1AF096514B
:1041800026EC1AF0975126EC1AF0985126EC1AF00A
:10419000995126EC1AF09A5126EC1AF09B5126EC14
:1041A0001AF0030E0E01766F000131EC03F08A96CF
:1041B00093960201000164510201665DD8A438EFB4
:1041C00036F0672D6AD206016B6B68C26AF66AC662
:1041D0006BF60E01766B76510201691106016A6F6A
:1041E00006016D6B6AC26CF66CC66DF60E01766BDD
:1041F000765102016B1106016C6F06016B53D8A456
:1042000013D26A510F08D8A00FD26C516A250E0143
:10421000766F06016D516B210E01776F7753D8B41D
:1042200002D0060101D276511408D8B002D006019E
:10423000FBD106016D5306E16C51080803E3010E42
:104240006E6F12D06D5306E16C51100803E3020E3D
:104250006E6F0AD06D5306E16C51180803E3030E2C
:104260006E6F02D0010E6E6F6E2DA2D06B530DE1FA
:104270006A5108080AE346C06FF66A51016E04E00D
:10428000D8906F33012EFCD71AD06B5303E16A51DB
:10429000080815E26B5313E16A510F0810E3080E8A
:1042A0006A5D006E000E6B59036E00C001F04AC0DB
:1042B0006FF6015204E0D8906F33012EFCD76C5199
:1042C000080803E16D5301E135D06C51070804E1A2
:1042D0006D5302E16F9F2ED06C51060805E16D53BE
:1042E00003E13F0E6F1726D06C51050805E16D53B1
:1042F00003E11F0E6F171ED06C51040805E16D53CA
:1043000003E10F0E6F1716D06C51030805E16D53D2
:1043100003E1070E6F170ED06C51020805E16D53D3
:1043200003E1030E6F1706D06C2D04D06D5302E12C
:10433000010E6F1764C066F0010E0001676F6EC654
:1043400068F06FC669F00E01786B660E776F040E29
:10435000796F0001FBEC19F067C66AF066C66BF076
:104360008A8693960400040E0E01766F000131ECEC
:1043700003F00400665126EC1AF0675126EC1AF09F
:10438000685126EC1AF0695126EC1AF06A5126ECB5
:104390001AF06B5126EC1AF00400030E0E01766F32
:1043A000000131EC03F004008A9693963BD106019C
:1043B0006E510208D8A4E0D046C06FF66A51016E73
:1043C00004E0D8906F33012EFCD74AC070F6070E78
:1043D0006C5D0E01766F000E06016D590E01776F50
:1043E0007651080803E1775301E183D0070E0601F7
:1043F0006C5D0E01766F000E06016D590E01776F30
:104400007651070805E1775303E10601709F70D0EC
:10441000070E06016C5D0E01766F000E06016D59E8
:104420000E01776F7651060806E1775304E13F0EDF
:10443000060170175DD0070E06016C5D0E01766FE8
:10444000000E06016D590E01776F7651050806E1E1
:10445000775304E11F0E060170174AD0070E0601BC
:104460006C5D0E01766F000E06016D590E01776FBF
:104470007651040806E1775304E10F0E0601701728
:1044800037D0070E06016C5D0E01766F000E060137
:104490006D590E01776F7651030806E1775304E1F9
:1044A000070E0601701724D0070E06016C5D0E0181
:1044B000766F000E06016D590E01776F7651020876
:1044C00006E1775304E1030E0601701711D0070EC1
:1044D00006016C5D0E01766F000E06016D590E012E
:1044E000776F762D06D0775304E1010E0601701721
:1044F0000E0164C066F0010E0001676F6EC668F0C1
:104500006FC669F070C66AF00E01786B660E776F41
:10451000050E796F0001FBEC19F067C66BF066C6FB
:104520006CF08A8693960400040E0E01766F0001EB
:1045300031EC03F00400665126EC1AF0675126ECCA
:104540001AF0685126EC1AF0695126EC1AF06A51FB
:1045500026EC1AF06B5126EC1AF06C5126EC1AF08E
:104560000400030E0E01766F000131EC03F004002D
:104570008A96939657D006016E51030854E146C0BF
:104580006FF66A51016E04E0D8906F33012EFCD7AC
:104590004AC070F64BC071F664C066F0010E0001AF
:1045A000676F6EC668F06FC669F070C66AF071C654
:1045B0006BF00E01786B660E776F060E796F000157
:1045C000FBEC19F067C66CF066C66DF08A869396B0
:1045D0000400040E0E01766F000131EC03F00400BC
:1045E000665126EC1AF0675126EC1AF0685126EC59
:1045F0001AF0695126EC1AF06A5126EC1AF06B5148
:1046000026EC1AF06C5126EC1AF06D5126EC1AF0DB
:104610000400030E0E01766F000131EC03F004007C
:104620008A969396060138D064C066F0810E000128
:10463000676F020E686F0E01786B660E776F030E60
:10464000796F0001FBEC19F067C669F066C66AF085
:104650008A8693960400040E0E01766F000131ECF9
:1046600003F00400665126EC1AF0675126EC1AF0AC
:10467000685126EC1AF0695126EC1AF06A5126ECC2
:104680001AF00400030E0E01766F000131EC03F006
:1046900004008A9693960601020167510708D8A480
:1046A000B1D000012AEF1AF09D9220C06FF621C010
:1046B00070F622C071F623C072F624C073F625C0CE
:1046C00074F626C075F627C076F628C077F629C09E
:1046D00078F62AC079F62BC07AF62CC07BF62DC06E
:1046E0007CF62EC07DF62FC07EF664C066F0070E05
:1046F000676F100E06016E6F6EC668F06FC669F0C8
:1047000070C66AF071C66BF072C66CF073C66DF05D
:1047100074C66EF075C66FF076C670F077C671F02D
:1047200078C672F079C673F07AC674F07BC675F0FD
:104730007CC676F07DC677F07EC678F00E01786B89
:10474000660E776F130E796F0001FBEC19F067C6E8
:1047500079F066C67AF08A8693960400040E0E01FC
:10476000766F000131EC03F00400665126EC1AF07C
:10477000675126EC1AF0685126EC1AF0695126ECC4
:104780001AF06A5126EC1AF06B5126EC1AF06C51B3
:1047900026EC1AF06D5126EC1AF06E5126EC1AF048
:1047A0006F5126EC1AF0705126EC1AF0715126EC7C
:1047B0001AF0725126EC1AF0735126EC1AF074516B
:1047C00026EC1AF0755126EC1AF0765126EC1AF008
:1047D000775126EC1AF0785126EC1AF0795126EC34
:1047E0001AF07A5126EC1AF00400030E0E01766FCF
:1047F000000131EC03F004008A9693969D82DFEF6E
:1048000035F0020167510508D8A476D206016B6B1A
:1048100068C26AF66AC66BF60E01766B76510201C3
:10482000691106016A6F06016D6B6AC26CF66CC68F
:104830006DF60E01766B765102016B1106016C6FFD
:1048400006016A534FE16B534DE16C534AE16D3DF4
:1048500048D01C8464C066F0050E0001676F68C212
:1048600068F069C269F06AC26AF06BC26BF00E014F
:10487000786B660E776F060E796F0001FBEC19F00E
:1048800067C66CF066C66DF08A8693960400040EC7
:104890000E01766F000131EC03F00400665126EC46
:1048A0001AF0675126EC1AF0685126EC1AF069519B
:1048B00026EC1AF06A5126EC1AF06B5126EC1AF02D
:1048C0006C5126EC1AF06D5126EC1AF00400030E20
:1048D0000E01766F000131EC03F004008A96939686
:1048E000060107D26A2D4FD06B534DE16C534AE15C
:1048F0006D3D48D01C8664C066F0050E0001676FF0
:1049000068C268F069C269F06AC26AF06BC26BF093
:104910000E01786B660E776F060E796F0001FBEC67
:1049200019F067C66CF066C66DF08A86939604002F
:10493000040E0E01766F000131EC03F004006651A5
:1049400026EC1AF0675126EC1AF0685126EC1AF0A2
:10495000695126EC1AF06A5126EC1AF06B5126ECDC
:104960001AF06C5126EC1AF06D5126EC1AF0040086
:10497000030E0E01766F000131EC03F004008A96FD
:1049800093960601B6D16A510208D8A4A5D06B53FC
:10499000D8A4A2D06C534BE16D3D49D01C8864C0B3
:1049A00066F0050E0001676F68C268F069C269F0C1
:1049B0006AC26AF06BC26BF00E01786B660E776F9D
:1049C000060E796F0001FBEC19F067C66CF066C645
:1049D0006DF08A8693960400040E0E01766F000136
:1049E00031EC03F00400665126EC1AF0675126EC16
:1049F0001AF0685126EC1AF0695126EC1AF06A5147
:104A000026EC1AF06B5126EC1AF06C5126EC1AF0D9
:104A10006D5126EC1AF00400030E0E01766F0001B2
:104A200031EC03F004008A96939654D006016C533F
:104A300052E16D5350E11C9800016BEC11F01C84A5
:104A400087EC1CF01C8665EC1DF064C066F0050E5A
:104A5000676F68C268F069C269F06AC26AF06BC2C7
:104A60006BF00E01786B660E776F060E796F0001A2
:104A7000FBEC19F067C66CF066C66DF08A869396FB
:104A80000400040E0E01766F000131EC03F0040007
:104A9000665126EC1AF0675126EC1AF0685126ECA4
:104AA0001AF0695126EC1AF06A5126EC1AF06B5193
:104AB00026EC1AF06C5126EC1AF06D5126EC1AF027
:104AC0000400030E0E01766F000131EC03F00400C8
:104AD0008A96939606010DD16A510308D8A4A5D0F1
:104AE0006B53D8A4A2D06C534BE16D3D49D01C8AC6
:104AF00064C066F0050E0001676F68C268F069C2A5
:104B000069F06AC26AF06BC26BF00E01786B660ED8
:104B1000776F060E796F0001FBEC19F067C66CF039
:104B200066C66DF08A8693960400080E0E01766FB5
:104B3000000131EC03F00400665126EC1AF06751D5
:104B400026EC1AF0685126EC1AF0695126EC1AF09E
:104B50006A5126EC1AF06B5126EC1AF06C5126ECD7
:104B60001AF06D5126EC1AF00400080E0E01766F53
:104B7000000131EC03F004008A96939654D00601AC
:104B80006C5352E16D5350E11C9A00016BEC11F033
:104B90001C8487EC1CF01C8665EC1DF064C066F07C
:104BA000050E676F68C268F069C269F06AC26AF090
:104BB0006BC26BF00E01786B660E776F060E796F25
:104BC0000001FBEC19F067C66CF066C66DF08A86D2
:104BD00093960400040E0E01766F000131EC03F091
:104BE0000400665126EC1AF0675126EC1AF0685161
:104BF00026EC1AF0695126EC1AF06A5126EC1AF0EC
:104C00006B5126EC1AF06C5126EC1AF06D5126EC23
:104C10001AF00400030E0E01766F000131EC03F070
:104C200004008A969396060164D06A51640861E193
:104C30006B535FE16CC664F0F250006EF29EAA6A9C
:104C40001D0EA96E64C0A8FFA69CA69EA6840F0197
:104C5000550EA76EAA0EA76EA682A6B2FED7A69480
:104C60000050F21264C066F0050E0001676F68C262
:104C700068F069C269F06AC26AF06BC26BF00E013B
:104C8000786B660E776F060E796F0001FBEC19F0FA
:104C900067C66CF066C66DF08A8693960400040EB3
:104CA0000E01766F000131EC03F00400665126EC32
:104CB0001AF0675126EC1AF0685126EC1AF0695187
:104CC00026EC1AF06A5126EC1AF06B5126EC1AF019
:104CD0006C5126EC1AF06D5126EC1AF00400030E0C
:104CE0000E01766F000131EC03F004008A96939672
:104CF0000601E0EF35F0020167512108D8A433EF37
:104D00002BF0F250006EF29EAA6AA96A0F0EA86EEE
:104D1000A69CA69EA6840F01550EA76EAA0EA76E8E
:104D2000A682A6B2FED7A6940050F212F2CF00F0EF
:104D3000F29EAA6A010EA96E69C2A8FFA69CA69E51
:104D4000A684550EA76EAA0EA76EA682A6B2FED79F
:104D5000A6940050F212F2CF00F0F29EAA6A020E60
:104D6000A96E6AC2A8FFA69CA69EA684550EA76E31
:104D7000AA0EA76EA682A6B2FED7A6940050F21283
:104D8000F2CF00F0F29EAA6A030EA96E6BC2A8FFD2
:104D9000A69CA69EA684550EA76EAA0EA76EA682F6
:104DA000A6B2FED7A6940050F212F2CF00F0F29E07
:104DB000AA6A040EA96E6CC2A8FFA69CA69EA68431
:104DC000550EA76EAA0EA76EA682A6B2FED7A6940F
:104DD0000050F212F2CF00F0F29EAA6A050EA96E00
:104DE0006DC2A8FFA69CA69EA684550EA76EAA0E0D
:104DF000A76EA682A6B2FED7A6940050F212F2CFFA
:104E000000F0F29EAA6A060EA96E6EC2A8FFA69CCA
:104E1000A69EA684550EA76EAA0EA76EA682A6B25F
:104E2000FED7A6940050F212F2CF00F0F29EAA6ACA
:104E3000070EA96E6FC2A8FFA69CA69EA684550E5B
:104E4000A76EAA0EA76EA682A6B2FED7A6940050A1
:104E5000F212F2CF00F0F29EAA6A080EA96E70C29A
:104E6000A8FFA69CA69EA684550EA76EAA0EA76EA6
:104E7000A682A6B2FED7A6940050F212F2CF00F09E
:104E8000F29EAA6A090EA96E71C2A8FFA69CA69EF0
:104E9000A684550EA76EAA0EA76EA682A6B2FED74E
:104EA000A6940050F212F2CF00F0F29EAA6A0A0E07
:104EB000A96E72C2A8FFA69CA69EA684550EA76ED8
:104EC000AA0EA76EA682A6B2FED7A6940050F21232
:104ED000F2CF00F0F29EAA6A0B0EA96E73C2A8FF71
:104EE000A69CA69EA684550EA76EAA0EA76EA682A5
:104EF000A6B2FED7A6940050F212F2CF00F0F29EB6
:104F0000AA6A0C0EA96E74C2A8FFA69CA69EA684CF
:104F1000550EA76EAA0EA76EA682A6B2FED7A694BD
:104F20000050F212F2CF00F0F29EAA6A0D0EA96EA6
:104F300075C2A8FFA69CA69EA684550EA76EAA0EB3
:104F4000A76EA682A6B2FED7A6940050F212F2CFA8
:104F500000F0F29EAA6A0E0EA96E76C2A8FFA69C69
:104F6000A69EA684550EA76EAA0EA76EA682A6B20E
:104F7000FED7A6940050F212F2CF00F0F29EAA6A79
:104F80000F0EA96E77C2A8FFA69CA69EA684550EFA
:104F9000A76EAA0EA76EA682A6B2FED7A694005050
:104FA000F212F2CF00F0F29EAA6A100EA96E78C239
:104FB000A8FFA69CA69EA684550EA76EAA0EA76E55
:104FC000A682A6B2FED7A6940050F212F2CF00F04D
:104FD000F29EAA6A110EA96E79C2A8FFA69CA69E8F
:104FE000A684550EA76EAA0EA76EA682A6B2FED7FD
:104FF000A6940050F212F2CF00F0F29EAA6A120EAE
:10500000A96E7AC2A8FFA69CA69EA684550EA76E7E
:10501000AA0EA76EA682A6B2FED7A6940050F212E0
:10502000F2CF00F0F29EAA6A130EA96E7BC2A8FF0F
:10503000A69CA69EA684550EA76EAA0EA76EA68253
:10504000A6B2FED7A6940050F212F2CF00F0F29E64
:10505000AA6A140EA96E7CC2A8FFA69CA69EA6846E
:10506000550EA76EAA0EA76EA682A6B2FED7A6946C
:105070000050F212F2CF00F0F29EAA6A150EA96E4D
:105080007DC2A8FFA69CA69EA684550EA76EAA0E5A
:10509000A76EA682A6B2FED7A6940050F212F2CF57
:1050A00000F0F29EAA6A160EA96E7EC2A8FFA69C08
:1050B000A69EA684550EA76EAA0EA76EA682A6B2BD
:1050C000FED7A6940050F212F2CF00F0F29EAA6A28
:1050D000170EA96E7FC2A8FFA69CA69EA684550E99
:1050E000A76EAA0EA76EA682A6B2FED7A6940050FF
:1050F000F212F2CF00F0F29EAA6A180EA96E80C2D8
:10510000A8FFA69CA69EA684550EA76EAA0EA76E03
:10511000A682A6B2FED7A6940050F212F2CF00F0FB
:10512000F29EAA6A190EA96E81C2A8FFA69CA69E2D
:10513000A684550EA76EAA0EA76EA682A6B2FED7AB
:10514000A6940050F212F2CF00F0F29EAA6A1A0E54
:10515000A96E82C2A8FFA69CA69EA684550EA76E25
:10516000AA0EA76EA682A6B2FED7A6940050F2128F
:10517000F2CF00F0F29EAA6A1B0EA96E83C2A8FFAE
:10518000A69CA69EA684550EA76EAA0EA76EA68202
:10519000A6B2FED7A6940050F212F2CF00F0F29E13
:1051A000AA6A1C0EA96E84C2A8FFA69CA69EA6840D
:1051B000550EA76EAA0EA76EA682A6B2FED7A6941B
:1051C0000050F212F2CF00F0F29EAA6A1D0EA96EF4
:1051D00085C2A8FFA69CA69EA684550EA76EAA0E01
:1051E000A76EA682A6B2FED7A6940050F212F2CF06
:1051F00000F0F29EAA6A1E0EA96E86C2A8FFA69CA7
:10520000A69EA684550EA76EAA0EA76EA682A6B26B
:10521000FED7A6940050F212F2CF00F0F29EAA6AD6
:105220001F0EA96E87C2A8FFA69CA69EA684550E37
:10523000A76EAA0EA76EA682A6B2FED7A6940050AD
:10524000F212F2CF00F0F29EAA6A200EA96E88C276
:10525000A8FFA69CA69EA684550EA76EAA0EA76EB2
:10526000A682A6B2FED7A6940050F212F2CF00F0AA
:10527000F29EAA6A210EA96E89C2A8FFA69CA69ECC
:10528000A684550EA76EAA0EA76EA682A6B2FED75A
:10529000A6940050F212F2CF00F0F29EAA6A220EFB
:1052A000A96E8AC2A8FFA69CA69EA684550EA76ECC
:1052B000AA0EA76EA682A6B2FED7A6940050F2123E
:1052C000F2CF00F0F29EAA6A230EA96E8BC2A8FF4D
:1052D000A69CA69EA684550EA76EAA0EA76EA682B1
:1052E000A6B2FED7A6940050F212F2CF00F0F29EC2
:1052F000AA6A240EA96E8CC2A8FFA69CA69EA684AC
:10530000550EA76EAA0EA76EA682A6B2FED7A694C9
:105310000050F212F2CF00F0F29EAA6A250EA96E9A
:105320008DC2A8FFA69CA69EA684550EA76EAA0EA7
:10533000A76EA682A6B2FED7A6940050F212F2CFB4
:1053400000F0F29EAA6A260EA96E8EC2A8FFA69C45
:10535000A69EA684550EA76EAA0EA76EA682A6B21A
:10536000FED7A6940050F212F2CF00F0F29EAA6A85
:10537000270EA96E8FC2A8FFA69CA69EA684550ED6
:10538000A76EAA0EA76EA682A6B2FED7A69400505C
:10539000F212F2CF00F0F29EAA6A280EA96E90C215
:1053A000A8FFA69CA69EA684550EA76EAA0EA76E61
:1053B000A682A6B2FED7A6940050F212F2CF00F059
:1053C000F29EAA6A290EA96E91C2A8FFA69CA69E6B
:1053D000A684550EA76EAA0EA76EA682A6B2FED709
:1053E000A6940050F212F2CF00F0F29EAA6A2A0EA2
:1053F000A96E92C2A8FFA69CA69EA684550EA76E73
:10540000AA0EA76EA682A6B2FED7A6940050F212EC
:10541000F2CF00F0F29EAA6A2B0EA96E93C2A8FFEB
:10542000A69CA69EA684550EA76EAA0EA76EA6825F
:10543000A6B2FED7A6940050F212F2CF00F0F29E70
:10544000AA6A2C0EA96E94C2A8FFA69CA69EA6844A
:10545000550EA76EAA0EA76EA682A6B2FED7A69478
:105460000050F212F2CF00F0F29EAA6A2D0EA96E41
:1054700095C2A8FFA69CA69EA684550EA76EAA0E4E
:10548000A76EA682A6B2FED7A6940050F212F2CF63
:1054900000F0F29EAA6A2E0EA96E96C2A8FFA69CE4
:1054A000A69EA684550EA76EAA0EA76EA682A6B2C9
:1054B000FED7A6940050F212F2CF00F0F29EAA6A34
:1054C0002F0EA96E97C2A8FFA69CA69EA684550E75
:1054D000A76EAA0EA76EA682A6B2FED7A69400500B
:1054E000F212F2CF00F0F29EAA6A300EA96E98C2B4
:1054F000A8FFA69CA69EA684550EA76EAA0EA76E10
:10550000A682A6B2FED7A6940050F212F2CF00F007
:10551000F29EAA6A310EA96E99C2A8FFA69CA69E09
:10552000A684550EA76EAA0EA76EA682A6B2FED7B7
:10553000A6940050F2120E016E6B6D6B04009A0E71
:105540006D25E96E020E6E21EA6EEFCF6FFE6F5190
:105550000D0805E06E5303E16D510F0827E2740E4C
:105560006D25E96E0A0E6E21EA6EEF6A320E6D2528
:10557000766F000E6E21776FF250006EF29E77CE3E
:10558000AAFF76CEA9FF6FCEA8FFA69CA69EA684F2
:105590000F01550EA76EAA0EA76EA682A6B2FED761
:1055A000A6940050F2122DD026D00E01740E6D2557
:1055B000E96E0A0E6E21EA6E6FCEEFFF320E6D2598
:1055C000766F000E6E21776FF250006EF29E77CEEE
:1055D000AAFF76CEA9FF6FCEA8FFA69CA69EA684A2
:1055E0000F01550EA76EAA0EA76EA682A6B2FED711
:1055F000A6940050F2120E016D2BD8B46E2B9ED7DC
:105600000F0164C066F0210E0001676F0E01786B18
:10561000660E776F020E796F0001FBEC19F067C61A
:1056200068F066C669F08A8693960A0E0E01766F58
:10563000000131EC03F0665126EC1AF0675126ECBC
:105640001AF0685126EC1AF0695126EC1AF0030E94
:105650000E01766F000131EC03F08A969396FF00FD
:10566000DFEF35F0020167512208D8A4DFEF35F0F3
:105670000E01716B040E706F736B726B756B746BD4
:105680000400660E7025E96E020E7121EA6EEF507D
:105690000D0805E0735303E172511E0820E25D0E10
:1056A0007025766F000E7121776FF250006EF29EBA
:1056B00077CEAAFF76CEA9FF0D0EA86EA69CA69E59
:1056C000A6840F01550EA76EAA0EA76EA682A6B2DB
:1056D000FED7A6940050F21247D03AD00E01830EA6
:1056E0007225016E0A0E7321036E660E7025E96E37
:1056F000020E7121EA6EEFCF78FE03C0EAFF01C00F
:10570000E9FF78CEEFFF5D0E7025766F000E7121F8
:10571000776F660E7025E96E020E7121EA6EEFCF8B
:1057200078FEF250006EF29E77CEAAFF76CEA9FFE9
:1057300078CEA8FFA69CA69EA6840F01550EA76E44
:10574000AA0EA76EA682A6B2FED7A6940050F212A9
:105750000E0171CE03F07051702BD8B4712B722BE7
:10576000D8B4732B8DD70F01830E0E017225E96E0D
:105770000A0E7321EA6EEF6A736B726B702BD8B4EA
:10578000712B0400660E7025E96E020E7121EA6E1F
:10579000EF500D0805E0735303E172511E0820E23B
:1057A0005D0E7025766F000E7121776FF250006EDE
:1057B000F29E77CEAAFF76CEA9FF0D0EA86EA69C0C
:1057C000A69EA6840F01550EA76EAA0EA76EA682EE
:1057D000A6B2FED7A6940050F21247D03AD00E01DE
:1057E000A30E7225016E0A0E7321036E660E7025DC
:1057F000E96E020E7121EA6EEFCF78FE03C0EAFF78
:1058000001C0E9FF78CEEFFF5D0E7025766F000EC8
:105810007121776F660E7025E96E020E7121EA6EB6
:10582000EFCF78FEF250006EF29E77CEAAFF76CED2
:10583000A9FF78CEA8FFA69CA69EA6840F01550EB0
:10584000A76EAA0EA76EA682A6B2FED7A694005097
:10585000F2120E0171CE03F07051702BD8B4712B7F
:10586000722BD8B4732B8DD70F01A30E0E017225A6
:10587000E96E0A0E7321EA6EEF6A736B726B702B1E
:10588000D8B4712B0400660E7025E96E020E7121EA
:10589000EA6EEF500D0805E0735303E172511E08E4
:1058A00020E25D0E7025766F000E7121776FF25049
:1058B000006EF29E77CEAAFF76CEA9FF0D0EA86EDF
:1058C000A69CA69EA6840F01550EA76EAA0EA76ED3
:1058D000A682A6B2FED7A6940050F21247D03AD0C4
:1058E0000E01C30E7225016E0A0E7321036E660E41
:1058F0007025E96E020E7121EA6EEFCF78FE03C0CB
:10590000EAFF01C0E9FF78CEEFFF5D0E7025766FEC
:10591000000E7121776F660E7025E96E020E7121FF
:10592000EA6EEFCF78FEF250006EF29E77CEAAFFBD
:1059300076CEA9FF78CEA8FFA69CA69EA6840F01CE
:10594000550EA76EAA0EA76EA682A6B2FED7A69483
:105950000050F2120E0171CE03F07051702BD8B4CA
:10596000712B722BD8B4732B8DD70F01C30E0E0180
:105970007225E96E0A0E7321EA6EEF6A736B726B21
:10598000702BD8B4712B0400660E7025E96E020EE0
:105990007121EA6EEF500D0805E0735303E1725177
:1059A0001E0820E25D0E7025766F000E7121776F64
:1059B000F250006EF29E77CEAAFF76CEA9FF0D0EB2
:1059C000A86EA69CA69EA6840F01550EA76EAA0ED1
:1059D000A76EA682A6B2FED7A6940050F21247D0B8
:1059E0003AD00E01E30E7225016E0A0E7321036E8A
:1059F000660E7025E96E020E7121EA6EEFCF78FE19
:105A000003C0EAFF01C0E9FF78CEEFFF5D0E70250D
:105A1000766F000E7121776F660E7025E96E020EAB
:105A20007121EA6EEFCF78FEF250006EF29E77CED3
:105A3000AAFF76CEA9FF78CEA8FFA69CA69EA68434
:105A40000F01550EA76EAA0EA76EA682A6B2FED7AC
:105A5000A6940050F2120E0171CE03F07051702B1B
:105A6000D8B4712B722BD8B4732B8DD70F01E30EE2
:105A70000E017225E96E0A0E7321EA6EEF6A736BEE
:105A8000726B702BD8B4712B0400660E7025E96E12
:105A9000020E7121EA6EEF500D0805E0735303E129
:105AA00072511E0820E25D0E7025766F000E712186
:105AB000776FF250006EF29E77CEAAFF76CEA9FFE6
:105AC0000D0EA86EA69CA69EA6840F01550EA76E6D
:105AD000AA0EA76EA682A6B2FED7A6940050F21216
