:0400000003EF3AF0E0
:08000800046ED8CF05F0E0CF33
:1000100006F00001E9CF0CF0EACF07F0E1CF08F0DD
:10002000E2CF09F0D9CF0AF0DACF0BF0F3CF12F01C
:10003000F4CF13F0FACF14F0F5CF15F0F6CF16F099
:10004000F7CF17F000C00EF001C00FF002C010F0A3
:1000500003C011F09DA230EF00F09EB28FEF02F0CE
:100060009DAA36EF00F09EBA86EF02F00EC000F0B7
:100070000FC001F010C002F011C003F00CC0E9FF86
:1000800007C0EAFF078E08C0E1FF09C0E2FF0AC00F
:10009000D9FF0BC0DAFF12C0F3FF13C0F4FF14C086
:1000A000FAFF15C0F5FF16C0F6FF17C0F7FF0450A2
:1000B00006C0E0FF05C0D8FF1000F76ACA0FF66E51
:1000C000000EF7220900F550120000C1814001C066
:1000D000804101C0804100C1814001C0804100C118
:1000E000814000C1814001C0804101C0804100C108
:1000F000814000C1814001C0804100C1814001C0F8
:10010000804101C0804100C1814001C0804100C1E7
:10011000814000C1814001C0804100C1814001C0D7
:10012000804101C0804100C1814000C1814001C0C7
:10013000804101C0804100C1814001C0804100C1B7
:10014000814000C1814001C0804101C0804100C1A7
:10015000814000C1814001C0804100C1814001C097
:10016000804101C0804100C1814000C1814001C087
:10017000804101C0804100C1814001C0804100C177
:10018000814000C1814001C0804100C1814001C067
:10019000804101C0804100C1814001C0804100C157
:1001A000814000C1814001C0804101C0804100C147
:1001B000814000C1814001C0804100C1814001C037
:1001C000804101C0804100C18140F76ADA0FF66EBC
:1001D000010EF7220900F550120000C0C101C3034F
:1001E00002C2C60607C705C5C404CC0C0DCD0FCF8F
:1001F000CE0E0ACACB0BC90908C8D81819D91BDBFF
:10020000DA1A1EDEDF1FDD1D1CDC14D4D515D7174E
:1002100016D6D21213D311D1D010F03031F133F3FE
:10022000F23236F6F737F53534F43CFCFD3DFF3F4E
:100230003EFEFA3A3BFB39F9F83828E8E929EB2B7E
:100240002AEAEE2E2FEF2DEDEC2CE42425E527E70E
:10025000E62622E2E323E12120E0A06061A163A37E
:10026000A26266A6A767A56564A46CACAD6DAF6F0E
:100270006EAEAA6A6BAB69A9A86878B8B979BB7B7E
:100280007ABABE7E7FBF7DBDBC7CB47475B577B7CE
:10029000B67672B2B373B17170B0509091519353FE
:1002A000529296565797559594549C5C5D9D5F9FCE
:1002B0009E5E5A9A9B5B99595898884849894B8BFE
:1002C0008A4A4E8E8F4F8D4D4C8C4484854587478E
:1002D00046868242438341818040040066506E5CC2
:1002E00013E1706A036A7050AD0FE96E000E0320CF
:1002F000EA6E2EC0EFFF0400702A100E6E6E140E10
:100300000101126F00D100016E5010084AE1036A2A
:100310007050AD0FE96E000E0320EA6E2EC0EFFFA5
:100320000400702A010E705C036AAD0FE96E000EC6
:100330000320EA6EEF50160807E367C06EF0140E54
:100340000101126F2CD00001010E705C036AAD0F29
:10035000E96E000E0320EA6EEF50200807E16AC044
:100360006EF0140E0101126F1AD00001010E705CC4
:10037000036AAD0FE96E000E0320EA6EEF5021080C
:1003800007E16CC06EF0140E0101126F08D000017D
:10039000706A66C06EF00101126B8A969396B3D0B4
:1003A00000016C506E5C1CE1036A7050AD0FE96E89
:1003B000000E0320EA6E2EC0EFFF0400702A010E2B
:1003C000705C036AAD0FE96E000E0320EA6EEFCF9A
:1003D00013F1140E0101126F6DC06EF094D0000184
:1003E0006D506E5C15E1036A7050AD0FE96E000E42
:1003F0000320EA6E2EC0EFFF0400702A01011307EC
:10040000135302E16AC06EF0140E126F7CD000012B
:1004100067506E5C12E1036A7050AD0FE96E000E1A
:100420000320EA6E2EC0EFFF0400702A68C06EF051
:10043000140E0101126F67D0000168506E5C12E16A
:10044000036A7050AD0FE96E000E0320EA6E2EC0F5
:10045000EFFF0400702A69C06EF0140E0101126FE4
:1004600052D0000169506E5C12E1036A7050AD0F0A
:10047000E96E000E0320EA6E2EC0EFFF0400702A22
:10048000150E6E6E140E0101126F3DD000016E50FC
:10049000150812E1036A7050AD0FE96E000E0320DB
:1004A000EA6E2EC0EFFF0400702A6AC06EF0140ED0
:1004B0000101126F28D000016A506E5C12E1036ADC
:1004C0007050AD0FE96E000E0320EA6E2EC0EFFFF4
:1004D0000400702A6BC06EF0140E0101126F13D06D
:1004E00000016B506E5C0FE1036A7050AD0FE96E56
:1004F000000E0320EA6E2EC0EFFF040066C06EF00F
:100500000101126B308A00018CEF02F004009EAAF8
:10051000FDD7AECF2EF0E1D69E9A36EF00F0192A25
:100520000101125307E01207125304E166C06EF096
:100530008A9693961C5213E01C061C5210E11D5221
:1005400004E01D061D5201E11A84652A6550010868
:1005500003E23088020E656E3086640E1C6E195000
:10056000280814E1196A1AB004D01A808A8A939A6A
:1005700003D01A908A9A939A1AAC07D02F5201E0AE
:100580002F062F5201E11A8A01D02F6A1B5213E065
:100590001B061B520AE1146930B205D01AA202D020
:1005A0001A9201D01A8262C01BF0315204E0310667
:1005B000315201E130929E92000136EF00F0010EBF
:1005C000EA6EEF0EE96EEF5011E0060E016EBF0EFF
:1005D000006E0400002EFDD7012EF9D77A0E006EB2
:1005E000002EFED700D00400EF2EEFD71200929A13
:1005F000899A0101F1514009F46FC950F4C1C9FF52
:10060000C730FEE3C950F2C1C9FFC730FEE3C9508D
:10061000F3C1C9FFC730FEE3929A898A0001120034
:10062000929A898A929A0101F16B0A0EF26FAA0ED0
:10063000F36F0001DCDF020E0101F16F0A0EF26FB1
:10064000AA0EF36F0001D3DF040E0101F16F0A0E51
:10065000F26FAA0EF36F0001CADF060E0101F16FFF
:100660000A0EF26FAA0EF36F0001C1DF080E01013E
:10067000F16F0A0EF26FAA0EF36F0001B8DF0A0ED7
:100680000101F16FF26FAA0EF36F0001B0DF0C0EE3
:100690000101F16F0A0EF26FAA0EF36F0001A7DFDE
:1006A0000E0E0101F16F0A0EF26FAA0EF36F000138
:1006B0009EDF73EF3AF0E7C1F1F10101F26BE8C19F
:1006C000F3F1000194DF1200E7C1F1F1100E010116
:1006D000F26FE8C1F3F100018ADF1200F2CFE7F117
:1006E000F29E010EA96EA69CA69EA680A8500101AE
:1006F000E7BFF28E396E39C03AF01D9139B01D81D5
:10070000D89039301D93E8B01D833930006E003227
:100710003F0E00161D9500B01D853930006E003269
:1007200000321F0E00161D9700B01D873938006E6D
:100730000F0E00161D9900B01D893938006E003269
:10074000070E00161D9B00B01D8B3938006E00325D
:100750000032030E00161D9D00B01D8D006A39BECB
:1007600000801D9F00B01D8FF2CFE7F1F29E020EB8
:10077000A96EA69CA69EA680A850E7BFF28E396EF1
:1007800039C03BF01E9139B01E81D89039301E938C
:10079000E8B01E833930006E00323F0E00161E9501
:1007A00000B01E853930006E003200321F0E001678
:1007B0001E9700B01E873938006E0F0E00161E9966
:1007C00000B01E893938006E0032070E00161E9BDD
:1007D00000B01E8B3938006E00320032030E001656
:1007E0001E9D00B01E8D006A39BE00801E9F00B0A5
:1007F0001E8FF2CFE7F1F29E030EA96EA69CA69E75
:10080000A680A850E7BFF28E396E39C03CF01F9128
:1008100039B01F81D89039301F93E8B01F83393029
:10082000006E00323F0E00161F9500B01F85393054
:10083000006E003200321F0E00161F9700B01F8797
:100840003938006E0F0E00161F9900B01F89393815
:10085000006E0032070E00161F9B00B01F8B393848
:10086000006E00320032030E00161F9D00B01F8D77
:10087000006A39BE00801F9F00B01F8FCD931DB14D
:10088000CD83CD951DB3CD85CD971DB5CD87CD99A4
:100890001DB7CD89CD9B1DB9CD8BCD9D1DBBCD8DFC
:1008A000CD9F1DBDCD8FCE911DBFCE81CE931EB1EC
:1008B000CE83CE951EB3CE85CE971EB5CE87CE996C
:1008C0001EB7CE89CE9B1EB9CE8BCE9D1EBBCE8DC4
:1008D000CE9F1EBDCE8FCF911EBFCF81CF931FB1B4
:1008E000CF83CF951FB3CF85CF971FB5CF87CF9934
:1008F0001FB7CF89F2CFE7F1F29E040EA96EA69C36
:10090000A69EA680A850E7BFF28E396E39C03DF092
:10091000219139B02181D89039302193E8B02183D9
:100920003930006E00323F0E0016219500B021854F
:100930003930006E003200321F0E0016219700B0D1
:1009400021873938006E0F0E0016219900B02189D9
:100950003938006E0032070E0016219B00B0218B43
:100960003938006E00320032030E0016219D00B0AF
:10097000218D006A39BE0080219F00B0218FF2CF07
:10098000E7F1F29E050EA96EA69CA69EA680A85031
:10099000E7BFF28E396E39C03EF0229139B0228124
:1009A000D89039302293E8B022833930006E00327B
:1009B0003F0E0016229500B022853930006E0032BD
:1009C00000321F0E0016229700B022873938006EC1
:1009D0000F0E0016229900B022893938006E0032BD
:1009E000070E0016229B00B0228B3938006E0032B1
:1009F0000032030E0016229D00B0228D006A39BE1F
:100A00000080229F00B0228FF2CFE7F1F29E060E07
:100A1000A96EA69CA69EA680A850E7BFF28E396E4E
:100A200039C03FF0239139B02381D89039302393D6
:100A3000E8B023833930006E00323F0E0016239554
:100A400000B023853930006E003200321F0E0016D0
:100A5000239700B023873938006E0F0E00162399B4
:100A600000B023893938006E0032070E0016239B30
:100A700000B0238B3938006E00320032030E0016AE
:100A8000239D00B0238D006A39BE0080239F00B0F3
:100A9000238FF2CFE7F1F29E070EA96EA69CA69EC9
:100AA000A680A850E7BFF28E396E39C040F025917C
:100AB00039B02581D89039302593E8B02583393075
:100AC000006E00323F0E0016259500B025853930A6
:100AD000006E003200321F0E0016259700B02587E9
:100AE0003938006E0F0E0016259900B02589393867
:100AF000006E0032070E0016259B00B0258B39389A
:100B0000006E00320032030E0016259D00B0258DC8
:100B1000006A39BE0080259F00B0258FF2CFE7F133
:100B2000F29E080EA96EA69CA69EA680A850E7BFBE
:100B3000F28E396E39C041F0269139B02681D890B5
:100B400039302693E8B026833930006E00323F0EEC
:100B50000016269500B026853930006E003200322E
:100B60001F0E0016269700B026873938006E0F0E2C
:100B70000016269900B026893938006E0032070E1B
:100B80000016269B00B0268B3938006E00320032EA
:100B9000030E0016269D00B0268D006A39BE008027
:100BA000269F00B0268FF2CFE7F1F29E090EA96EC4
:100BB000A69CA69EA680A850E7BFF28E396E39C0CB
:100BC00042F0279139B02781D89039302793E8B087
:100BD00027833930006E00323F0E0016279500B093
:100BE00027853930006E003200321F0E001627971D
:100BF00000B027873938006E0F0E0016279900B015
:100C000027893938006E0032070E0016279B00B086
:100C1000278B3938006E00320032030E0016279DF4
:100C200000B0278D006A39BE0080279F00B0278F53
:100C3000F2CFE7F1F29E0A0EA96EA69CA69EA680B0
:100C4000A850E7BFF28E396E39C043F0299139B010
:100C50002981D89039302993E8B029833930006E42
:100C600000323F0E0016299500B029853930006EFC
:100C7000003200321F0E0016299700B0298739383C
:100C8000006E0F0E0016299900B029893938006EC0
:100C90000032070E0016299B00B0298B3938006EF0
:100CA00000320032030E0016299D00B0298D006A23
:100CB00039BE0080299F00B0298FF2CFE7F1F29E64
:100CC0000B0EA96EA69CA69EA680A850E7BFF28E2A
:100CD000396E39C044F02A9139B02A81D890393020
:100CE0002A93E8B02A833930006E00323F0E001696
:100CF0002A9500B02A853930006E003200321F0E6E
:100D000000162A9700B02A873938006E0F0E001699
:100D10002A9900B02A893938006E0032070E001671
:100D20002A9B00B02A8B3938006E00320032030E45
:100D300000162A9D00B02A8D006A39BE00802A9FC5
:100D400000B02A8FF2CFE7F1F29E0C0EA96EA69C9E
:100D5000A69EA680A850E7BFF28E396E39C045F036
:100D60002B9139B02B81D89039302B93E8B02B835D
:100D70003930006E00323F0E00162B9500B02B85E7
:100D80003930006E003200321F0E00162B9700B073
:100D90002B873938006E0F0E00162B9900B02B8967
:100DA0003938006E0032070E00162B9B00B02B8BDB
:100DB0003938006E00320032030E00162B9D00B051
:100DC0002B8D006A39BE00802B9F00B02B8FF2CF95
:100DD000E7F1F29E0D0EA96EA69CA69EA680A850D5
:100DE000E7BFF28E396E39C046F02D9139B02D81B2
:100DF000D89039302D93E8B02D833930006E003211
:100E00003F0E00162D9500B02D853930006E003252
:100E100000321F0E00162D9700B02D873938006E56
:100E20000F0E00162D9900B02D893938006E003252
:100E3000070E00162D9B00B02D8B3938006E003246
:100E40000032030E00162D9D00B02D8D006A39BEB4
:100E500000802D9F00B02D8FF2CFE7F1F29E0E0E95
:100E6000A96EA69CA69EA680A850E7BFF28E396EFA
:100E700039C047F02E9139B02E81D89039302E9359
:100E8000E8B02E833930006E00323F0E00162E95EA
:100E900000B02E853930006E003200321F0E001671
:100EA0002E9700B02E873938006E0F0E00162E993F
:100EB00000B02E893938006E0032070E00162E9BC6
:100EC00000B02E8B3938006E00320032030E00164F
:100ED0002E9D00B02E8D006A39BE00802E9F00B07E
:100EE0002E8FF2CFE7F1F29E0F0EA96EA69CA69E62
:100EF000A680A850E7BFF28E396E39C048F02F9116
:100F000039B02F81D89039302F93E8B02F83393002
:100F1000006E00323F0E00162F9500B02F8539303D
:100F2000006E003200321F0E00162F9700B02F8780
:100F30003938006E0F0E00162F9900B02F893938FE
:100F4000006E0032070E00162F9B00B02F8B393831
:100F5000006E00320032030E00162F9D00B02F8D60
:100F6000006A39BE00802F9F00B02F8FF2CFE7F1CB
:100F7000F29E100EA96EA69CA69EA680A850E7BF62
:100F8000F28E396E459139B04581D890393045930C
:100F9000E8B045833930006E00323F0E00164595AB
:100FA00000B045853930006E003200321F0E001649
:100FB000459700B045873938006E0F0E00164599E9
:100FC00000B045893938006E0032070E0016459B87
:100FD00000B0458B3938006E00320032030E001627
:100FE000459D00B0458D006A39BE0080459F00B028
:100FF000458FF2CFE7F1F29E110EA96EA69CA69E38
:10100000A680A850E7BFF28E396E469139B046816E
:10101000D89039304693E8B04683F2CFE7F1F29E9C
:10102000120EA96EA69CA69EA680A850E7BFF28EBF
:10103000396E469539B04685D89039304697E8B034
:1010400046873930006E00323F0E0016469900B0D8
:1010500046893930006E003200321F0E0016469B62
:1010600000B0468B3938006E0F0E0016469D00B05A
:10107000468D3938006E0032070E0016469F00B0CC
:10108000468F3938006E00320032030E0016479149
:1010900000B04781006A39BE0080479300B04783A3
:1010A000F2CFE7F1F29E130EA96EA69CA69EA68033
:1010B000A850E7BFF28E396E479539B04785D89072
:1010C00039304797E8B04787F2CFE7F1F29E140E28
:1010D000A96EA69CA69EA680A850E7BFF28E396E88
:1010E000499139B04981D89039304993E8B0498362
:1010F0003930006E00323F0E0016499500B0498528
:101100003930006E003200321F0E0016499700B0D1
:1011100049873938006E0F0E0016499900B0498989
:101120003938006E0032070E0016499B00B0498B1B
:101130003938006E00320032030E0016499D00B0AF
:10114000498D006A39BE0080499F00B0498FF2CFB7
:10115000E7F1F29E150EA96EA69CA69EA680A85049
:10116000E7BFF28E396E4A9139B04A81D890393052
:101170004A93E8B04A83F2CFE7F1F29E160EA96EC9
:10118000A69CA69EA680A850E7BFF28E396E4A950F
:1011900039B04A85D89039304A97E8B04A87393013
:1011A000006E00323F0E00164A9900B04A8939306D
:1011B000006E003200321F0E00164A9B00B04A8BB0
:1011C0003938006E0F0E00164A9D00B04A8D39382E
:1011D000006E0032070E00164A9F00B04A8F393861
:1011E000006E00320032030E00164B9100B04B81AE
:1011F000006A39BE00804B9300B04B83F2CFE7F119
:10120000F29E170EA96EA69CA69EA680A850E7BFC8
:10121000F28E396E4B9539B04B85D89039304B975B
:10122000E8B04B87F2CFE7F1F29E180EA96EA69CAC
:10123000A69EA680A850E7BFF28E606EF2CFE7F1BF
:10124000F29E190EA96EA69CA69EA680A850E7BF86
:10125000F28E616EF2CFE7F1F29E1A0EA96EA69C95
:10126000A69EA680A850E7BFF28E626EF2CFE7F18D
:10127000F29E1B0EA96EA69CA69EA680A850E7BF54
:10128000F28E636EF2CFE7F1F29E1C0EA96EA69C61
:10129000A69EA680A850E7BFF28E926B916FF2CF08
:1012A000E7F1F29E1D0EA96EA69CA69EA680A850F0
:1012B000E7BFF28E6F6EF2CFE7F1F29E1E0EA96EBF
:1012C000A69CA69EA680A850E7BFF28E946B936F53
:1012D000F2CFE7F1F29E1F0EA96EA69CA69EA680F5
:1012E000A850E7BFF28E966B956FF2CFE7F1F29EB2
:1012F000200EA96EA69CA69EA680A850E7BFF28EDF
:10130000986B976FF2CFE7F1F29E210EA96EA69C23
:10131000A69EA680A850E7BFF28E9A6B996FF2CF77
:10132000E7F1F29E220EA96EA69CA69EA680A8506A
:10133000E7BFF28E9C6B9B6FF2CFE7F1F29E230E1C
:10134000A96EA69CA69EA680A850E7BFF28E9E6BB3
:101350009D6FF2CFE7F1F29E240EA96EA69CA69E89
:10136000A680A850E7BFF28EA06B9F6FF2CFE7F187
:10137000F29E250EA96EA69CA69EA680A850E7BF49
:10138000F28EA26BA16FF2CFE7F1F29E260EA96E4C
:10139000A69CA69EA680A850E7BFF28EA46BA36F62
:1013A000F2CFE7F1F29E270EA96EA69CA69EA6801C
:1013B000A850E7BFF28EA66BA56FF2CFE7F1F29EC1
:1013C000280EA96EA69CA69EA680A850E7BFF28E06
:1013D000A86BA76FF2CFE7F1F29E290EA96EA69C2B
:1013E000A69EA680A850E7BFF28EAA6BA96FF2CF87
:1013F000E7F1F29E2A0EA96EA69CA69EA680A85092
:10140000E7BFF28EAC6BAB6FF2CFE7F1F29E2B0E23
:10141000A96EA69CA69EA680A850E7BFF28EAE6BD2
:10142000AD6FF2CFE7F1F29E2C0EA96EA69CA69EA0
:10143000A680A850E7BFF28EB06BAF6FF2CFE7F196
:10144000F29E2D0EA96EA69CA69EA680A850E7BF70
:10145000F28EB26BB16FF2CFE7F1F29E2E0EA96E53
:10146000A69CA69EA680A850E7BFF28EB46BB36F71
:10147000F2CFE7F1F29E2F0EA96EA69CA69EA68043
:10148000A850E7BFF28EB66BB56FF2CFE7F1F29ED0
:10149000300EA96EA69CA69EA680A850E7BFF28E2D
:1014A000B86BB76FF2CFE7F1F29E310EA96EA69C32
:1014B000A69EA680A850E7BFF28EBA6BB96F000156
:1014C0001200EFC1F1F10A0E0101F26FF0C1F3F168
:1014D0000001F7EC02F01200EFC1F1F11A0E010168
:1014E000F26FF0C1F3F10001F7EC02F0120001011C
:1014F000EB51070B006EEB31016E013201321F0E12
:1015000001160150ED25E96E000EEE21EA6E016A2A
:10151000012A002A01D00136002EFDD7EC5303E04A
:101520000150EF1203D0011E0150EF16000112000E
:101530000101EB51070B006EEB31016E01320132FC
:101540001F0E01160150EC25E96E000EED21EA6E2A
:10155000EFCF01F0002A01D00132002EFDD7010E9D
:10156000011600011200EA69E9690101EC6BEA5118
:10157000EC5D1FE20400EC51E825E96E000EE92164
:10158000EA6EEF500001EA190101EB6F036AEB51BB
:1015900000015DEC00F0016EE9510118EA6F036A89
:1015A0000101EB510001E5EC00F0E96F0101EC2BCA
:1015B000DED70001120004009EA8FDD7AD6E120018
:1015C0001E6A1F6A206A266A276A286A010135B1E5
:1015D00004D019B102D0418101D0419135B304D07A
:1015E00019B302D0418301D0419335B504D019B568
:1015F00002D0418501D0419535B704D019B702D04A
:10160000418701D0419735B904D019B902D0418939
:1016100001D0419935BB04D019BB02D0418B01D018
:10162000419B35BD04D019BD02D0418D01D0419DF3
:1016300035BF04D019BF02D0418F01D0419F36B1D0
:1016400004D01AB102D0428101D0429136B304D005
:101650001AB302D0428301D0429336B504D01AB5F2
:1016600002D0428501D0429536B704D01AB702D0D5
:10167000428701D0429736B904D01AB902D04289C4
:1016800001D0429936BB04D01ABB02D0428B01D0A4
:10169000429B36BD04D01ABD02D0428D01D0429D7E
:1016A00036BF04D01ABF02D0428F01D0429F37B15B
:1016B00004D01BB102D0438101D0439137B304D091
:1016C0001BB302D0438301D0439337B504D01BB57D
:1016D00002D0438501D0439537B704D01BB702D061
:1016E000438701D04397000E41BF010E2612D890C8
:1016F0002634E86F000E41BD010EE811266ED89029
:101700002634E86F000E41BB010EE811266ED8901A
:101710002634E86F000E41B9010EE811266ED8900C
:101720002634E86F000E41B7010EE811266ED890FE
:101730002634E86F000E41B5010EE811266ED890F0
:101740002634E86F000E41B3010EE811266ED890E2
:101750002634E86F000E41B1010EE811266E000E2E
:1017600042BF010E2712D8902734E86F000E42BD09
:10177000010EE811276ED8902734E86F000E42BBA7
:10178000010EE811276ED8902734E86F000E42B999
:10179000010EE811276ED8902734E86F000E42B78B
:1017A000010EE811276ED8902734E86F000E42B57D
:1017B000010EE811276ED8902734E86F000E42B36F
:1017C000010EE811276ED8902734E86F000E42B161
:1017D000010EE811276E000E43BF010E2812D890AB
:1017E0002834E86F000E43BD010EE811286ED89032
:1017F0002834E86F000E43BB010EE811286ED89024
:101800002834E86F000E43B9010EE811286ED89015
:101810002834E86F000E43B7010EE811286ED89007
:101820002834E86F000E43B5010EE811286ED890F9
:101830002834E86F000E43B3010EE811286ED890EB
:101840002834E86F000E43B1010EE811286E000E37
:1018500035BF010E1E12D8901E34E86F000E35BD44
:10186000010EE8111E6ED8901E34E86F000E35BBD5
:10187000010EE8111E6ED8901E34E86F000E35B9C7
:10188000010EE8111E6ED8901E34E86F000E35B7B9
:10189000010EE8111E6ED8901E34E86F000E35B5AB
:1018A000010EE8111E6ED8901E34E86F000E35B39D
:1018B000010EE8111E6ED8901E34E86F000E35B18F
:1018C000010EE8111E6E000E36BF010E1F12D890D9
:1018D0001F34E86F000E36BD010EE8111F6ED89060
:1018E0001F34E86F000E36BB010EE8111F6ED89052
:1018F0001F34E86F000E36B9010EE8111F6ED89044
:101900001F34E86F000E36B7010EE8111F6ED89035
:101910001F34E86F000E36B5010EE8111F6ED89027
:101920001F34E86F000E36B3010EE8111F6ED89019
:101930001F34E86F000E36B1010EE8111F6E000E65
:1019400037BF010E2012D8902034E86F000E37BD4B
:10195000010EE811206ED8902034E86F000E37BBDE
:10196000010EE811206ED8902034E86F000E37B9D0
:10197000010EE811206ED8902034E86F000E37B7C2
:10198000010EE811206ED8902034E86F000E37B5B4
:10199000010EE811206ED8902034E86F000E37B3A6
:1019A000010EE811206ED8902034E86F000E37B198
:1019B000010EE811206E000183EF18F0929A899AC7
:1019C0000101EA514109ED6FC950EDC1C9FFC730AE
:1019D000FEE3C950EBC1C9FFC730FEE3C950C96A75
:1019E000C730FEE3C9CFECF1929A898AECC101F0CD
:1019F00000011200E8C1EAF1090E0101EB6F0001DC
:101A0000DDDF01C0E9F10101E9C101F000011200CF
:101A1000E8C1EAF1190E0101EB6F0001CFDF01C04F
:101A2000E9F10101E9C101F0000112000101EC51ED
:101A3000EE03F3CF01F0F4CF00F0EF03F3500026F4
:101A4000ED51EE03F3500020026E0001120001017F
:101A5000E86BE86BE8BF03D0E8511D0823E3036A95
:101A6000E851006EE8BE0306E96F03C0EAF1036ABD
:101A7000E851006EE8BE0306EB6F010EED6F510EEC
:101A8000EC6F000155DDE9C1EBF10101EC6B01B038
:101A9000EC2B010EEE6F4D0EED6F000128DD010104
:101AA000E82BD8D70001F3EF10F00101E86B00013B
:101AB000A1DF01C010F11AA803D00101101F00011D
:101AC0000101529710B15287D89010315299E8B065
:101AD00052891031006E00323F0E0016529B00B04A
:101AE000528B1031006E003200321F0E0016529DD4
:101AF00000B0528D1039006E0F0E0016529F00B0CC
:101B0000528F1039006E0032070E0016539100B04C
:101B100053811039006E00320032030E00165393C9
:101B200000B05383006A10BF0080539500B0538506
:101B3000E86B00016DDF01C010F11AA803D00101AC
:101B4000101F00010101539710B15387D890103135
:101B50005399E8B05389020EE86F00014BDF01C0D2
:101B600010F11AA803D00101101F000101015193C7
:101B700010B15183D89010315195E8B05185103192
:101B8000006E00323F0E0016519700B051871031A1
:101B9000006E003200321F0E0016519900B05189BC
:101BA0001039006E0F0E0016519B00B0518B10398A
:101BB000006E0032070E0016519D00B0518D103995
:101BC000006E00320032030E0016519F00B0518F9C
:101BD000006A10BF0080529100B05281020EE86F7F
:101BE000000116DF01C010F11AA803D00101101F77
:101BF00000010101529310B15283D89010315295D7
:101C0000E8B05285010EE76FE7511408D8A0E9D279
:101C1000E7C1EBF1010EED6FCD0EEC6F000188DC3A
:101C20000150010B0108D8A464D1E7C1EBF1010E0A
:101C30000101ED6F510EEC6F00017ADC0150010BD8
:101C4000D8A4ABD0E7C1EBF1010E0101ED6F4D0E51
:101C5000EC6F00016DDC0150010BD8A490D0D8903E
:101C60000101E735036A550FE96E010E0320EA6EA4
:101C7000010EEE2601E3EF2AD890E735036A550FEF
:101C8000E96E010E0320EA6EECCFE9F1ED52EFCFE1
:101C9000E8F1D890E735036A910FE96E010E032051
:101CA000EA6EECCFEDF1ED52EFCFECF1EF6B4B0EB6
:101CB000EE6F0001BBDE02C0EBF101C0EAF10F0ED6
:101CC00001010124016E000E0220036E0350E95D44
:101CD00054E303E10150E85D50E3D890E735036A2F
:101CE000550FE96E010E0320EA6EEC6AED52EF6AC1
:101CF000010EE75DEC0F41E2140F000107EF12F057
:101D0000010115913AD00101159337D001011595C4
:101D100034D00101159731D0010115992ED0010160
:101D2000159B2BD00101159D28D00101159F25D0B1
:101D30000101169122D0010116931FD001011695C1
:101D40001CD00101169719D00101169916D0010176
:101D5000169B13D00101169D10D00101169F0DD0C6
:101D6000010117910AD00101179307D001011795BE
:101D700004D00101179701D001010DD00001D890C6
:101D80000101E735036A550FE96E010E0320EA6E83
:101D9000EC6AED52EF6AACD00001E7C1EBF1010E45
:101DA0000101ED6F4D0EEC6F000198EC0AF001504F
:101DB000010B0108D8A490D0D8900101E735036A3F
:101DC000550FE96E010E0320EA6E010EEE2601E3C7
:101DD000EF2AD890E735036A550FE96E010E03200C
:101DE000EA6EECCFE9F1ED52EFCFE8F1D890E735AC
:101DF000036A910FE96E010E0320EA6EECCFEDF15C
:101E0000ED52EFCFECF1EF6B4B0EEE6F00010EDEFB
:101E100002C0EBF101C0EAF10F0E01010124016ED5
:101E2000000E0220036E0350E95D54E303E101500C
:101E3000E85D50E3D890E735036A550FE96E010E6F
:101E40000320EA6EEC6AED52010EEF6EE75DEC0FD7
:101E500041E2140F000128EF12F0010115813AD080
:101E60000101158337D00101158534D00101158793
:101E700031D0010115892ED00101158B2BD0010124
:101E8000158D28D00101158F25D00101168122D092
:101E9000010116831FD0010116851CD00101168790
:101EA00019D00101168916D00101168B13D001013A
:101EB000168D10D00101168F0DD0010117810AD0A7
:101EC0000101178307D00101178504D0010117878D
:101ED00001D001010DD00001D8900101E735036A5E
:101EE000550FE96E010E0320EA6EEC6AED52EF6ABF
:101EF00074D1E7C1EBF1010E0101ED6FCD0EEC6F76
:101F0000000198EC0AF00150010BD8A467D1E7C199
:101F1000EBF1010E0101ED6F510EEC6F000198EC39
:101F20000AF00150010B0108D8A4ADD0E7C1EBF1D4
:101F3000010E0101ED6F4D0EEC6F000198EC0AF0FF
:101F40000150010B0108D8A490D0D8900101E735C9
:101F5000036A550FE96E010E0320EA6E010EEE26AC
:101F600001E3EF2AD890E735036A550FE96E010EB9
:101F70000320EA6EECCFE9F1ED52EFCFE8F1D89013
:101F8000E735036A910FE96E010E0320EA6EECCF8C
:101F9000EDF1ED52EFCFECF1EF6B4B0EEE6F000178
:101FA00045DD02C0EBF101C0EAF10F0E0101012491
:101FB000016E000E0220036E0350E95D54E303E15D
:101FC0000150E85D50E3D890E735036A550FE96E9C
:101FD000010E0320EA6EEC6AED52EF6A010EE75D36
:101FE000EC0F41E2140F000149EF12F001011581DD
:101FF0003AD00101158337D00101158534D0010194
:10200000158731D0010115892ED00101158B2BD0F8
:102010000101158D28D00101158F25D001011681F0
:1020200022D0010116831FD0010116851CD00101A9
:10203000168719D00101168916D00101168B13D00D
:102040000101168D10D00101168F0DD001011781ED
:102050000AD00101178307D00101178504D00101BF
:10206000178701D001010DD00001D8900101E7359B
:10207000036A550FE96E010E0320EA6EEC6AED5219
:10208000EF6AABD00001E7C1EBF1010E0101ED6F8A
:102090004D0EEC6F000198EC0AF00150010BD8A432
:1020A00090D0D8900101E735036A550FE96E010E13
:1020B0000320EA6E010EEE2601E3EF2AD890E73501
:1020C000036A550FE96E010E0320EA6EECCFE9F1C9
:1020D000ED52EFCFE8F1D890E735036A910FE96E42
:1020E000010E0320EA6EECCFEDF1ED52EFCFECF1F3
:1020F000EF6B4B0EEE6F000199DC02C0EBF101C0FB
:10210000EAF10F0E01010124016E000E0220036EA0
:102110000350E95D54E303E10150E85D50E3D890DA
:10212000E735036A550FE96E010E0320EA6EEC6A8B
:10213000ED52EF6A010EE75DEC0F41E2140F000172
:102140006AEF12F0010115913AD00101159337D0D1
:102150000101159534D00101159731D00101159970
:102160002ED00101159B2BD00101159D28D0010116
:10217000159F25D00101169122D0010116931FD081
:10218000010116951CD00101169719D0010116996D
:1021900016D00101169B13D00101169D10D001012C
:1021A000169F0DD0010117910AD00101179307D096
:1021B0000101179504D00101179701D001010DD03D
:1021C0000001D8900101E735036A550FE96E010E51
:1021D0000320EA6EEC6AED52EF6A00010101E72B81
:1021E00013D5000134D44B6A000E010117A3010E70
:1021F0004B12D8904B34E86F000E17A1010EE81176
:102200004B6ED8904B34E86F000E16AF010EE811FC
:102210004B6ED8904B34E86F000E16AD010EE811EE
:102220004B6ED8904B34E86F000E16AB010EE811E0
:102230004B6ED8904B34E86F000E16A9010EE811D2
:102240004B6ED8904B34E86F000E16A7010EE811C4
:102250004B6ED8904B34E86F000E16A5010EE811B6
:102260004B6E4C6A000E17A7010E4C12D8904C34DE
:10227000E86F000E17A5010EE8114C6E496A000EBA
:1022800015AF010E4912D8904934E86F000E15AD14
:10229000010EE811496ED8904934E86F000E15AB75
:1022A000010EE811496ED8904934E86F000E15A967
:1022B000010EE811496ED8904934E86F000E15A759
:1022C000010EE811496ED8904934E86F000E15A54B
:1022D000010EE811496ED8904934E86F000E15A33D
:1022E000010EE811496ED8904934E86F000E15A12F
:1022F000010EE811496E4D6A000E16AF010E4D1227
:10230000D8904D34E86F000E16AD010EE8114D6EF9
:10231000D8904D34E86F000E16AB010EE8114D6EEB
:10232000D8904D34E86F000E16A9010EE8114D6EDD
:10233000D8904D34E86F000E16A7010EE8114D6ECF
:10234000D8904D34E86F000E16A5010EE8114D6EC1
:10235000D8904D34E86F000E16A3010EE8114D6EB3
:10236000D8904D34E86F000E16A1010EE8114D6EA5
:102370004E6A000E17AF010E4E12D8904E34E86F21
:10238000000E17AD010EE8114E6ED8904E34E86F76
:10239000000E17AB010EE8114E6ED8904E34E86F68
:1023A000000E17A9010EE8114E6ED8904E34E86F5A
:1023B000000E17A7010EE8114E6ED8904E34E86F4C
:1023C000000E17A5010EE8114E6ED8904E34E86F3E
:1023D000000E17A3010EE8114E6ED8904E34E86F30
:1023E000000E17A1010EE8114E6E4A6A000E16A3E8
:1023F000010E4A12D8904A34E86F000E16A1010E61
:10240000E8114A6E0F0E4E164F6A00011200E824C2
:10241000F76AF736290FF66E240EF7220A00F550F8
:10242000FA6E0800F550F96E001D061D0C1D121DF8
:10243000181D1E1D241D2A1D301D361D3C1D421D4C
:10244000481D4E1D541D5A1D601D661D6C1D721DBC
:10245000E824F76AF7366B0FF66E240EF7220A00AF
:10246000F550FA6E0800F550F96E5A1E601E661E91
:102470006C1E721E781E7E1E841E8A1E901E961E64
:102480009C1EA21EA81EAE1EB41EBA1EC01EC61ED4
:10249000CC1EE824F76AF736AD0FF66E240EF7224D
:1024A0000A00F550FA6E0800F550F96EEC1FF21FA5
:1024B000F81FFE1F04200A20102016201C202220B6
:1024C00028202E2034203A20402046204C20522024
:1024D00058205E20E824F76AF736EF0FF66E240ED8
:1024E000F7220A00F550FA6E0800F550F96E442103
:1024F0004A21502156215C21622168216E217421DC
:102500007A21802186218C21922198219E21A4214B
:10251000AA21B021B621948082B002D01AAE02D096
:102520001AA406D0320E0101EF6F0001DFEC02F0B9
:10253000948082B002D01AAE02D01AA4AAD01A9403
:102540001D6A010135B102D039A104D03181359124
:102550003991199135B302D039A304D03183359321
:102560003993199335B502D039A504D03185359505
:102570003995199535B702D039A704D031873597E9
:102580003997199735B902D039A904D031893599CD
:102590003999199935BB02D039AB04D0318B359BB1
:1025A000399B199B35BD02D039AD04D0318D359D95
:1025B000399D199D35BF02D039AF04D0318F359F79
:1025C000399F199F36B102D03AA104D03281369199
:1025D0003A911A9136B302D03AA304D0328336939B
:1025E0003A931A9336B502D03AA504D0328536957F
:1025F0003A951A9536B702D03AA704D03287369763
:102600003A971A9736B902D03AA904D03289369946
:102610003A991A9936BB02D03AAB04D0328B369B2A
:102620003A9B1A9B36BD02D03AAD04D0328D369D0E
:102630003A9D1A9D36BF02D03AAF04D0328F369FF2
:102640003A9F1A9F37B102D03BA104D03381379112
:102650003B911B9137B302D03BA304D03383379314
:102660003B931B9337B502D03BA504D033853795F8
:102670003B951B9537B702D03BA704D033873797DC
:102680003B971B971A8E899892988996929608D0B4
:102690000001948082A003D01AAE01D01A9E0101DD
:1026A00000011200948282B202D030A002D01AA699
:1026B00006D0320E0101EF6F0001DFEC02F09482D0
:1026C00082B202D030A002D01AA6F5D01A96000E1F
:1026D000010115B1010EE86F000E1DB1010EE819E0
:1026E00003E135B101D01981000E15B3010EE86F79
:1026F000000E1DB3010EE81903E135B301D01983B3
:10270000000E15B5010EE86F000E1DB5010EE8199B
:1027100003E135B501D01985000E15B7010EE86F3C
:10272000000E1DB7010EE81903E135B701D0198776
:10273000000E15B9010EE86F000E1DB9010EE81963
:1027400003E135B901D01989000E15BB010EE86F00
:10275000000E1DBB010EE81903E135BB01D0198B3A
:10276000000E15BD010EE86F000E1DBD010EE8192B
:1027700003E135BD01D0198D000E15BF010EE86FC4
:10278000000E1DBF010EE81903E135BF01D0198FFE
:10279000000E16B1010EE86F000E1EB1010EE81911
:1027A00003E136B101D01A81000E16B3010EE86FB5
:1027B000000E1EB3010EE81903E136B301D01A83EF
:1027C000000E16B5010EE86F000E1EB5010EE819D9
:1027D00003E136B501D01A85000E16B7010EE86F79
:1027E000000E1EB7010EE81903E136B701D01A87B3
:1027F000000E16B9010EE86F000E1EB9010EE819A1
:1028000003E136B901D01A89000E16BB010EE86F3C
:10281000000E1EBB010EE81903E136BB01D01A8B76
:10282000000E16BD010EE86F000E1EBD010EE81968
:1028300003E136BD01D01A8D000E16BF010EE86F00
:10284000000E1EBF010EE81903E136BF01D01A8F3A
:10285000000E17B1010EE86F000E1FB1010EE8194E
:1028600003E137B101D01B81000E17B3010EE86FF1
:10287000000E1FB3010EE81903E137B301D01B832B
:10288000000E17B5010EE86F000E1FB5010EE81916
:1028900003E137B501D01B85000E17B7010EE86FB5
:1028A000000E1FB7010EE81903E137B701D01B87EF
:1028B000308008D00001948282A203D030A001D0E1
:1028C00030900101000112000400010E705C010152
:1028D000E76FE96BAD0EE86FE7C1EAF10001B3EC19
:1028E0000AF0010E705C036AAD0FE96E000E032062
:1028F000EA6EEF50EA5DD8A40AEF20F0036A705048
:10290000AD0FE96E000E0320EA6EEF50E95DD8A42A
:102910000AEF20F0AD51AA08D8A48BD1AE512008FF
:10292000D8A487D16FC071F0200E726E1C0E736E2A
:102930003AC074F03BC075F03CC076F03DC077F013
:102940003EC078F03FC079F040C07AF041C07BF0E3
:1029500042C07CF043C07DF044C07EF045C07FF0B3
:1029600046C080F047C081F048C082F0F2CFE7F166
:10297000F29E100EA96EA69CA69EA680A8500101EC
:10298000E7BFF28E0001836FF2CFE7F1F29E110EE6
:10299000A96EA69CA69EA680A8500101E7BFF28E54
:1029A0000001846FF2CFE7F1F29E120EA96EA69C91
:1029B000A69EA680A8500101E7BFF28E0001856F98
:1029C000F2CFE7F1F29E130EA96EA69CA69EA680FA
:1029D000A8500101E7BFF28E0001866FF2CFE7F148
:1029E000F29E140EA96EA69CA69EA680A850010178
:1029F000E7BFF28E0001876FF2CFE7F1F29E150E6E
:102A0000A96EA69CA69EA680A8500101E7BFF28EE3
:102A10000001886FF2CFE7F1F29E160EA96EA69C18
:102A2000A69EA680A8500101E7BFF28E0001896F23
:102A3000F2CFE7F1F29E170EA96EA69CA69EA68085
:102A4000A8500101E7BFF28E00018A6F60C08BF0D1
:102A500061C08CF062C08DF063C08EF091C18FF0C8
:102A60006FC090F093C191F095C192F097C193F02F
:102A700099C194F09BC195F09DC196F09FC197F0CC
:102A8000A1C198F0A3C199F0A5C19AF0A7C19BF08C
:102A9000A9C19CF0ABC19DF0ADC19EF0AFC19FF04C
:102AA000B1C1A0F0B3C1A1F0B5C1A2F0B7C1A3F00C
:102AB000B9C1A4F00101E96B710EE86F340EEA6F41
:102AC0000001B3EC0AF0EAC0A5F0E9C0A6F08A86DE
:102AD00093960A0E0101EF6F0001DFEC02F07150D6
:102AE000DBEC0AF07250DBEC0AF07350DBEC0AF01E
:102AF0007450DBEC0AF07550DBEC0AF07650DBEC3E
:102B00000AF07750DBEC0AF07850DBEC0AF07950F1
:102B1000DBEC0AF07A50DBEC0AF07B50DBEC0AF0DD
:102B20007C50DBEC0AF07D50DBEC0AF07E50DBECF5
:102B30000AF07F50DBEC0AF08051DBEC0AF08151A7
:102B4000DBEC0AF08251DBEC0AF08351DBEC0AF09B
:102B50008451DBEC0AF08551DBEC0AF08651DBECAA
:102B60000AF08751DBEC0AF08851DBEC0AF089515E
:102B7000DBEC0AF08A51DBEC0AF08B51DBEC0AF05B
:102B80008C51DBEC0AF08D51DBEC0AF08E51DBEC62
:102B90000AF08F51DBEC0AF09051DBEC0AF0915116
:102BA000DBEC0AF09251DBEC0AF09351DBEC0AF01B
:102BB0009451DBEC0AF09551DBEC0AF09651DBEC1A
:102BC0000AF09751DBEC0AF09851DBEC0AF09951CE
:102BD000DBEC0AF09A51DBEC0AF09B51DBEC0AF0DB
:102BE0009C51DBEC0AF09D51DBEC0AF09E51DBECD2
:102BF0000AF09F51DBEC0AF0A051DBEC0AF0A15186
:102C0000DBEC0AF0A251DBEC0AF0A351DBEC0AF09A
:102C1000A451DBEC0AF0A551DBEC0AF0A651DBEC89
:102C20000AF0030E0101EF6F0001DFEC02F08A965B
:102C300093966F50AD5DD8A406EF20F0AE2D5DD217
:102C4000EE6BAFC0EDF0EDC0EEF00101E76BE751C8
:102C50000001B011ED6F0001F06BB1C0EFF0EFC0FB
:102C6000F0F00101E76BE7510001B211EF6F0001D5
:102C7000EE53D8A40CD2ED510F08D8A008D2EF51D2
:102C8000ED250101E76F0001F051EE210101E86F30
:102C9000E853D8B402D00001FAD1E7511408D8B0F3
:102CA00002D00001F4D10001F05306E1EF51080811
:102CB00003E3010EF16F12D0F05306E1EF5110085B
:102CC00003E3020EF16F0AD0F05306E1EF5118084A
:102CD00003E3030EF16F02D0010EF16FF12DA0D0CE
:102CE000EE530DE1ED5108080AE349C0F2F0ED5151
:102CF000016E04E0D890F233012EFCD71AD0EE53C7
:102D000003E1ED51080815E2EE5313E1ED510F0810
:102D100010E3080EED5D006E000EEE59036E00C06C
:102D200001F04DC0F2F0015204E0D890F233012ED0
:102D3000FCD7EF51080803E1F05301E135D0EF5122
:102D4000070804E1F05302E1F29F2ED0EF5106088C
:102D500005E1F05303E13F0EF21726D0EF510508CD
:102D600005E1F05303E11F0EF2171ED0EF510408E6
:102D700005E1F05303E10F0EF21716D0EF510308EF
:102D800005E1F05303E1070EF2170ED0EF510208F0
:102D900005E1F05303E1030EF21706D0EF2D04D046
:102DA000F05302E1010EF2176FC071F0010E726E66
:102DB000F1C073F0F2C074F00101E96B710EE86FBD
:102DC000040EEA6F0001B3EC0AF0EAC075F0E9C046
:102DD00076F08A8693960400040E0101EF6F0001DD
:102DE000DFEC02F004007150DBEC0AF07250DBEC17
:102DF0000AF07350DBEC0AF07450DBEC0AF075500B
:102E0000DBEC0AF07650DBEC0AF00400030E010163
:102E1000EF6F0001DFEC02F004008A96939636D142
:102E2000F1510208D8A4DDD049C0F2F0ED51016E95
:102E300004E0D890F233012EFCD74DC0F3F0070E1A
:102E4000EF5D0101E76F000E0001F0590101E86F2D
:102E5000E751080803E1E85301E183D0070E0001C0
:102E6000EF5D0101E76F000E0001F0590101E86F0D
:102E7000E751070805E1E85303E10001F39F70D033
:102E8000070E0001EF5D0101E76F000E0001F05930
:102E90000101E86FE751060806E1E85304E13F0E3F
:102EA0000001F3175DD0070E0001EF5D0101E76F30
:102EB000000E0001F0590101E86FE751050806E135
:102EC000E85304E11F0E0001F3174AD0070E00017A
:102ED000EF5D0101E76F000E0001F0590101E86F9D
:102EE000E751040806E1E85304E10F0E0001F3176F
:102EF00037D0070E0001EF5D0101E76F000E000102
:102F0000F0590101E86FE751030806E1E85304E1D5
:102F1000070E0001F31724D0070E0001EF5D010139
:102F2000E76F000E0001F0590101E86FE751020858
:102F300006E1E85304E1030E0001F31711D0070E78
:102F40000001EF5D0101E76F000E0001F059010182
:102F5000E86FE72D06D0E85304E1010E0001F317F6
:102F600001016FC071F0010E726EF1C073F0F2C01A
:102F700074F0F3C075F0E96B710EE86F050EEA6F3F
:102F80000001B3EC0AF0EAC076F0E9C077F08A8677
:102F900093960400040E0101EF6F0001DFEC02F0D4
:102FA00004007150DBEC0AF07250DBEC0AF0735055
:102FB000DBEC0AF07450DBEC0AF07550DBEC0AF045
:102FC0007650DBEC0AF07750DBEC0AF00400030EDD
:102FD0000101EF6F0001DFEC02F004008A96939686
:102FE00055D0F151030852E149C0F2F0ED51016EA4
:102FF00004E0D890F233012EFCD74DC0F3F04EC060
:10300000F4F06FC071F0010E726EF1C073F0F2C097
:1030100074F0F3C075F0F4C076F00101E96B710E45
:10302000E86F060EEA6F0001B3EC0AF0EAC077F031
:10303000E9C078F08A8693960400040E0101EF6FD0
:103040000001DFEC02F004007150DBEC0AF072507A
:10305000DBEC0AF07350DBEC0AF07450DBEC0AF0A6
:103060007550DBEC0AF07650DBEC0AF07750DBECC5
:103070000AF07850DBEC0AF00400030E0101EF6F58
:103080000001DFEC02F004008A96939636D06FC000
:1030900071F0810E726E020E736E0101E96B710E9A
:1030A000E86F030EEA6F0001B3EC0AF0EAC074F0B7
:1030B000E9C075F08A8693960400040E0101EF6F53
:1030C0000001DFEC02F004007150DBEC0AF07250FA
:1030D000DBEC0AF07350DBEC0AF07450DBEC0AF026
:1030E0007550DBEC0AF00400030E0101EF6F0001E4
:1030F000DFEC02F004008A969396AE510708D8A43C
:10310000AED0E0EF0AF09D921EC0F2F01FC0F3F0C7
:1031100020C0F4F021C0F5F022C0F6F023C0F7F093
:1031200024C0F8F025C0F9F026C0FAF027C0FBF063
:1031300028C0FCF029C0FDF02AC0FEF02BC0FFF033
:103140002CC000F12DC001F16FC071F0070E726E3E
:10315000100EF16FF1C073F0F2C074F0F3C075F0AF
:10316000F4C076F0F5C077F0F6C078F0F7C079F0EB
:10317000F8C07AF0F9C07BF0FAC07CF0FBC07DF0BB
:10318000FCC07EF0FDC07FF0FEC080F0FFC081F08B
:1031900000C182F001C183F00101E96B710EE86F9B
:1031A000130EEA6F0001B3EC0AF0EAC084F0E9C044
:1031B00085F08A8693960400040E0101EF6F0001EA
:1031C000DFEC02F004007150DBEC0AF07250DBEC33
:1031D0000AF07350DBEC0AF07450DBEC0AF0755027
:1031E000DBEC0AF07650DBEC0AF07750DBEC0AF00F
:1031F0007850DBEC0AF07950DBEC0AF07A50DBEC2B
:103200000AF07B50DBEC0AF07C50DBEC0AF07D50DE
:10321000DBEC0AF07E50DBEC0AF07F50DBEC0AF0CE
:103220008051DBEC0AF08151DBEC0AF08251DBECDF
:103230000AF08351DBEC0AF08451DBEC0AF0855193
:10324000DBEC0AF00400030E0101EF6F0001DFEC7C
:1032500002F004008A9693969D82B1EF1FF0AE5162
:103260000508D8A463D2EE6BAFC0EDF0EDC0EEF070
:103270000101E76BE7510001B011ED6F0001F06B48
:10328000B1C0EFF0EFC0F0F00101E76BE7510001D2
:10329000B211EF6F0001ED534DE1EE534BE1EF53EF
:1032A00048E1F03D46D01A846FC071F0050E726E91
:1032B000AFC073F0B0C074F0B1C075F0B2C076F0BA
:1032C0000101E96B710EE86F060EEA6F0001B3ECC5
:1032D0000AF0EAC077F0E9C078F08A869396040095
:1032E000040E0101EF6F0001DFEC02F004007150E9
:1032F000DBEC0AF07250DBEC0AF07350DBEC0AF006
:103300007450DBEC0AF07550DBEC0AF07650DBEC25
:103310000AF07750DBEC0AF07850DBEC0AF004009E
:10332000030E0101EF6F0001DFEC02F004008A964A
:103330009396FAD1ED2D4DD0EE534BE1EF5348E18A
:10334000F03D46D01A866FC071F0050E726EAFC0A8
:1033500073F0B0C074F0B1C075F0B2C076F0010186
:10336000E96B710EE86F060EEA6F0001B3EC0AF02C
:10337000EAC077F0E9C078F08A8693960400040EDC
:103380000101EF6F0001DFEC02F004007150DBEC93
:103390000AF07250DBEC0AF07350DBEC0AF0745068
:1033A000DBEC0AF07550DBEC0AF07650DBEC0AF04F
:1033B0007750DBEC0AF07850DBEC0AF00400030EE7
:1033C0000101EF6F0001DFEC02F004008A96939692
:1033D000ABD1ED510208D8A4A1D0EE53D8A49ED011
:1033E000EF5349E1F03D47D01A886FC071F0050EE8
:1033F000726EAFC073F0B0C074F0B1C075F0B2C0FF
:1034000076F00101E96B710EE86F060EEA6F0001BC
:10341000B3EC0AF0EAC077F0E9C078F08A869396B8
:103420000400040E0101EF6F0001DFEC02F0040064
:103430007150DBEC0AF07250DBEC0AF07350DBECFD
:103440000AF07450DBEC0AF07550DBEC0AF07650B1
:10345000DBEC0AF07750DBEC0AF07850DBEC0AF09A
:103460000400030E0101EF6F0001DFEC02F0040025
:103470008A96939652D0EF5350E1F0534EE11A984A
:1034800055EC0DF01A848BEC12F01A8652EC13F006
:103490006FC071F0050E726EAFC073F0B0C074F003
:1034A000B1C075F0B2C076F00101E96B710EE86F42
:1034B000060EEA6F0001B3EC0AF0EAC077F0E9C04B
:1034C00078F08A8693960400040E0101EF6F0001E4
:1034D000DFEC02F004007150DBEC0AF07250DBEC20
:1034E0000AF07350DBEC0AF07450DBEC0AF0755014
:1034F000DBEC0AF07650DBEC0AF07750DBEC0AF0FC
:103500007850DBEC0AF00400030E0101EF6F0001BC
:10351000DFEC02F004008A96939606D1ED51030881
:10352000D8A4A1D0EE53D8A49ED0EF5349E1F03DEA
:1035300047D01A8A6FC071F0050E726EAFC073F07B
:10354000B0C074F0B1C075F0B2C076F00101E96BA3
:10355000710EE86F060EEA6F0001B3EC0AF0EAC0E4
:1035600077F0E9C078F08A8693960400080E01018E
:10357000EF6F0001DFEC02F004007150DBEC0AF0A9
:103580007250DBEC0AF07350DBEC0AF07450DBECA9
:103590000AF07550DBEC0AF07650DBEC0AF077505D
:1035A000DBEC0AF07850DBEC0AF00400080E0101B5
:1035B000EF6F0001DFEC02F004008A96939652D080
:1035C000EF5350E1F0534EE11A9A55EC0DF01A8486
:1035D0008BEC12F01A8652EC13F06FC071F0050EEE
:1035E000726EAFC073F0B0C074F0B1C075F0B2C00D
:1035F00076F00101E96B710EE86F060EEA6F0001CB
:10360000B3EC0AF0EAC077F0E9C078F08A869396C6
:103610000400040E0101EF6F0001DFEC02F0040072
:103620007150DBEC0AF07250DBEC0AF07350DBEC0B
:103630000AF07450DBEC0AF07550DBEC0AF07650BF
:10364000DBEC0AF07750DBEC0AF07850DBEC0AF0A8
:103650000400030E0101EF6F0001DFEC02F0040033
:103660008A96939661D0ED5164085EE1EE535CE179
:10367000EFC06FF0F250006EF29E1D0EA96E6FC08B
:10368000A8FFA69CA69EA6840F01550EA76EAA0EA3
:10369000A76EA682A6B2FED7A6940050F2126FC003
:1036A00071F0050E726EAFC073F0B0C074F0B1C0AF
:1036B00075F0B2C076F00101E96B710EE86F060E8D
:1036C000EA6F0001B3EC0AF0EAC077F0E9C078F0E5
:1036D0008A8693960400040E0101EF6F0001DFEC6F
:1036E00002F004007150DBEC0AF07250DBEC0AF0DF
:1036F0007350DBEC0AF07450DBEC0AF07550DBEC35
:103700000AF07650DBEC0AF07750DBEC0AF07850E8
:10371000DBEC0AF00400030E0101EF6F0001DFECA7
:1037200002F004008A969396B1EF1FF0AE51210883
:10373000D8A4B1EF1FF0F250006EF29EA96A0F0EEE
:10374000A86EA69CA69EA6840F01550EA76EAA0E73
:10375000A76EA682A6B2FED7A6940050F212F2CFB0
:1037600000F0F29E010EA96EB0C0A8FFA69CA69E16
:10377000A684550EA76EAA0EA76EA682A6B2FED785
:10378000A6940050F212F2CF00F0F29E020EA96E43
:10379000B1C0A8FFA69CA69EA684550EA76EAA0E31
:1037A000A76EA682A6B2FED7A6940050F212F2CF60
:1037B00000F0F29E030EA96EB2C0A8FFA69CA69EC2
:1037C000A684550EA76EAA0EA76EA682A6B2FED735
:1037D000A6940050F212F2CF00F0F29E040EA96EF1
:1037E000B3C0A8FFA69CA69EA684550EA76EAA0EDF
:1037F000A76EA682A6B2FED7A6940050F212F2CF10
:1038000000F0F29E050EA96EB4C0A8FFA69CA69E6D
:10381000A684550EA76EAA0EA76EA682A6B2FED7E4
:10382000A6940050F212F2CF00F0F29E060EA96E9E
:10383000B5C0A8FFA69CA69EA684550EA76EAA0E8C
:10384000A76EA682A6B2FED7A6940050F212F2CFBF
:1038500000F0F29E070EA96EB6C0A8FFA69CA69E19
:10386000A684550EA76EAA0EA76EA682A6B2FED794
:10387000A6940050F212F2CF00F0F29E080EA96E4C
:10388000B7C0A8FFA69CA69EA684550EA76EAA0E3A
:10389000A76EA682A6B2FED7A6940050F212F2CF6F
:1038A00000F0F29E090EA96EB8C0A8FFA69CA69EC5
:1038B000A684550EA76EAA0EA76EA682A6B2FED744
:1038C000A6940050F212F2CF00F0F29E0A0EA96EFA
:1038D000B9C0A8FFA69CA69EA684550EA76EAA0EE8
:1038E000A76EA682A6B2FED7A6940050F212F2CF1F
:1038F00000F0F29E0B0EA96EBAC0A8FFA69CA69E71
:10390000A684550EA76EAA0EA76EA682A6B2FED7F3
:10391000A6940050F212F2CF00F0F29E0C0EA96EA7
:10392000BBC0A8FFA69CA69EA684550EA76EAA0E95
:10393000A76EA682A6B2FED7A6940050F212F2CFCE
:1039400000F0F29E0D0EA96EBCC0A8FFA69CA69E1C
:10395000A684550EA76EAA0EA76EA682A6B2FED7A3
:10396000A6940050F212F2CF00F0F29E0E0EA96E55
:10397000BDC0A8FFA69CA69EA684550EA76EAA0E43
:10398000A76EA682A6B2FED7A6940050F212F2CF7E
:1039900000F0F29E0F0EA96EBEC0A8FFA69CA69EC8
:1039A000A684550EA76EAA0EA76EA682A6B2FED753
:1039B000A6940050F212F2CF00F0F29E100EA96E03
:1039C000BFC0A8FFA69CA69EA684550EA76EAA0EF1
:1039D000A76EA682A6B2FED7A6940050F212F2CF2E
:1039E00000F0F29E110EA96EC0C0A8FFA69CA69E74
:1039F000A684550EA76EAA0EA76EA682A6B2FED703
:103A0000A6940050F212F2CF00F0F29E120EA96EB0
:103A1000C1C0A8FFA69CA69EA684550EA76EAA0E9E
:103A2000A76EA682A6B2FED7A6940050F212F2CFDD
:103A300000F0F29E130EA96EC2C0A8FFA69CA69E1F
:103A4000A684550EA76EAA0EA76EA682A6B2FED7B2
:103A5000A6940050F212F2CF00F0F29E140EA96E5E
:103A6000C3C0A8FFA69CA69EA684550EA76EAA0E4C
:103A7000A76EA682A6B2FED7A6940050F212F2CF8D
:103A800000F0F29E150EA96EC4C0A8FFA69CA69ECB
:103A9000A684550EA76EAA0EA76EA682A6B2FED762
:103AA000A6940050F212F2CF00F0F29E160EA96E0C
:103AB000C5C0A8FFA69CA69EA684550EA76EAA0EFA
:103AC000A76EA682A6B2FED7A6940050F212F2CF3D
:103AD00000F0F29E170EA96EC6C0A8FFA69CA69E77
:103AE000A684550EA76EAA0EA76EA682A6B2FED712
:103AF000A6940050F212F2CF00F0F29E180EA96EBA
:103B0000C7C0A8FFA69CA69EA684550EA76EAA0EA7
:103B1000A76EA682A6B2FED7A6940050F212F2CFEC
:103B200000F0F29E190EA96EC8C0A8FFA69CA69E22
:103B3000A684550EA76EAA0EA76EA682A6B2FED7C1
:103B4000A6940050F212F2CF00F0F29E1A0EA96E67
:103B5000C9C0A8FFA69CA69EA684550EA76EAA0E55
:103B6000A76EA682A6B2FED7A6940050F212F2CF9C
:103B700000F0F29E1B0EA96ECAC0A8FFA69CA69ECE
:103B8000A684550EA76EAA0EA76EA682A6B2FED771
:103B9000A6940050F212F2CF00F0F29E1C0EA96E15
:103BA000CBC0A8FFA69CA69EA684550EA76EAA0E03
:103BB000A76EA682A6B2FED7A6940050F212F2CF4C
:103BC00000F0F29E1D0EA96ECCC0A8FFA69CA69E7A
:103BD000A684550EA76EAA0EA76EA682A6B2FED721
:103BE000A6940050F212F2CF00F0F29E1E0EA96EC3
:103BF000CDC0A8FFA69CA69EA684550EA76EAA0EB1
:103C0000A76EA682A6B2FED7A6940050F212F2CFFB
:103C100000F0F29E1F0EA96ECEC0A8FFA69CA69E25
:103C2000A684550EA76EAA0EA76EA682A6B2FED7D0
:103C3000A6940050F212F2CF00F0F29E200EA96E70
:103C4000CFC0A8FFA69CA69EA684550EA76EAA0E5E
:103C5000A76EA682A6B2FED7A6940050F212F2CFAB
:103C600000F0F29E210EA96ED0C0A8FFA69CA69ED1
:103C7000A684550EA76EAA0EA76EA682A6B2FED780
:103C8000A6940050F212F2CF00F0F29E220EA96E1E
:103C9000D1C0A8FFA69CA69EA684550EA76EAA0E0C
:103CA000A76EA682A6B2FED7A6940050F212F2CF5B
:103CB00000F0F29E230EA96ED2C0A8FFA69CA69E7D
:103CC000A684550EA76EAA0EA76EA682A6B2FED730
:103CD000A6940050F212F2CF00F0F29E240EA96ECC
:103CE000D3C0A8FFA69CA69EA684550EA76EAA0EBA
:103CF000A76EA682A6B2FED7A6940050F212F2CF0B
:103D000000F0F29E250EA96ED4C0A8FFA69CA69E28
:103D1000A684550EA76EAA0EA76EA682A6B2FED7DF
:103D2000A6940050F212F2CF00F0F29E260EA96E79
:103D3000D5C0A8FFA69CA69EA684550EA76EAA0E67
:103D4000A76EA682A6B2FED7A6940050F212F2CFBA
:103D500000F0F29E270EA96ED6C0A8FFA69CA69ED4
:103D6000A684550EA76EAA0EA76EA682A6B2FED78F
:103D7000A6940050F212F2CF00F0F29E280EA96E27
:103D8000D7C0A8FFA69CA69EA684550EA76EAA0E15
:103D9000A76EA682A6B2FED7A6940050F212F2CF6A
:103DA00000F0F29E290EA96ED8C0A8FFA69CA69E80
:103DB000A684550EA76EAA0EA76EA682A6B2FED73F
:103DC000A6940050F212F2CF00F0F29E2A0EA96ED5
:103DD000D9C0A8FFA69CA69EA684550EA76EAA0EC3
:103DE000A76EA682A6B2FED7A6940050F212F2CF1A
:103DF00000F0F29E2B0EA96EDAC0A8FFA69CA69E2C
:103E0000A684550EA76EAA0EA76EA682A6B2FED7EE
:103E1000A6940050F212F2CF00F0F29E2C0EA96E82
:103E2000DBC0A8FFA69CA69EA684550EA76EAA0E70
:103E3000A76EA682A6B2FED7A6940050F212F2CFC9
:103E400000F0F29E2D0EA96EDCC0A8FFA69CA69ED7
:103E5000A684550EA76EAA0EA76EA682A6B2FED79E
:103E6000A6940050F212F2CF00F0F29E2E0EA96E30
:103E7000DDC0A8FFA69CA69EA684550EA76EAA0E1E
:103E8000A76EA682A6B2FED7A6940050F212F2CF79
:103E900000F0F29E2F0EA96EDEC0A8FFA69CA69E83
:103EA000A684550EA76EAA0EA76EA682A6B2FED74E
:103EB000A6940050F212F2CF00F0F29E300EA96EDE
:103EC000DFC0A8FFA69CA69EA684550EA76EAA0ECC
:103ED000A76EA682A6B2FED7A6940050F212F2CF29
:103EE00000F0F29E310EA96EE0C0A8FFA69CA69E2F
:103EF000A684550EA76EAA0EA76EA682A6B2FED7FE
:103F0000A6940050F2126FC071F0210E726E010182
:103F1000E96B710EE86F020EEA6F0001B3EC0AF074
:103F2000EAC073F0E9C074F08A8693960A0E010124
:103F3000EF6F0001DFEC02F07150DBEC0AF0725021
:103F4000DBEC0AF07350DBEC0AF07450DBEC0AF0A7
:103F5000030E0101EF6F0001DFEC02F08A969396E9
:103F6000FF00AE51030852E14DC0F2F049C0F3F03A
:103F70004FC0F4F04EC0F5F06FC071F0030E726EDA
:103F8000040E736EF2C074F0F3C075F0F4C076F0F6
:103F9000F5C077F00101E96B710EE86F070EEA6F6B
:103FA0000001B3EC0AF0EAC078F0E9C079F08A8643
:103FB00093960400040E0101EF6F0001DFEC02F0A4
:103FC00004007150DBEC0AF07250DBEC0AF0735025
:103FD000DBEC0AF07450DBEC0AF07550DBEC0AF015
:103FE0007650DBEC0AF07750DBEC0AF07850DBEC33
:103FF0000AF07950DBEC0AF00400030E0101EF6FC8
:104000000001DFEC02F004008A969396010EEC6F3B
:10401000F40EEB6F309A66C06EF00101126B706A9D
:104020008A969396000185EF3EF06350090820E2DE
:10403000010115911DA1158115931DA315831595DA
:104040001DA5158515971DA7158715991DA91589F6
:10405000159B1DAB158B159D1DAD158D159F1DAFAA
:10406000158F16911EA1168116931EA316830001AB
:104070006350130820E2010116951EA516851697B8
:104080001EA7168716991EA91689169B1EAB168B9E
:10409000169D1EAD168D169F1EAF168F17911EA56D
:1040A000178117931EA7178317951EA917851797B2
:1040B0001EAB178700010101319131933195319782
:1040C0003199319B319D319F3291329332953297A4
:1040D0003299329B329D329F33913393339533978C
:1040E000000114EF37F00101EF2D54D2000E35B16D
:1040F000010EF26F000E39B1010EF211F16F000ED8
:1041000031A1010EF117000E25B1010EF46F000E62
:1041100029B1010EF411F115F091E8B0F081000E13
:10412000F0B1010EF16F000E35B3010EF36F000E0A
:1041300039B3010EF311F26F000E31A3010EF21725
:10414000000E25B3010EF56F000E29B3010EF51117
:10415000F215F111F091E8B0F081000EF0B1010E0E
:10416000F16F000E35B5010EF36F000E39B5010E7B
:10417000F311F26F000E31A5010EF217000E25B5F6
:10418000010EF56F000E29B5010EF511F215F111B2
:10419000F091E8B0F081000EF0B1010EF16F000E69
:1041A00035B7010EF36F000E39B7010EF311F26F40
:1041B000000E31A7010EF217000E25B7010EF56FA4
:1041C000000E29B7010EF511F215F111F091E8B0CA
:1041D000F081000EF0B1010EF16F000E35B9010E45
:1041E000F36F000E39B9010EF311F26F000E31A911
:1041F000010EF217000E25B9010EF56F000E29B958
:10420000010EF511F215F111F091E8B0F081000EF8
:10421000F0B1010EF16F000E35BB010EF36F000E11
:1042200039BB010EF311F26F000E31AB010EF21724
:10423000000E25BB010EF56F000E29BB010EF51116
:10424000F215F111F091E8B0F081000EF0B1010E1D
:10425000F16F000E35BD010EF36F000E39BD010E7A
:10426000F311F26F000E31AD010EF217000E25BDF5
:10427000010EF56F000E29BD010EF511F215F111B9
:10428000F091E8B0F081000EF0B1010EF16F000E78
:1042900035BF010EF36F000E39BF010EF311F26F3F
:1042A000000E31AF010EF217000E25BF010EF56FA3
:1042B000000E29BF010EF511F215F111F091E8B0D1
:1042C000F081000EF0B1010EF16F000E36B1010E5B
:1042D000F36F000E3AB1010EF311F26F000E32A12E
:1042E000010EF217000E26B1010EF56F000E2AB175
:1042F000010EF511F215F111F091E8B0F081000E08
:10430000F0B1010EF16F000E36B3010EF36F000E27
:104310003AB3010EF311F26F000E32A3010EF21741
:10432000000E26B3010EF56F000E2AB3010EF51133
:10433000F215F111F091E8B0F081000EF0B1010E2C
:10434000F16F000E36B5010EF36F000E3AB5010E97
:10435000F311F26F000E32A5010EF217000E26B512
:10436000010EF56F000E2AB5010EF511F215F111CF
:10437000F091E8B0F081000EF0B1010EF16F000E87
:1043800036B7010EF36F000E3AB7010EF311F26F5C
:10439000000E32A7010EF217000E26B7010EF56FC0
:1043A000000E2AB7010EF511F215F111F091E8B0E7
:1043B000F081000EF0B1010EF16F000E36B9010E62
:1043C000F36F000E3AB9010EF311F26F000E32A92D
:1043D000010EF217000E26B9010EF56F000E2AB974
:1043E000010EF511F215F111F091E8B0F081000E17
:1043F000F0B1010EF16F000E36BB010EF36F000E2F
:104400003ABB010EF311F26F000E32AB010EF21740
:10441000000E26BB010EF56F000E2ABB010EF51132
:10442000F215F111F091E8B0F081000EF0B1010E3B
:10443000F16F000E36BD010EF36F000E3ABD010E96
:10444000F311F26F000E32AD010EF217000E26BD11
:10445000010EF56F000E2ABD010EF511F215F111D6
:10446000F091E8B0F081000EF0B1010EF16F000E96
:1044700036BF010EF36F000E3ABF010EF311F26F5B
:10448000000E32AF010EF217000E26BF010EF56FBF
:10449000000E2ABF010EF511F215F111F091E8B0EE
:1044A000F081000EF0B1010EF16F000E37B1010E78
:1044B000F36F000E3BB1010EF311F26F000E33A14A
:1044C000010EF217000E27B1010EF56F000E2BB191
:1044D000010EF511F215F111F091E8B0F081000E26
:1044E000F0B1010EF16F000E37B3010EF36F000E45
:1044F0003BB3010EF311F26F000E33A3010EF2175E
:10450000000E27B3010EF56F000E2BB3010EF5114F
:10451000F215F111F091E8B0F081000EF0B1010E4A
:10452000F16F000E37B5010EF36F000E3BB5010EB3
:10453000F311F26F000E33A5010EF217000E27B52E
:10454000010EF56F000E2BB5010EF511F215F111EC
:10455000F091E8B0F081000EF0B1010EF16F000EA5
:1045600037B7010EF36F000E3BB7010EF311F26F78
:10457000000E33A7010EF217000E27B7010EF56FDC
:10458000000E2BB7010EF511F215F111F091E8B004
:10459000F08157D2EF510208D8A453D2000E35B1A2
:1045A000010EF26F000E39B1010EF211F16F000E23
:1045B00031A1010EF117000E25A1010EF46F000EBE
:1045C00029B1010EF411F115F091E8B0F081000E5F
:1045D000F0B1010EF16F000E35B3010EF36F000E56
:1045E00039B3010EF311F26F000E31A3010EF21771
:1045F000000E25A3010EF56F000E29B3010EF51173
:10460000F215F111F091E8B0F081000EF0B1010E59
:10461000F16F000E35B5010EF36F000E39B5010EC6
:10462000F311F26F000E31A5010EF217000E25A551
:10463000010EF56F000E29B5010EF511F215F111FD
:10464000F091E8B0F081000EF0B1010EF16F000EB4
:1046500035B7010EF36F000E39B7010EF311F26F8B
:10466000000E31A7010EF217000E25A7010EF56FFF
:10467000000E29B7010EF511F215F111F091E8B015
:10468000F081000EF0B1010EF16F000E35B9010E90
:10469000F36F000E39B9010EF311F26F000E31A95C
:1046A000010EF217000E25A9010EF56F000E29B9B3
:1046B000010EF511F215F111F091E8B0F081000E44
:1046C000F0B1010EF16F000E35BB010EF36F000E5D
:1046D00039BB010EF311F26F000E31AB010EF21770
:1046E000000E25AB010EF56F000E29BB010EF51172
:1046F000F215F111F091E8B0F081000EF0B1010E69
:10470000F16F000E35BD010EF36F000E39BD010EC5
:10471000F311F26F000E31AD010EF217000E25AD50
:10472000010EF56F000E29BD010EF511F215F11104
:10473000F091E8B0F081000EF0B1010EF16F000EC3
:1047400035BF010EF36F000E39BF010EF311F26F8A
:10475000000E31AF010EF217000E25AF010EF56FFE
:10476000000E29BF010EF511F215F111F091E8B01C
:10477000F081000EF0B1010EF16F000E36B1010EA6
:10478000F36F000E3AB1010EF311F26F000E32A179
:10479000010EF217000E26A1010EF56F000E2AB1D0
:1047A000010EF511F215F111F091E8B0F081000E53
:1047B000F0B1010EF16F000E36B3010EF36F000E73
:1047C0003AB3010EF311F26F000E32A3010EF2178D
:1047D000000E26A3010EF56F000E2AB3010EF5118F
:1047E000F215F111F091E8B0F081000EF0B1010E78
:1047F000F16F000E36B5010EF36F000E3AB5010EE3
:10480000F311F26F000E32A5010EF217000E26A56D
:10481000010EF56F000E2AB5010EF511F215F1111A
:10482000F091E8B0F081000EF0B1010EF16F000ED2
:1048300036B7010EF36F000E3AB7010EF311F26FA7
:10484000000E32A7010EF217000E26A7010EF56F1B
:10485000000E2AB7010EF511F215F111F091E8B032
:10486000F081000EF0B1010EF16F000E36B9010EAD
:10487000F36F000E3AB9010EF311F26F000E32A978
:10488000010EF217000E26A9010EF56F000E2AB9CF
:10489000010EF511F215F111F091E8B0F081000E62
:1048A000F0B1010EF16F000E36BB010EF36F000E7A
:1048B0003ABB010EF311F26F000E32AB010EF2178C
:1048C000000E26AB010EF56F000E2ABB010EF5118E
:1048D000F215F111F091E8B0F081000EF0B1010E87
:1048E000F16F000E36BD010EF36F000E3ABD010EE2
:1048F000F311F26F000E32AD010EF217000E26AD6D
:10490000010EF56F000E2ABD010EF511F215F11121
:10491000F091E8B0F081000EF0B1010EF16F000EE1
:1049200036BF010EF36F000E3ABF010EF311F26FA6
:10493000000E32AF010EF217000E26AF010EF56F1A
:10494000000E2ABF010EF511F215F111F091E8B039
:10495000F081000EF0B1010EF16F000E37B1010EC3
:10496000F36F000E3BB1010EF311F26F000E33A195
:10497000010EF217000E27A1010EF56F000E2BB1EC
:10498000010EF511F215F111F091E8B0F081000E71
:10499000F0B1010EF16F000E37B3010EF36F000E90
:1049A0003BB3010EF311F26F000E33A3010EF217A9
:1049B000000E27A3010EF56F000E2BB3010EF511AB
:1049C000F215F111F091E8B0F081000EF0B1010E96
:1049D000F16F000E37B5010EF36F000E3BB5010EFF
:1049E000F311F26F000E33A5010EF217000E27A58A
:1049F000010EF56F000E2BB5010EF511F215F11138
:104A0000F091E8B0F081000EF0B1010EF16F000EF0
:104A100037B7010EF36F000E3BB7010EF311F26FC3
:104A2000000E33A7010EF217000E27A7010EF56F37
:104A3000000E2BB7010EF511F215F111F091E8B04F
:104A4000F081000EF0B1010E016E000112000101B3
:104A50002DA139D0000E15B1010E0201016F000E1B
:104A600001011DB1010E02010119010803E101015B
:104A700021B103D0010135A122D031B11FD035B110
:104A800007D060500F0804E1640E1C6E61C01DF079
:104A900035811AB202D0199101D019811AB80ED0FD
:104AA00029B105D0898892988986929607D025A148
:104AB00003D08988929802D08986929603D021A14A
:104AC00001D0319113D0000E15B1010E0201016F1A
:104AD000000E01011DB1010E02010119010804E1DE
:104AE0000101199103D00201010119812DA339D0CF
:104AF000000E15B3010E0201016F000E01011DB37E
:104B0000010E02010119010803E1010121B303D0E3
:104B1000010135A322D031B31FD035B307D0605087
:104B20000F0804E1640E1C6E61C01DF035831AB2DB
:104B300002D0199301D019831AB80ED029B305D029
:104B4000898892988986929607D025A303D0898870
:104B5000929802D08986929603D021A301D03193F6
:104B600013D0000E15B3010E0201016F000E0101FA
:104B70001DB3010E02010119010804E1010119939D
:104B800003D00201010119832DA539D0000E15B5FE
:104B9000010E0201016F000E01011DB5010E02019F
:104BA0000119010803E1010121B503D0010135A577
:104BB00022D031B51FD035B507D060500F0804E1C1
:104BC000640E1C6E61C01DF035851AB202D01995B5
:104BD00001D019851AB80ED029B505D089889298C8
:104BE0008986929607D025A503D08988929802D00D
:104BF0008986929603D021A501D0319513D0000E5D
:104C000015B5010E0201016F000E01011DB5010E67
:104C100002010119010804E10101199503D0020103
:104C2000010119852DA739D0000E15B7010E02011B
:104C3000016F000E01011DB7010E020101190108EB
:104C400003E1010121B703D0010135A722D031B71B
:104C50001FD035B707D060500F0804E1640E1C6EFA
:104C600061C01DF035871AB202D0199701D019879B
:104C70001AB80ED029B705D089889298898692965D
:104C800007D025A703D08988929802D0898692966A
:104C900003D021A701D0319713D0000E15B7010E14
:104CA0000201016F000E01011DB7010E0201011981
:104CB000010804E10101199703D0020101011987DC
:104CC0002DA939D0000E15B9010E0201016F000E99
:104CD00001011DB9010E02010119010803E10101E1
:104CE00021B903D0010135A922D031B91FD035B97E
:104CF00007D060500F0804E1640E1C6E61C01DF007
:104D000035891AB202D0199901D019891AB80ED072
:104D100029B905D0898892988986929607D025A9C5
:104D200003D08988929802D08986929603D021A9CF
:104D300001D0319913D0000E15B9010E0201016F97
:104D4000000E01011DB9010E02010119010804E163
:104D50000101199903D00201010119892DAB39D044
:104D6000000E15BB010E0201016F000E01011DBBFB
:104D7000010E02010119010803E1010121BB03D069
:104D8000010135AB22D031BB1FD035BB07D06050FD
:104D90000F0804E1640E1C6E61C01DF0358B1AB261
:104DA00002D0199B01D0198B1AB80ED029BB05D09F
:104DB000898892988986929607D025AB03D08988F6
:104DC000929802D08986929603D021AB01D0319B74
:104DD00013D0000E15BB010E0201016F000E010180
:104DE0001DBB010E02010119010804E10101199B1B
:104DF00003D002010101198B2DAD39D0000E15BD74
:104E0000010E0201016F000E01011DBD010E020124
:104E10000119010803E1010121BD03D0010135ADF4
:104E200022D031BD1FD035BD07D060500F0804E13E
:104E3000640E1C6E61C01DF0358D1AB202D0199D32
:104E400001D0198D1AB80ED029BD05D08988929845
:104E50008986929607D025AD03D08988929802D092
:104E60008986929603D021AD01D0319D13D0000EDA
:104E700015BD010E0201016F000E01011DBD010EE5
:104E800002010119010804E10101199D03D0020189
:104E90000101198D2DAF39D0000E15BF010E020191
:104EA000016F000E01011DBF010E02010119010871
:104EB00003E1010121BF03D0010135AF22D031BF91
:104EC0001FD035BF07D060500F0804E1640E1C6E80
:104ED00061C01DF0358F1AB202D0199F01D0198F11
:104EE0001AB80ED029BF05D08988929889869296E3
:104EF00007D025AF03D08988929802D089869296F0
:104F000003D021AF01D0319F13D0000E15BF010E89
:104F10000201016F000E01011DBF010E0201011906
:104F2000010804E10101199F03D002010101198F59
:104F30002EA139D0000E16B1010E0201016F000E34
:104F400001011EB1010E02010119010803E1010175
:104F500022B103D0010136A122D032B11FD036B127
:104F600007D060500F0804E1640E1C6E61C01DF094
:104F700036811AB202D01A9101D01A811AB80ED015
:104F80002AB105D0898892988986929607D026A161
:104F900003D08988929802D08986929603D022A164
:104FA00001D0329113D0000E16B1010E0201016F33
:104FB000000E01011EB1010E02010119010804E1F8
:104FC00001011A9103D0020101011A812EA339D0E7
:104FD000000E16B3010E0201016F000E01011EB397
:104FE000010E02010119010803E1010122B303D0FE
:104FF000010136A322D032B31FD036B307D06050A0
:105000000F0804E1640E1C6E61C01DF036831AB2F5
:1050100002D01A9301D01A831AB80ED02AB305D041
:10502000898892988986929607D026A303D089888A
:10503000929802D08986929603D022A301D032930F
:1050400013D0000E16B3010E0201016F000E010114
:105050001EB3010E02010119010804E101011A93B6
:1050600003D0020101011A832EA539D0000E16B516
:10507000010E0201016F000E01011EB5010E0201B9
:105080000119010803E1010122B503D0010136A590
:1050900022D032B51FD036B507D060500F0804E1DA
:1050A000640E1C6E61C01DF036851AB202D01A95CE
:1050B00001D01A851AB80ED02AB505D089889298E1
:1050C0008986929607D026A503D08988929802D027
:1050D0008986929603D022A501D0329513D0000E76
:1050E00016B5010E0201016F000E01011EB5010E81
:1050F00002010119010804E101011A9503D002011E
:1051000001011A852EA739D0000E16B7010E020133
:10511000016F000E01011EB7010E02010119010805
:1051200003E1010122B703D0010136A722D032B733
:105130001FD036B707D060500F0804E1640E1C6E14
:1051400061C01DF036871AB202D01A9701D01A87B3
:105150001AB80ED02AB705D0898892988986929677
:1051600007D026A703D08988929802D08986929684
:1051700003D022A701D0329713D0000E16B7010E2C
:105180000201016F000E01011EB7010E020101199B
:10519000010804E101011A9703D0020101011A87F5
:1051A0002EA939D0000E16B9010E0201016F000EB2
:1051B00001011EB9010E02010119010803E10101FB
:1051C00022B903D0010136A922D032B91FD036B995
:1051D00007D060500F0804E1640E1C6E61C01DF022
:1051E00036891AB202D01A9901D01A891AB80ED08B
:1051F0002AB905D0898892988986929607D026A9DF
:1052000003D08988929802D08986929603D022A9E9
:1052100001D0329913D0000E16B9010E0201016FB0
:10522000000E01011EB9010E02010119010804E17D
:1052300001011A9903D0020101011A892EAB39D05C
:10524000000E16BB010E0201016F000E01011EBB14
:10525000010E02010119010803E1010122BB03D083
:10526000010136AB22D032BB1FD036BB07D0605015
:105270000F0804E1640E1C6E61C01DF0368B1AB27B
:1052800002D01A9B01D01A8B1AB80ED02ABB05D0B7
:10529000898892988986929607D026AB03D0898810
:1052A000929802D08986929603D022AB01D0329B8D
:1052B00013D0000E16BB010E0201016F000E01019A
:1052C0001EBB010E02010119010804E101011A9B34
:1052D00003D0020101011A8B2EAD39D0000E16BD8C
:1052E000010E0201016F000E01011EBD010E02013F
:1052F0000119010803E1010122BD03D0010136AD0E
:1053000022D032BD1FD036BD07D060500F0804E157
:10531000640E1C6E61C01DF0368D1AB202D01A9D4B
:1053200001D01A8D1AB80ED02ABD05D0898892985E
:105330008986929607D026AD03D08988929802D0AC
:105340008986929603D022AD01D0329D13D0000EF3
:1053500016BD010E0201016F000E01011EBD010EFE
:1053600002010119010804E101011A9D03D00201A3
:1053700001011A8D2EAF39D0000E16BF010E0201A9
:10538000016F000E01011EBF010E0201011901088B
:1053900003E1010122BF03D0010136AF22D032BFA9
:1053A0001FD036BF07D060500F0804E1640E1C6E9A
:1053B00061C01DF0368F1AB202D01A9F01D01A8F29
:1053C0001AB80ED02ABF05D08988929889869296FD
:1053D00007D026AF03D08988929802D0898692960A
:1053E00003D022AF01D0329F13D0000E16BF010EA2
:1053F0000201016F000E01011EBF010E0201011921
:10540000010804E101011A9F03D0020101011A8F72
:105410002FA139D0000E17B1010E0201016F000E4D
:1054200001011FB1010E02010119010803E101018F
:1054300023B103D0010137A122D033B11FD037B13E
:1054400007D060500F0804E1640E1C6E61C01DF0AF
:1054500037811AB202D01B9101D01B811AB80ED02D
:105460002BB105D0898892988986929607D027A17A
:1054700003D08988929802D08986929603D023A17E
:1054800001D0339113D0000E17B1010E0201016F4C
:10549000000E01011FB1010E02010119010804E112
:1054A00001011B9103D0020101011B812FA339D0FF
:1054B000000E17B3010E0201016F000E01011FB3B0
:1054C000010E02010119010803E1010123B303D018
:1054D000010137A322D033B31FD037B307D06050B8
:1054E0000F0804E1640E1C6E61C01DF037831AB210
:1054F00002D01B9301D01B831AB80ED02BB305D05A
:10550000898892988986929607D027A303D08988A4
:10551000929802D08986929603D023A301D0339328
:1055200013D0000E17B3010E0201016F000E01012E
:105530001FB3010E02010119010804E101011B93CF
:1055400003D0020101011B832FA539D0000E17B52E
:10555000010E0201016F000E01011FB5010E0201D3
:105560000119010803E1010123B503D0010137A5A9
:1055700022D033B51FD037B507D060500F0804E1F3
:10558000640E1C6E61C01DF037851AB202D01B95E7
:1055900001D01B851AB80ED02BB505D089889298FA
:1055A0008986929607D027A503D08988929802D041
:1055B0008986929603D023A501D0339513D0000E8F
:1055C00017B5010E0201016F000E01011FB5010E9A
:1055D00002010119010804E101011B9503D0020138
:1055E00001011B852FA739D0000E17B7010E02014C
:1055F000016F000E01011FB7010E02010119010820
:1056000003E1010123B703D0010137A722D033B74B
:105610001FD037B707D060500F0804E1640E1C6E2E
:1056200061C01DF037871AB202D01B9701D01B87CB
:105630001AB80ED02BB705D0898892988986929691
:1056400007D027A703D08988929802D0898692969E
:1056500003D023A701D0339713D0000E17B7010E44
:105660000201016F000E01011FB7010E02010119B5
:10567000010804E101011B9703D0020101011B870E
:10568000000E15B1010E0201016F000E01011DB1E6
:10569000010E02010119010804E1010121A104D058
:1056A00002011AAA29D0010139B109D060500F08AE
:1056B00006E131B104D0640E1C6E61C01DF0398169
:1056C00031B117D01AB202D0199101D019811AB88C
:1056D00010D02DA10ED029B105D089889298898645
:1056E000929607D025A103D08988929802D0898606
:1056F0009296010EE46F56D0010121B153D0399139
:105700003191198125B102D029B10DD0E4530BE1BB
:10571000010EEF6F000173EC20F0012C01D002D0DC
:1057200089989298010125A102D029B10FD0E453A4
:105730000DE1020EEF6F000173EC20F0012C01D09F
:1057400004D08996929689989298010139B12AD00D
:1057500039B328D039B526D039B724D039B922D0B9
:1057600039BB20D039BD1ED039BF1CD03AB11AD0B8
:105770003AB318D03AB516D03AB714D03AB912D0D5
:105780003ABB10D03ABD0ED03ABF0CD03BB10AD0D4
:105790003BB308D03BB506D03BB704D08996929670
:1057A00089989298000E15B3010E0201016F000E48
:1057B00001011DB3010E02010119010804E10101FB
:1057C00021A304D002011AAA29D0010139B309D0BA
:1057D00060500F0806E131B304D0640E1C6E61C046
:1057E0001DF0398331B317D01AB202D0199301D00A
:1057F00019831AB810D02DA30ED029B305D08988EB
:1058000092988986929607D025A303D0898892988A
:1058100002D089869296010EE46F56D0010121B321
:1058200053D039933193198325B302D029B30DD0C6
:10583000E4530BE1010EEF6F000173EC20F0012C3B
:1058400001D002D089989298010125A302D029B3F2
:105850000FD0E4530DE1020EEF6F000173EC20F066
:10586000012C01D004D089969296899892980101D2
:1058700039B12AD039B328D039B526D039B724D098
:1058800039B922D039BB20D039BD1ED039BF1CD088
:105890003AB11AD03AB318D03AB516D03AB714D0B4
:1058A0003AB912D03ABB10D03ABD0ED03ABF0CD0A4
:1058B0003BB10AD03BB308D03BB506D03BB704D0D0
:1058C0008996929689989298000E15B5010E02015C
:1058D000016F000E01011DB5010E02010119010841
:1058E00004E1010121A504D002011AAA29D0010175
:1058F00039B509D060500F0806E131B504D0640E07
:105900001C6E61C01DF0398531B517D01AB202D0B6
:10591000199501D019851AB810D02DA50ED029B52A
:1059200005D0898892988986929607D025A503D0BC
:105930008988929802D089869296010EE46F56D09B
:10594000010121B553D039953195198525B502D07E
:1059500029B50DD0E4530BE1010EEF6F000173EC9C
:1059600020F0012C01D002D089989298010125A540
:1059700002D029B50FD0E4530DE1020EEF6F000104
:1059800073EC20F0012C01D004D08996929689986E
:105990009298010139B12AD039B328D039B526D02F
:1059A00039B724D039B922D039BB20D039BD1ED067
:1059B00039BF1CD03AB11AD03AB318D03AB516D084
:1059C0003AB714D03AB912D03ABB10D03ABD0ED083
:1059D0003ABF0CD03BB10AD03BB308D03BB506D0A0
:1059E0003BB704D08996929689989298000E15B785
:1059F000010E0201016F000E01011DB7010E02012F
:105A00000119010804E1010121A704D002011AAA29
:105A100029D0010139B709D060500F0806E131B72C
:105A200004D0640E1C6E61C01DF0398731B717D0E9
:105A30001AB202D0199701D019871AB810D02DA721
:105A40000ED029B705D0898892988986929607D07A
:105A500025A703D08988929802D089869296010E54
:105A6000E46F56D0010121B753D039973197198788
:105A700025B702D029B70DD0E4530BE1010EEF6F2B
:105A8000000173EC20F0012C01D002D0899892988B
:105A9000010125A702D029B70FD0E4530DE1020E72
:105AA000EF6F000173EC20F0012C01D004D0899637
:105AB000929689989298010139B12AD039B328D0A9
:105AC00039B526D039B724D039B922D039BB20D046
:105AD00039BD1ED039BF1CD03AB11AD03AB318D054
