:0400000044EF5DF07C
:08000800046ED8CF05F0E0CF33
:1000100006F00001E9CF0CF0EACF07F0E1CF08F0DD
:10002000E2CF09F0D9CF0AF0DACF0BF0F3CF12F01C
:10003000F4CF13F0FACF14F0F5CF15F0F6CF16F099
:10004000F7CF17F000C00EF001C00FF002C010F0A3
:1000500003C011F09DA230EF00F09EB2C9EF02F094
:100060009DAA36EF00F09EBAC1EF02F00EC000F07C
:100070000FC001F010C002F011C003F00CC0E9FF86
:1000800007C0EAFF078E08C0E1FF09C0E2FF0AC00F
:10009000D9FF0BC0DAFF12C0F3FF13C0F4FF14C086
:1000A000FAFF15C0F5FF16C0F6FF17C0F7FF0450A2
:1000B00006C0E0FF05C0D8FF1000F76ACA0FF66E51
:1000C000000EF7220900F550120000C1814001C066
:1000D000804101C0804100C1814001C0804100C118
:1000E000814000C1814001C0804101C0804100C108
:1000F000814000C1814001C0804100C1814001C0F8
:10010000804101C0804100C1814001C0804100C1E7
:10011000814000C1814001C0804100C1814001C0D7
:10012000804101C0804100C1814000C1814001C0C7
:10013000804101C0804100C1814001C0804100C1B7
:10014000814000C1814001C0804101C0804100C1A7
:10015000814000C1814001C0804100C1814001C097
:10016000804101C0804100C1814000C1814001C087
:10017000804101C0804100C1814001C0804100C177
:10018000814000C1814001C0804100C1814001C067
:10019000804101C0804100C1814001C0804100C157
:1001A000814000C1814001C0804101C0804100C147
:1001B000814000C1814001C0804100C1814001C037
:1001C000804101C0804100C18140F76ADA0FF66EBC
:1001D000010EF7220900F550120000C0C101C3034F
:1001E00002C2C60607C705C5C404CC0C0DCD0FCF8F
:1001F000CE0E0ACACB0BC90908C8D81819D91BDBFF
:10020000DA1A1EDEDF1FDD1D1CDC14D4D515D7174E
:1002100016D6D21213D311D1D010F03031F133F3FE
:10022000F23236F6F737F53534F43CFCFD3DFF3F4E
:100230003EFEFA3A3BFB39F9F83828E8E929EB2B7E
:100240002AEAEE2E2FEF2DEDEC2CE42425E527E70E
:10025000E62622E2E323E12120E0A06061A163A37E
:10026000A26266A6A767A56564A46CACAD6DAF6F0E
:100270006EAEAA6A6BAB69A9A86878B8B979BB7B7E
:100280007ABABE7E7FBF7DBDBC7CB47475B577B7CE
:10029000B67672B2B373B17170B0509091519353FE
:1002A000529296565797559594549C5C5D9D5F9FCE
:1002B0009E5E5A9A9B5B99595898884849894B8BFE
:1002C0008A4A4E8E8F4F8D4D4C8C4484854587478E
:1002D00046868242438341818040040066516F5DBF
:1002E00013E1716B720E7125E96E020EEA6ED8B0E1
:1002F000EA2A2EC0EFFF0400712B100E6F6F140E50
:100300000A017D6F3BD100016F5110085CE1720E54
:100310007125E96E020EEA6ED8B0EA2A2EC0EFFF10
:100320000400712B010E715D720FE96E020EEA6E10
:10033000D8B0EA2AEF50160807E367C06FF0140E32
:100340000A017D6F3ED00001010E715D720FE96EF2
:10035000020EEA6ED8B0EA2AEF50200807E16AC020
:100360006FF0140E0A017D6F2CD00001010E715D3B
:10037000720FE96E020EEA6ED8B0EA2AEF50210839
:1003800007E16DC06FF0140E0A017D6F1AD00001F5
:10039000010E715D720FE96E020EEA6ED8B0EA2AA4
:1003A000EF50220807E16CC06FF0140E0A017D6F58
:1003B00008D00001716B66C06FF00A017D6B8A96F0
:1003C0009396DCD000016C516F5D12E1720E7125C5
:1003D000E96E020EEA6ED8B0EA2A2EC0EFFF0400E2
:1003E000712B6DC06FF0140E0A017D6FC7D0000134
:1003F0006D516F5D2BE1720E7125E96E020EEA6E92
:10040000D8B0EA2A2EC0EFFF0400712B020173510D
:10041000220809E17451640DF35075250A017E6FBD
:100420007F6B0ED00201010E0001715D720FE96E4B
:10043000020EEA6ED8B0EA2A0A017F6BEFCF7EFA8D
:10044000140E7D6F6EC06FF099D000016E516F5D1C
:100450001AE1720E7125E96E020EEA6ED8B0EA2A30
:100460002EC0EFFF0400712B0A017E51D8B47F0724
:100470007E077E5304E17F5302E16AC06FF0140EE1
:100480007D6F7CD0000167516F5D12E1720E7125A6
:10049000E96E020EEA6ED8B0EA2A2EC0EFFF040021
:1004A000712B68C06FF0140E0A017D6F67D00001D8
:1004B00068516F5D12E1720E7125E96E020EEA6EEF
:1004C000D8B0EA2A2EC0EFFF0400712B69C06FF08C
:1004D000140E0A017D6F52D0000169516F5D12E167
:1004E000720E7125E96E020EEA6ED8B0EA2A2EC0AD
:1004F000EFFF0400712B150E6F6F140E0A017D6F54
:100500003DD000016F51150812E1720E7125E96EA0
:10051000020EEA6ED8B0EA2A2EC0EFFF0400712B5B
:100520006AC06FF0140E0A017D6F28D000016A5175
:100530006F5D12E1720E7125E96E020EEA6ED8B09F
:10054000EA2A2EC0EFFF0400712B6BC06FF0140E6F
:100550000A017D6F13D000016B516F5D0FE1720EC8
:100560007125E96E020EEA6ED8B0EA2A2EC0EFFFBE
:10057000040066C06FF00A017D6B308C0001C6EF8D
:1005800002F09EAAFED7AECF2EF0A7D69E9A36EFE7
:1005900000F0192A0A017D5307E07D077D5304E12D
:1005A00066C06FF08A9693961C5215E01C061C528A
:1005B00012E11D5204E01D061D5201E11A840001E2
:1005C000652B6551010803E2308A020E656F3086A3
:1005D000640E1C6E0A011950280814E1196A1AB039
:1005E00004D01A808A8A939A03D01A908A9A939A8E
:1005F0001AAC07D02F5201E02F062F5201E11A8AC0
:1006000001D02F6A1B5213E01B061B520AE18069BE
:1006100030B205D01AA202D01A9201D01A8262C05A
:100620001BF0315204E03106315201E130929E92CA
:10063000000136EF00F041542B434D47463D310059
:1006400041542B434D47533D220041542B434D47CA
:10065000463D310041542B434D47533D2200415408
:100660002B434D47463D310041542B434D47533DAD
:10067000220041542B434D47463D310041542B430A
:100680004D47533D220041542B434D47463D3100D9
:1006900041542B434D47533D220041542B434D477A
:1006A000463D310041542B434D47533D22004154B8
:1006B0002B434D47463D310041542B434D47533D5D
:1006C000220041542B434D47463D310041542B43BA
:1006D0004D47533D220041542B434D47463D310089
:1006E00041542B434D47533D220041542B434D472A
:1006F000463D310041542B434D47533D2200415468
:100700002B434D47463D310041542B434D47533D0C
:10071000220041542B434D47463D310041542B4369
:100720004D47533D220041542B434D47463D310038
:1007300041542B434D47533D220041542B434D47D9
:10074000463D310041542B434D47533D2200415417
:100750002B434D47463D310041542B434D47533DBC
:10076000220041542B434D47463D310041542B4319
:100770004D47533D220041542B434D47463D3100E8
:1007800041542B434D47533D220041542B434D4789
:10079000463D310041542B434D47533D22004154C7
:1007A0002B434D47463D310041542B434D47533D6C
:1007B000220041542B434D47463D310041542B43C9
:1007C0004D47533D220041542B434D47463D310098
:1007D00041542B434D47533D220041542B434D4739
:1007E000463D310041542B434D47533D2200415477
:1007F0002B434D47463D310041542B434D47533D1C
:10080000220041542B434D47463D310041542B4378
:100810004D47533D220041542B434D47463D310047
:1008200041542B434D47533D220041542B434D47E8
:10083000463D310041542B434D47533D2200415426
:100840002B434D47463D310041542B434D47533DCB
:10085000220041542B434D47463D310041542B4328
:100860004D47533D220041542B434D47463D3100F7
:1008700041542B434D47533D220041542B434D4798
:10088000463D310041542B434D47533D22004154D6
:100890002B434D47463D310041542B434D47533D7B
:1008A000220041542B434D47463D310041542B43D8
:1008B0004D47533D220041542B434D47463D3100A7
:1008C00041542B434D47533D220041542B434D4748
:1008D000463D310041542B434D47533D2200415486
:1008E0002B434D47463D310041542B434D47533D2B
:1008F000220041542B434D47463D310041542B4388
:100900004D47533D220041542B434D47463D310056
:1009100041542B434D47533D220041542B434D47F7
:10092000463D310041542B434D47533D2200415435
:100930002B434D47463D310041542B434D47533DDA
:10094000220041542B434D47463D310041542B4337
:100950004D47533D220041542B434D47533D220008
:1009600041542B434D47533D220041542B434D47A7
:10097000533D220041542B434D47533D22004154E7
:100980002B434D47533D220041542B434D47533D8C
:10099000220041542B434D47533D220041542B43E9
:1009A0004D47533D220041542B434D47533D2200B8
:1009B00041542B434D47533D220041542B434D4757
:1009C000533D220041542B434D47533D2200415497
:1009D0002B434D47533D220041542B434D47533D3C
:1009E000220041542B434D47533D220041542B4399
:1009F0004D47533D220041542B434D47533D220068
:100A000041542B434D47533D220041542B434D4706
:100A1000533D220041542B434D47533D2200415446
:100A20002B434D47463D31000D0EEA6ECC0EE96E6C
:100A3000EF5011E0050E016EBF0E006E0400002E97
:100A4000FDD7012EF9D72E0E006E002EFED7000026
:100A50000400EF2EEFD71200929A899A0D01CD5122
:100A60004009D06FC950D0CDC9FFC730FEE3C9508F
:100A7000CECDC9FFC730FEE3C950CFCDC9FFC730C7
:100A8000FEE3929A898A00011200929A898A929AC8
:100A90000D01CD6B0A0ECE6FAA0ECF6F0001DCDF09
:100AA000020E0D01CD6F0A0ECE6FAA0ECF6F0001A0
:100AB000D3DF040E0D01CD6F0A0ECE6FAA0ECF6FDD
:100AC0000001CADF060E0D01CD6F0A0ECE6FAA0E11
:100AD000CF6F0001C1DF080E0D01CD6F0A0ECE6F82
:100AE000AA0ECF6F0001B8DF0A0E0D01CD6FCE6FD9
:100AF000AA0ECF6F0001B0DF0C0E0D01CD6F0A0EF4
:100B0000CE6FAA0ECF6F0001A7DF0E0E0D01CD6FC5
:100B10000A0ECE6FAA0ECF6F00019EDFC9EF5DF007
:100B2000C3CDCDFD0D01CE6BC4CDCFFD000194DF53
:100B30001200C3CDCDFD100E0D01CE6FC4CDCFFD83
:100B400000018ADF1200F2CFCDFDF29EAA6A010EEB
:100B5000A96EA69CA69EA680A8500D01CDBFF28EC0
:100B6000396E39C03AF0189139B01881D8903930BF
:100B70001893E8B018833930006E00323F0E00162B
:100B8000189500B018853930006E003200321F0E03
:100B90000016189700B018873938006E0F0E00162F
:100BA000189900B018893938006E0032070E001607
:100BB000189B00B0188B3938006E00320032030EDB
:100BC0000016189D00B0188D006A39BE0080189F6D
:100BD00000B0188FF2CFCDFDF29EAA6A020EA96E68
:100BE000A69CA69EA680A850CDBFF28E396E39C0B5
:100BF0003BF0199139B01981D89039301993E8B088
:100C000019833930006E00323F0E0016199500B07E
:100C100019853930006E003200321F0E0016199708
:100C200000B019873938006E0F0E0016199900B000
:100C300019893938006E0032070E0016199B00B072
:100C4000198B3938006E00320032030E0016199DE0
:100C500000B0198D006A39BE0080199F00B0198F4D
:100C6000F2CFCDFDF29EAA6A030EA96EA69CA69EA7
:100C7000A680A850CDBFF28E396E39C03CF01A91D3
:100C800039B01A81D89039301A93E8B01A833930C4
:100C9000006E00323F0E00161A9500B01A853930EA
:100CA000006E003200321F0E00161A9700B01A872D
:100CB0003938006E0F0E00161A9900B01A893938AB
:100CC000006E0032070E00161A9B00B01A8B3938DE
:100CD000006E00320032030E00161A9D00B01A8D0D
:100CE000006A39BE00801A9F00B01A8FA69318B10F
:100CF000A683A69518B3A685A69718B5A687A69924
:100D000018B7A689A69B18B9A68BA69D18BBA68D59
:100D1000A69F18BDA68FA79118BFA781A79319B149
:100D2000A783A79519B3A785A79719B5A787A799EB
:100D300019B7A789A79B19B9A78BA79D19BBA78D21
:100D4000A79F19BDA78FA89119BFA881A8931AB111
:100D5000A883A8951AB3A885A8971AB5A887A899B3
:100D60001AB7A889F2CFCDFDF29EAA6A040EA96E29
:100D7000A69CA69EA680A850CDBFF28E396E39C023
:100D80003DF01C9139B01C81D89039301C93E8B0EB
:100D90001C833930006E00323F0E00161C9500B0E7
:100DA0001C853930006E003200321F0E00161C9771
:100DB00000B01C873938006E0F0E00161C9900B069
:100DC0001C893938006E0032070E00161C9B00B0DB
:100DD0001C8B3938006E00320032030E00161C9D49
:100DE00000B01C8D006A39BE00801C9F00B01C8FB3
:100DF000F2CFCDFDF29EAA6A050EA96EA69CA69E14
:100E0000A680A850CDBFF28E396E39C03EF01D913C
:100E100039B01D81D89039301D93E8B01D83393029
:100E2000006E00323F0E00161D9500B01D85393052
:100E3000006E003200321F0E00161D9700B01D8795
:100E40003938006E0F0E00161D9900B01D89393813
:100E5000006E0032070E00161D9B00B01D8B393846
:100E6000006E00320032030E00161D9D00B01D8D75
:100E7000006A39BE00801D9F00B01D8FF2CFCDFDEE
:100E8000F29EAA6A060EA96EA69CA69EA680A850EF
:100E9000CDBFF28E396E39C03FF01E9139B01E8140
:100EA000D89039301E93E8B01E833930006E00327E
:100EB0003F0E00161E9500B01E853930006E0032C0
:100EC00000321F0E00161E9700B01E873938006EC4
:100ED0000F0E00161E9900B01E893938006E0032C0
:100EE000070E00161E9B00B01E8B3938006E0032B4
:100EF0000032030E00161E9D00B01E8D006A39BE22
:100F000000801E9F00B01E8FF2CFCDFDF29EAA6A18
:100F1000070EA96EA69CA69EA680A850CDBFF28EF5
:100F2000396E39C040F0209139B02081D8903930E5
:100F30002093E8B020833930006E00323F0E001657
:100F4000209500B020853930006E003200321F0E2F
:100F50000016209700B020873938006E0F0E00165B
:100F6000209900B020893938006E0032070E001633
:100F7000209B00B0208B3938006E00320032030E07
:100F80000016209D00B0208D006A39BE0080209F91
:100F900000B0208FF2CFCDFDF29EAA6A080EA96E96
:100FA000A69CA69EA680A850CDBFF28E396E39C0F1
:100FB00041F0219139B02181D89039302193E8B0A6
:100FC00021833930006E00323F0E0016219500B0AB
:100FD00021853930006E003200321F0E0016219735
:100FE00000B021873938006E0F0E0016219900B02D
:100FF00021893938006E0032070E0016219B00B09F
:10100000218B3938006E00320032030E0016219D0C
:1010100000B0218D006A39BE0080219F00B0218F71
:10102000F2CFCDFDF29EAA6A090EA96EA69CA69EDD
:10103000A680A850CDBFF28E396E39C042F0229101
:1010400039B02281D89039302293E8B022833930E8
:10105000006E00323F0E0016229500B02285393016
:10106000006E003200321F0E0016229700B0228759
:101070003938006E0F0E0016229900B022893938D7
:10108000006E0032070E0016229B00B0228B39380A
:10109000006E00320032030E0016229D00B0228D39
:1010A000006A39BE0080229F00B0228FF2CFCDFDB2
:1010B000F29EAA6A0A0EA96EA69CA69EA680A850B9
:1010C000CDBFF28E396E39C043F0249139B02481FE
:1010D000D89039302493E8B024833930006E003240
:1010E0003F0E0016249500B024853930006E003282
:1010F00000321F0E0016249700B024873938006E86
:101100000F0E0016249900B024893938006E003281
:10111000070E0016249B00B0248B3938006E003275
:101120000032030E0016249D00B0248D006A39BEE3
:101130000080249F00B0248FF2CFCDFDF29EAA6ADA
:101140000B0EA96EA69CA69EA680A850CDBFF28EBF
:10115000396E39C044F0259139B02581D8903930A5
:101160002593E8B025833930006E00323F0E00161B
:10117000259500B025853930006E003200321F0EF3
:101180000016259700B025873938006E0F0E00161F
:10119000259900B025893938006E0032070E0016F7
:1011A000259B00B0258B3938006E00320032030ECB
:1011B0000016259D00B0258D006A39BE0080259F50
:1011C00000B0258FF2CFCDFDF29EAA6A0C0EA96E5B
:1011D000A69CA69EA680A850CDBFF28E396E39C0BF
:1011E00045F0269139B02681D89039302693E8B061
:1011F00026833930006E00323F0E0016269500B06F
:1012000026853930006E003200321F0E00162697F8
:1012100000B026873938006E0F0E0016269900B0F0
:1012200026893938006E0032070E0016269B00B062
:10123000268B3938006E00320032030E0016269DD0
:1012400000B0268D006A39BE0080269F00B0268F30
:10125000F2CFCDFDF29EAA6A0D0EA96EA69CA69EA7
:10126000A680A850CDBFF28E396E39C046F02891C5
:1012700039B02881D89039302893E8B028833930A4
:10128000006E00323F0E0016289500B028853930D8
:10129000006E003200321F0E0016289700B028871B
:1012A0003938006E0F0E0016289900B02889393899
:1012B000006E0032070E0016289B00B0288B3938CC
:1012C000006E00320032030E0016289D00B0288DFB
:1012D000006A39BE0080289F00B0288FF2CFCDFD74
:1012E000F29EAA6A0E0EA96EA69CA69EA680A85083
:1012F000CDBFF28E396E39C047F0299139B02981BE
:10130000D89039302993E8B029833930006E003203
:101310003F0E0016299500B029853930006E003245
:1013200000321F0E0016299700B029873938006E49
:101330000F0E0016299900B029893938006E003245
:10134000070E0016299B00B0298B3938006E003239
:101350000032030E0016299D00B0298D006A39BEA7
:101360000080299F00B0298FF2CFCDFDF29EAA6A9E
:101370000F0EA96EA69CA69EA680A850CDBFF28E89
:10138000396E39C048F02A9139B02A81D890393065
:101390002A93E8B02A833930006E00323F0E0016DF
:1013A0002A9500B02A853930006E003200321F0EB7
:1013B00000162A9700B02A873938006E0F0E0016E3
:1013C0002A9900B02A893938006E0032070E0016BB
:1013D0002A9B00B02A8B3938006E00320032030E8F
:1013E00000162A9D00B02A8D006A39BE00802A9F0F
:1013F00000B02A8FF2CFCDFDF29EAA6A100EA96E20
:10140000A69CA69EA680A850CDBFF28E396E4091B4
:1014100039B04081D89039304093E8B040833930BA
:10142000006E00323F0E0016409500B04085393006
:10143000006E003200321F0E0016409700B0408749
:101440003938006E0F0E0016409900B040893938C7
:10145000006E0032070E0016409B00B0408B3938FA
:10146000006E00320032030E0016409D00B0408D29
:10147000006A39BE0080409F00B0408FF2CFCDFDA2
:10148000F29EAA6A110EA96EA69CA69EA680A850DE
:10149000CDBFF28E396E419139B04181D89039304B
:1014A0004193E8B04183F2CFCDFDF29EAA6A120EBD
:1014B000A96EA69CA69EA680A850CDBFF28E396EBE
:1014C000419539B04185D89039304197E8B041878E
:1014D0003930006E00323F0E0016419900B041894C
:1014E0003930006E003200321F0E0016419B00B0F2
:1014F000418B3938006E0F0E0016419D00B0418DB2
:101500003938006E0032070E0016419F00B0418F3F
:101510003938006E00320032030E0016429100B0DE
:101520004281006A39BE0080429300B04283F2CF0C
:10153000CDFDF29EAA6A130EA96EA69CA69EA68059
:10154000A850CDBFF28E396E429539B04285D89001
:1015500039304297E8B04287F2CFCDFDF29EAA6AB9
:10156000140EA96EA69CA69EA680A850CDBFF28E92
:10157000396E449139B04481D89039304493E8B001
:1015800044833930006E00323F0E0016449500B09F
:1015900044853930006E003200321F0E0016449729
:1015A00000B044873938006E0F0E0016449900B021
:1015B00044893938006E0032070E0016449B00B093
:1015C000448B3938006E00320032030E0016449D01
:1015D00000B0448D006A39BE0080449F00B0448F43
:1015E000F2CFCDFDF29EAA6A150EA96EA69CA69E0C
:1015F000A680A850CDBFF28E396E459139B0458195
:10160000D89039304593E8B04583F2CFCDFDF29EB6
:10161000AA6A160EA96EA69CA69EA680A850CDBF4B
:10162000F28E396E459539B04585D8903930459759
:10163000E8B045873930006E00323F0E00164599FC
:1016400000B045893930006E003200321F0E00169E
:10165000459B00B0458B3938006E0F0E0016459D36
:1016600000B0458D3938006E0032070E0016459FD8
:1016700000B0458F3938006E00320032030E00167C
:10168000469100B04681006A39BE0080469300B0A2
:101690004683F2CFCDFDF29EAA6A170EA96EA69CD4
:1016A000A69EA680A850CDBFF28E396E469539B061
:1016B0004685D89039304697E8B04687F2CFCDFDC1
:1016C000F29EAA6A180EA96EA69CA69EA680A85095
:1016D000CDBFF28E0001606FF2CFCDFDF29EAA6AFF
:1016E000190EA96EA69CA69EA680A8500D01CDBF7E
:1016F000F28E0001616FF2CFCDFDF29EAA6A1A0E42
:10170000A96EA69CA69EA680A8500D01CDBFF28E04
:101710000001626FF2CFCDFDF29EAA6A1B0EA96E88
:10172000A69CA69EA680A8500D01CDBFF28E0001FA
:10173000636FF2CFCDFDF29EAA6A1C0EA96EA69C25
:10174000A69EA680A8500D01CDBFF28E7D6B7C6F4A
:10175000F2CFCDFDF29EAA6A1D0EA96EA69CA69E92
:10176000A680A850CDBFF28E0001706FF2CFCDFDE4
:10177000F29EAA6A1E0EA96EA69CA69EA680A850DE
:101780000D01CDBFF28E7F6B7E6FF2CFCDFDF29E4D
:10179000AA6A1F0EA96EA69CA69EA680A850CDBFC1
:1017A000F28E816B806FF2CFCDFDF29EAA6A200E81
:1017B000A96EA69CA69EA680A850CDBFF28E836B74
:1017C000826FF2CFCDFDF29EAA6A210EA96EA69C71
:1017D000A69EA680A850CDBFF28E856B846FF2CFF7
:1017E000CDFDF29EAA6A220EA96EA69CA69EA68098
:1017F000A850CDBFF28E876B866FF2CFCDFDF29EE3
:10180000AA6A230EA96EA69CA69EA680A850CDBF4C
:10181000F28E896B886FF2CFCDFDF29EAA6A240EFC
:10182000A96EA69CA69EA680A850CDBFF28E8B6BFB
:101830008A6FF2CFCDFDF29EAA6A250EA96EA69CF4
:10184000A69EA680A850CDBFF28E8D6B8C6FF2CF76
:10185000CDFDF29EAA6A260EA96EA69CA69EA68023
:10186000A850CDBFF28E8F6B8E6FF2CFCDFDF29E62
:10187000AA6A270EA96EA69CA69EA680A850CDBFD8
:10188000F28E916B906FF2CFCDFDF29EAA6A280E78
:10189000A96EA69CA69EA680A850CDBFF28E936B83
:1018A000926FF2CFCDFDF29EAA6A290EA96EA69C78
:1018B000A69EA680A850CDBFF28E956B946FF2CFF6
:1018C000CDFDF29EAA6A2A0EA96EA69CA69EA680AF
:1018D000A850CDBFF28E976B966FF2CFCDFDF29EE2
:1018E000AA6A2B0EA96EA69CA69EA680A850CDBF64
:1018F000F28E996B986FF2CFCDFDF29EAA6A2C0EF4
:10190000A96EA69CA69EA680A850CDBFF28E9B6B0A
:101910009A6FF2CFCDFDF29EAA6A2D0EA96EA69CFB
:10192000A69EA680A850CDBFF28E9D6B9C6FF2CF75
:10193000CDFDF29EAA6A2E0EA96EA69CA69EA6803A
:10194000A850CDBFF28E9F6B9E6FF2CFCDFDF29E61
:10195000AA6A2F0EA96EA69CA69EA680A850CDBFEF
:10196000F28EA16BA06FF2CFCDFDF29EAA6A300E6F
:10197000A96EA69CA69EA680A850CDBFF28EA36B92
:10198000A26FF2CFCDFDF29EAA6A310EA96EA69C7F
:10199000A69EA680A850CDBFF28EA56BA46FC36B88
:1019A0000400320EC325CD6FF2CFCEFDF29EAA6A9F
:1019B000CDCDA9FFA69CA69EA680A850CEBFF28E34
:1019C000C46FC4510D0803E0C3510F0824E2036A39
:1019D000C351810FE96E0A0E0320EA6EEF6A320EE0
:1019E000C325CD6FF250006EF29EAA6ACDCDA9FF3D
:1019F000C4CDA8FFA69CA69EA6840F01550EA76E77
:101A0000AA0EA76EA682A6B2FED7A6940050F21226
:101A100010D00BD00D01036AC351810FE96E0A0E7D
:101A20000320EA6EC4CDEFFF0F010D01C32BB8D721
:101A30000F010D01C66B030EC56FC86BC76BCA6B78
:101A4000C96B04005D0EC525CD6F000EC621CE6F9B
:101A5000F2CFCFFDF29ECECDAAFFCDCDA9FFA69CA1
:101A6000A69EA680A850CFBFF28ECC6BCB6FCB5179
:101A70000D0802E1CC5305E0C85303E1C7511E082D
:101A800009E2900EC725E96E0A0EC821EA6EEF6AD8
:101A900013D008D0900EC725E96E0A0EC821EA6E51
:101AA000CBCDEFFFC6CD03F0C551C52BD8B4C62BA7
:101AB000C72BD8B4C82BC5D7C52BD8B4C62BC86B79
:101AC000C76B04005D0EC525CD6F000EC621CE6F1D
:101AD000F2CFCFFDF29ECECDAAFFCDCDA9FFA69C21
:101AE000A69EA680A850CFBFF28ECC6BCB6FCB51F9
:101AF0000D0802E1CC5305E0C85303E1C7511E08AD
:101B000009E2B00EC725E96E0A0EC821EA6EEF6A37
:101B100013D008D0B00EC725E96E0A0EC821EA6EB0
:101B2000CBCDEFFFC6CD03F0C551C52BD8B4C62B26
:101B3000C72BD8B4C82BC5D7C52BD8B4C62BC86BF8
:101B4000C76B04005D0EC525CD6F000EC621CE6F9C
:101B5000F2CFCFFDF29ECECDAAFFCDCDA9FFA69CA0
:101B6000A69EA680A850CFBFF28ECC6BCB6FCB5178
:101B70000D0802E1CC5305E0C85303E1C7511E082C
:101B800009E2D00EC725E96E0A0EC821EA6EEF6A97
:101B900013D008D0D00EC725E96E0A0EC821EA6E10
:101BA000CBCDEFFFC6CD03F0C551C52BD8B4C62BA6
:101BB000C72BD8B4C82BC5D7C52BD8B4C62BC86B78
:101BC000C76B04005D0EC525CD6F000EC621CE6F1C
:101BD000F2CFCFFDF29ECECDAAFFCDCDA9FFA69C20
:101BE000A69EA680A850CFBFF28ECC6BCB6FCB51F8
:101BF0000D0802E1CC5305E0C85303E1C7511E08AC
:101C000009E2F00EC725E96E0A0EC821EA6EEF6AF6
:101C100013D008D0F00EC725E96E0A0EC821EA6E6F
:101C2000CBCDEFFFC6CD03F0C551C52BD8B4C62B25
:101C3000C72BD8B4C82BC5D7C52BD8B4C62BC86BF7
:101C4000C76B04005D0EC525CD6F000EC621CE6F9B
:101C5000F2CFCFFDF29ECECDAAFFCDCDA9FFA69C9F
:101C6000A69EA680A850CFBFF28ECC6BCB6FCB5177
:101C70000D0802E1CC5305E0C85303E1C7511E082B
:101C800009E2100EC725E96E0B0EC821EA6EEF6A55
:101C900013D008D0100EC725E96E0B0EC821EA6ECE
:101CA000CBCDEFFFC6CD03F0C551C52BD8B4C62BA5
:101CB000C72BD8B4C82BC5D7C52BD8B4C62BC86B77
:101CC000C76B04005D0EC525CD6F000EC621CE6F1B
:101CD000F2CFCFFDF29ECECDAAFFCDCDA9FFA69C1F
:101CE000A69EA680A850CFBFF28ECC6BCB6FCB51F7
:101CF0000D0802E1CC5305E0C85303E1C7511E08AB
:101D000009E2300EC725E96E0B0EC821EA6EEF6AB4
:101D100013D008D0300EC725E96E0B0EC821EA6E2D
:101D2000CBCDEFFFC6CD03F0C551C52BD8B4C62B24
:101D3000C72BD8B4C82BC5D7C52BD8B4C62BC86BF6
:101D4000C76B04005D0EC525CD6F000EC621CE6F9A
:101D5000F2CFCFFDF29ECECDAAFFCDCDA9FFA69C9E
:101D6000A69EA680A850CFBFF28ECC6BCB6FCB5176
:101D70000D0802E1CC5305E0C85303E1C7511E082A
:101D800009E2500EC725E96E0B0EC821EA6EEF6A14
:101D900013D008D0500EC725E96E0B0EC821EA6E8D
:101DA000CBCDEFFFC6CD03F0C551C52BD8B4C62BA4
:101DB000C72BD8B4C82BC5D7C52BD8B4C62BC86B76
:101DC000C76B04005D0EC525CD6F000EC621CE6F1A
:101DD000F2CFCFFDF29ECECDAAFFCDCDA9FFA69C1E
:101DE000A69EA680A850CFBFF28ECC6BCB6FCB51F6
:101DF0000D0802E1CC5305E0C85303E1C7511E08AA
:101E000009E2700EC725E96E0B0EC821EA6EEF6A73
:101E100013D008D0700EC725E96E0B0EC821EA6EEC
:101E2000CBCDEFFFC6CD03F0C551C52BD8B4C62B23
:101E3000C72BD8B4C82BC5D7C52BD8B4C62BC86BF5
:101E4000C76B04005D0EC525CD6F000EC621CE6F99
:101E5000F2CFCFFDF29ECECDAAFFCDCDA9FFA69C9D
:101E6000A69EA680A850CFBFF28ECC6BCB6FCB5175
:101E70000D0802E1CC5305E0C85303E1C7511E0829
:101E800009E2900EC725E96E0B0EC821EA6EEF6AD3
:101E900013D008D0900EC725E96E0B0EC821EA6E4C
:101EA000CBCDEFFFC6CD03F0C551C52BD8B4C62BA3
:101EB000C72BD8B4C82BC5D7C52BD8B4C62BC86B75
:101EC000C76B04005D0EC525CD6F000EC621CE6F19
:101ED000F2CFCFFDF29ECECDAAFFCDCDA9FFA69C1D
:101EE000A69EA680A850CFBFF28ECC6BCB6FCB51F5
:101EF0000D0802E1CC5305E0C85303E1C7511E08A9
:101F000009E2B00EC725E96E0B0EC821EA6EEF6A32
:101F100013D008D0B00EC725E96E0B0EC821EA6EAB
:101F2000CBCDEFFFC6CD03F0C551C52BD8B4C62B22
:101F3000C72BD8B4C82BC5D7C52BD8B4C62BC86BF4
:101F4000C76B04005D0EC525CD6F000EC621CE6F98
:101F5000F2CFCFFDF29ECECDAAFFCDCDA9FFA69C9C
:101F6000A69EA680A850CFBFF28ECC6BCB6FCB5174
:101F70000D0802E1CC5305E0C85303E1C7511E0828
:101F800009E2D00EC725E96E0B0EC821EA6EEF6A92
:101F900013D008D0D00EC725E96E0B0EC821EA6E0B
:101FA000CBCDEFFFC6CD03F0C551C52BD8B4C62BA2
:101FB000C72BD8B4C82BC5D7C52BD8B4C62BC86B74
:101FC000C76B04005D0EC525CD6F000EC621CE6F18
:101FD000F2CFCFFDF29ECECDAAFFCDCDA9FFA69C1C
:101FE000A69EA680A850CFBFF28ECC6BCB6FCB51F4
:101FF0000D0802E1CC5305E0C85303E1C7511E08A8
:1020000009E2F00EC725E96E0B0EC821EA6EEF6AF1
:1020100013D008D0F00EC725E96E0B0EC821EA6E6A
:10202000CBCDEFFFC6CD03F0C551C52BD8B4C62B21
:10203000C72BD8B4C82BC5D7C52BD8B4C62BC86BF3
:10204000C76B04005D0EC525CD6F000EC621CE6F97
:10205000F2CFCFFDF29ECECDAAFFCDCDA9FFA69C9B
:10206000A69EA680A850CFBFF28ECC6BCB6FCB5173
:102070000D0802E1CC5305E0C85303E1C7511E0827
:1020800009E2100EC725E96E0C0EC821EA6EEF6A50
:1020900013D008D0100EC725E96E0C0EC821EA6EC9
:1020A000CBCDEFFFC6CD03F0C551C52BD8B4C62BA1
:1020B000C72BD8B4C82BC5D7C52BD8B4C62BC86B73
:1020C000C76B04005D0EC525CD6F000EC621CE6F17
:1020D000F2CFCFFDF29ECECDAAFFCDCDA9FFA69C1B
:1020E000A69EA680A850CFBFF28ECC6BCB6FCB51F3
:1020F0000D0802E1CC5305E0C85303E1C7511E08A7
:1021000009E2300EC725E96E0C0EC821EA6EEF6AAF
:1021100013D008D0300EC725E96E0C0EC821EA6E28
:10212000CBCDEFFFC6CD03F0C551C52BD8B4C62B20
:10213000C72BD8B4C82BC5D7C52BD8B4C62BC86BF2
:10214000C76B04005D0EC525CD6F000EC621CE6F96
:10215000F2CFCFFDF29ECECDAAFFCDCDA9FFA69C9A
:10216000A69EA680A850CFBFF28ECC6BCB6FCB5172
:102170000D0802E1CC5305E0C85303E1C7511E0826
:1021800009E2500EC725E96E0C0EC821EA6EEF6A0F
:1021900013D008D0500EC725E96E0C0EC821EA6E88
:1021A000CBCDEFFFC6CD03F0C551C52BD8B4C62BA0
:1021B000C72BD8B4C82BC5D7C52BD8B4C62BC86B72
:1021C000C76B04005D0EC525CD6F000EC621CE6F16
:1021D000F2CFCFFDF29ECECDAAFFCDCDA9FFA69C1A
:1021E000A69EA680A850CFBFF28ECC6BCB6FCB51F2
:1021F0000D0802E1CC5305E0C85303E1C7511E08A6
:1022000009E2700EC725E96E0C0EC821EA6EEF6A6E
:1022100013D008D0700EC725E96E0C0EC821EA6EE7
:10222000CBCDEFFFC6CD03F0C551C52BD8B4C62B1F
:10223000C72BD8B4C82BC5D7C52BD8B4C62BC86BF1
:10224000C76B04005D0EC525CD6F000EC621CE6F95
:10225000F2CFCFFDF29ECECDAAFFCDCDA9FFA69C99
:10226000A69EA680A850CFBFF28ECC6BCB6FCB5171
:102270000D0802E1CC5305E0C85303E1C7511E0825
:1022800009E2900EC725E96E0C0EC821EA6EEF6ACE
:1022900013D008D0900EC725E96E0C0EC821EA6E47
:1022A000CBCDEFFFC6CD03F0C551C52BD8B4C62B9F
:1022B000C72BD8B4C82BC5D7C52BD8B4C62BC86B71
:1022C000C76B04005D0EC525CD6F000EC621CE6F15
:1022D000F2CFCFFDF29ECECDAAFFCDCDA9FFA69C19
:1022E000A69EA680A850CFBFF28ECC6BCB6FCB51F1
:1022F0000D0802E1CC5305E0C85303E1C7511E08A5
:1023000009E2B00EC725E96E0C0EC821EA6EEF6A2D
:1023100013D008D0B00EC725E96E0C0EC821EA6EA6
:10232000CBCDEFFFC6CD03F0C551C52BD8B4C62B1E
:10233000C72BD8B4C82BC5D7C52BD8B4C62BC86BF0
:10234000C76B04005D0EC525CD6F000EC621CE6F94
:10235000F2CFCFFDF29ECECDAAFFCDCDA9FFA69C98
:10236000A69EA680A850CFBFF28ECC6BCB6FCB5170
:102370000D0802E1CC5305E0C85303E1C7511E0824
:1023800009E2D00EC725E96E0C0EC821EA6EEF6A8D
:1023900013D008D0D00EC725E96E0C0EC821EA6E06
:1023A000CBCDEFFFC6CD03F0C551C52BD8B4C62B9E
:1023B000C72BD8B4C82BC5D7C52BD8B4C62BC86B70
:1023C000C76B04005D0EC525CD6F000EC621CE6F14
:1023D000F2CFCFFDF29ECECDAAFFCDCDA9FFA69C18
:1023E000A69EA680A850CFBFF28ECC6BCB6FCB51F0
:1023F0000D0802E1CC5305E0C85303E1C7511E08A4
:1024000009E2F00EC725E96E0C0EC821EA6EEF6AEC
:1024100013D008D0F00EC725E96E0C0EC821EA6E65
:10242000CBCDEFFFC6CD03F0C551C52BD8B4C62B1D
:10243000C72BD8B4C82BC5D700011200CBCDCDFD1A
:102440000A0E0D01CE6FCCCDCFFD00012CEC05F0B6
:102450001200CBCDCDFD1A0E0D01CE6FCCCDCFFD30
:1024600000012CEC05F012000D01D051070B006E9D
:10247000D031016E013201321F0E01160150D225FA
:10248000E96E000ED321EA6E016A012A002A01D00A
:102490000136002EFDD7D15303E00150EF1203D0D7
:1024A000011E0150EF16000112000D01D051070B63
:1024B000006ED031016E013201321F0E0116015043
:1024C000D125E96E000ED221EA6EEFCF01F0002A8D
:1024D00001D00132002EFDD7010E011600011200BD
:1024E00093908A90080E016E00D00000018E10D0EB
:1024F000019E0D01CD330001D8B08A80D8A08A900A
:10250000018C06D0019C012EF4D700D000008A80F7
:10251000840EE96EE92EFED700D0000001BEE8D798
:1025200001BCF0D712000900F5520CE0F6CFCBFD4C
:10253000F7CFCCFDF5CFCDFDD3DFCBCDF6FFCCCDA6
:10254000F7FFF1D712000601736972690D01D16BB3
:10255000CF51D15D21E20400D151CD25E96E000EAD
:10256000CE21EA6EEF50060173190D01D06F036A98
:10257000D05100015DEC00F0016E060172510118AE
:10258000736F036A0D01D0510001E5EC00F0E8CF54
:1025900072F60D01D12BDCD7000112009EA8FED7E8
:1025A000AD6E12001E6A1F6A206A266A276A286AB0
:1025B0000D0130B104D014B102D03C8101D03C9166
:1025C00030B304D014B302D03C8301D03C9330B577
:1025D00004D014B502D03C8501D03C9530B704D06E
:1025E00014B702D03C8701D03C9730B904D014B95D
:1025F00002D03C8901D03C9930BB04D014BB02D03E
:102600003C8B01D03C9B30BD04D014BD02D03C8D2E
:1026100001D03C9D30BF04D014BF02D03C8F01D00C
:102620003C9F31B104D015B102D03D8101D03D9124
:1026300031B304D015B302D03D8301D03D9331B501
:1026400004D015B502D03D8501D03D9531B704D0F9
:1026500015B702D03D8701D03D9731B904D015B9E7
:1026600002D03D8901D03D9931BB04D015BB02D0C9
:102670003D8B01D03D9B31BD04D015BD02D03D8DB9
:1026800001D03D9D31BF04D015BF02D03D8F01D098
:102690003D9F32B104D016B102D03E8101D03E91AF
:1026A00032B304D016B302D03E8301D03E9332B58C
:1026B00004D016B502D03E8501D03E9532B704D085
:1026C00016B702D03E8701D03E97000E3CBF010EE8
:1026D0002612D8902634CD6F000E3CBD010ECD11D0
:1026E000266ED8902634CD6F000E3CBB010ECD1166
:1026F000266ED8902634CD6F000E3CB9010ECD1158
:10270000266ED8902634CD6F000E3CB7010ECD1149
:10271000266ED8902634CD6F000E3CB5010ECD113B
:10272000266ED8902634CD6F000E3CB3010ECD112D
:10273000266ED8902634CD6F000E3CB1010ECD111F
:10274000266E000E3DBF010E2712D8902734CD6FA4
:10275000000E3DBD010ECD11276ED8902734CD6FF0
:10276000000E3DBB010ECD11276ED8902734CD6FE2
:10277000000E3DB9010ECD11276ED8902734CD6FD4
:10278000000E3DB7010ECD11276ED8902734CD6FC6
:10279000000E3DB5010ECD11276ED8902734CD6FB8
:1027A000000E3DB3010ECD11276ED8902734CD6FAA
:1027B000000E3DB1010ECD11276E000E3EBF010E81
:1027C0002812D8902834CD6F000E3EBD010ECD11D9
:1027D000286ED8902834CD6F000E3EBB010ECD116F
:1027E000286ED8902834CD6F000E3EB9010ECD1161
:1027F000286ED8902834CD6F000E3EB7010ECD1153
:10280000286ED8902834CD6F000E3EB5010ECD1144
:10281000286ED8902834CD6F000E3EB3010ECD1136
:10282000286ED8902834CD6F000E3EB1010ECD1128
:10283000286E000E30BF010E1E12D8901E34CD6FD0
:10284000000E30BD010ECD111E6ED8901E34CD6F1E
:10285000000E30BB010ECD111E6ED8901E34CD6F10
:10286000000E30B9010ECD111E6ED8901E34CD6F02
:10287000000E30B7010ECD111E6ED8901E34CD6FF4
:10288000000E30B5010ECD111E6ED8901E34CD6FE6
:10289000000E30B3010ECD111E6ED8901E34CD6FD8
:1028A000000E30B1010ECD111E6E000E31BF010EB3
:1028B0001F12D8901F34CD6F000E31BD010ECD1107
:1028C0001F6ED8901F34CD6F000E31BB010ECD119D
:1028D0001F6ED8901F34CD6F000E31B9010ECD118F
:1028E0001F6ED8901F34CD6F000E31B7010ECD1181
:1028F0001F6ED8901F34CD6F000E31B5010ECD1173
:102900001F6ED8901F34CD6F000E31B3010ECD1164
:102910001F6ED8901F34CD6F000E31B1010ECD1156
:102920001F6E000E32BF010E2012D8902034CD6FE2
:10293000000E32BD010ECD11206ED8902034CD6F27
:10294000000E32BB010ECD11206ED8902034CD6F19
:10295000000E32B9010ECD11206ED8902034CD6F0B
:10296000000E32B7010ECD11206ED8902034CD6FFD
:10297000000E32B5010ECD11206ED8902034CD6FEF
:10298000000E32B3010ECD11206ED8902034CD6FE1
:10299000000E32B1010ECD11206E0001C0EF20F00B
:1029A000929A899A0D01CF514109D26FC950D2CD67
:1029B000C9FFC730FEE3C950D0CDC9FFC730FEE321
:1029C000C950C96AC730FEE3C9CFD1FD929A898A3E
:1029D000D1CD01F000011200CDCDCFFD090E0D01CA
:1029E000D06F0001DDDF01C0CEFD0D01CECD01F0C5
:1029F00000011200CDCDCFFD190E0D01D06F0001E9
:102A0000CFDF01C0CEFD0D01CECD01F000011200DF
:102A10000D01D151D303F3CF01F0F4CF00F0D40373
:102A2000F3500026D251D303F3500020026E000170
:102A300012000D01CD6BCD6BCDBF03D0CD511D0864
:102A400023E3036ACD51006EE8BE0306CE6F03C0D8
:102A5000CFFD036ACD51006EE8BE0306D06F0D0EA8
:102A6000D26F4F0ED16F000120DDCECDD0FD0D0114
:102A7000D16B01B0D12B0D0ED36F4C0ED26F000174
:102A8000F3DC0D01CD2BD8D7000111EF19F00D01AA
:102A9000CD6B0001A1DF01C07BFA1AA803D00A01A7
:102AA0007B1F00010D0150970A017BA103D00D018E
:102AB00050870A01D8907B310D015099E8B05089B8
:102AC0000A017B31006E00323F0E00160D01509B53
:102AD00000B0508B0A017B31006E003200321F0EB5
:102AE00000160D01509D00B0508D0A017B39006E1B
:102AF0000F0E00160D01509F00B0508F0A017B3958
:102B0000006E0032070E00160D01519100B0518188
:102B10000A017B39006E00320032030E00160D01EF
:102B2000519300B05183006A0A017BBF00800D0100
:102B3000519500B05185CD6B00015CDF01C07BFA7F
:102B40001AA803D00A017B1F00010D0151970A0149
:102B50007BA103D00D0151870A01D8907B310D0173
:102B60005199E8B05189020ECD6F000135DF01C0E7
:102B70007BFA1AA803D00A017B1F00010D014F93B5
:102B80000A017BA103D00D014F830A01D8907B314C
:102B90000D014F95E8B04F850A017B31006E003280
:102BA0003F0E00160D014F9700B04F870A017B3191
:102BB000006E003200321F0E00160D014F9900B05A
:102BC0004F890A017B39006E0F0E00160D014F9BD5
:102BD00000B04F8B0A017B39006E0032070E0016E1
:102BE0000D014F9D00B04F8D0A017B39006E003200
:102BF0000032030E00160D014F9F00B04F8F006A88
:102C00000A017BBF00800D01509100B05081020E7F
:102C1000CD6F0001EFDE01C07BFA1AA803D00A01D4
:102C20007B1F00010D0150930A017BA103D00D0110
:102C300050830A01D8907B310D015095E8B0508542
:102C4000010ECC6FCC511408D8A0E9D2CCCDD0FD68
:102C50000D0ED26FA60ED16F000127DC0150010BC3
:102C60000108D8A464D1CCCDD0FD0D0E0D01D26FDA
:102C70004F0ED16F000119DC0150010BD8A4ABD06D
:102C8000CCCDD0FD0D0E0D01D26F4C0ED16F0001D9
:102C90000CDC0150010BD8A490D0D8900D01CC359C
:102CA000036A520FE96E0D0E0320EA6E010EEE2646
:102CB00001E3EF2AD890CC35036A520FE96E0D0E6E
:102CC0000320EA6EECCFCEFDED52EFCFCDFDD890D4
:102CD000CC35036A7C0FE96E0D0E0320EA6EECCF53
:102CE000D2FDED52EFCFD1FDD46B4B0ED36F00016F
:102CF0008FDE02C0D0FD01C0CFFD0F0E0D010124FB
:102D0000016E000E0220036E0350CE5D54E303E11A
:102D10000150CD5D50E3D890CC35036A520FE96E77
:102D20000D0E0320EA6EEC6AED52EF6A010ECC5DE7
:102D3000EC0F41E2140F000125EF1AF00D01109184
:102D40003AD00D01109337D00D01109534D00D01FC
:102D5000109731D00D0110992ED00D01109B2BD062
:102D60000D01109D28D00D01109F25D00D0111914E
:102D700022D00D0111931FD00D0111951CD00D0112
:102D8000119719D00D01119916D00D01119B13D077
:102D90000D01119D10D00D01119F0DD00D0112914B
:102DA0000AD00D01129307D00D01129504D00D0128
:102DB000129701D00D010DD00001D8900D01CC3536
:102DC000036A520FE96E0D0E0320EA6EEC6AED52B3
:102DD000EF6AACD00001CCCDD0FD0D0E0D01D26F4D
:102DE0004C0ED16F000155EC12F00150010B01089F
:102DF000D8A490D0D8900D01CC35036A520FE96E5B
:102E00000D0E0320EA6E010EEE2601E3EF2AD890A4
:102E1000CC35036A520FE96E0D0E0320EA6EECCF3B
:102E2000CEFDED52EFCFCDFDD890CC35036A7C0FAF
:102E3000E96E0D0E0320EA6EECCFD2FDED52EFCF1E
:102E4000D1FDD46B4B0ED36F0001E2DD02C0D0FD8B
:102E500001C0CFFD0F0E0D010124016E000E0220F6
:102E6000036E0350CE5D54E303E10150CD5D50E3AA
:102E7000D890CC35036A520FE96E0D0E0320EA6E2E
:102E8000EC6AED52010EEF6ECC5DEC0F41E2140FD7
:102E9000000146EF1AF00D0110813AD00D011083A8
:102EA00037D00D01108534D00D01108731D00D01C0
:102EB00010892ED00D01108B2BD00D01108D28D034
:102EC0000D01108F25D00D01118122D00D0111832C
:102ED0001FD00D0111851CD00D01118719D00D01D6
:102EE000118916D00D01118B13D00D01118D10D049
:102EF0000D01118F0DD00D0112810AD00D01128329
:102F000007D00D01128504D00D01128701D00D01EB
:102F10000DD00001D8900D01CC35036A520FE96E37
:102F20000D0E0320EA6EEC6AED52EF6A74D1CCCD3F
:102F3000D0FD0D0E0D01D26FA60ED16F000155EC24
:102F400012F00150010BD8A467D1CCCDD0FD0D0EED
:102F50000D01D26F4F0ED16F000155EC12F00150F0
:102F6000010B0108D8A4ADD0CCCDD0FD0D0E0D01C4
:102F7000D26F4C0ED16F000155EC12F00150010BD5
:102F80000108D8A490D0D8900D01CC35036A520F17
:102F9000E96E0D0E0320EA6E010EEE2601E3EF2A24
:102FA000D890CC35036A520FE96E0D0E0320EA6EFD
:102FB000ECCFCEFDED52EFCFCDFDD890CC35036AEE
:102FC0007C0FE96E0D0E0320EA6EECCFD2FDED52C0
:102FD000EFCFD1FDD46B4B0ED36F000119DD02C0D2
:102FE000D0FD01C0CFFD0F0E0D010124016E000EBA
:102FF0000220036E0350CE5D54E303E10150CD5D2A
:1030000050E3D890CC35036A520FE96E0D0E0320C1
:10301000EA6EEC6AED52EF6A010ECC5DEC0F41E214
:10302000140F000167EF1AF00D0110813AD00D0165
:10303000108337D00D01108534D00D01108731D0A9
:103040000D0110892ED00D01108B2BD00D01108D8C
:1030500028D00D01108F25D00D01118122D00D0136
:1030600011831FD00D0111851CD00D01118719D0BE
:103070000D01118916D00D01118B13D00D01118D89
:1030800010D00D01118F0DD00D0112810AD00D014C
:10309000128307D00D01128504D00D01128701D0D3
:1030A0000D010DD00001D8900D01CC35036A520FEF
:1030B000E96E0D0E0320EA6EEC6AED52EF6AABD0BA
:1030C0000001CCCDD0FD0D0E0D01D26F4C0ED16F95
:1030D000000155EC12F00150010BD8A490D0D8900B
:1030E0000D01CC35036A520FE96E0D0E0320EA6E16
:1030F000010EEE2601E3EF2AD890CC35036A520F79
:10310000E96E0D0E0320EA6EECCFCEFDED52EFCF4F
:10311000CDFDD890CC35036A7C0FE96E0D0E0320EF
:10312000EA6EECCFD2FDED52EFCFD1FDD46B4B0E5A
:10313000D36F00016DDC02C0D0FD01C0CFFD0F0ECA
:103140000D010124016E000E0220036E0350CE5DBE
:1031500054E303E10150CD5D50E3D890CC35036AD0
:10316000520FE96E0D0E0320EA6EEC6AED52EF6A23
:10317000010ECC5DEC0F41E2140F000188EF1AF054
:103180000D0110913AD00D01109337D00D0110951B
:1031900034D00D01109731D00D0110992ED00D01B2
:1031A000109B2BD00D01109D28D00D01109F25D014
:1031B0000D01119122D00D0111931FD00D01119518
:1031C0001CD00D01119719D00D01119916D00D01C8
:1031D000119B13D00D01119D10D00D01119F0DD029
:1031E0000D0112910AD00D01129307D00D01129515
:1031F00004D00D01129701D00D010DD00001D8901F
:103200000D01CC35036A520FE96E0D0E0320EA6EF4
:10321000EC6AED52EF6A00010D01CC2B13D50001D1
:1032200008D44B6A000E0D0112A3010E4B12D89068
:103230004B34CD6F000E12A1010ECD114B6ED89004
:103240004B34CD6F000E11AF010ECD114B6ED890E7
:103250004B34CD6F000E11AD010ECD114B6ED890D9
:103260004B34CD6F000E11AB010ECD114B6ED890CB
:103270004B34CD6F000E11A9010ECD114B6ED890BD
:103280004B34CD6F000E11A7010ECD114B6ED890AF
:103290004B34CD6F000E11A5010ECD114B6E4C6A53
:1032A000000E12A7010E4C12D8904C34CD6F000EB8
:1032B00012A5010ECD114C6E496A000E10AF010E21
:1032C0004912D8904934CD6F000E10AD010ECD11CA
:1032D000496ED8904934CD6F000E10AB010ECD1160
:1032E000496ED8904934CD6F000E10A9010ECD1152
:1032F000496ED8904934CD6F000E10A7010ECD1144
:10330000496ED8904934CD6F000E10A5010ECD1135
:10331000496ED8904934CD6F000E10A3010ECD1127
:10332000496ED8904934CD6F000E10A1010ECD1119
:10333000496E4D6A000E11AF010E4D12D8904D34FA
:10334000CD6F000E11AD010ECD114D6ED8904D34E4
:10335000CD6F000E11AB010ECD114D6ED8904D34D6
:10336000CD6F000E11A9010ECD114D6ED8904D34C8
:10337000CD6F000E11A7010ECD114D6ED8904D34BA
:10338000CD6F000E11A5010ECD114D6ED8904D34AC
:10339000CD6F000E11A3010ECD114D6ED8904D349E
:1033A000CD6F000E11A1010ECD114D6E4E6A000EB3
:1033B00012AF010E4E12D8904E34CD6F000E12ADEA
:1033C000010ECD114E6ED8904E34CD6F000E12AB63
:1033D000010ECD114E6ED8904E34CD6F000E12A955
:1033E000010ECD114E6ED8904E34CD6F000E12A747
:1033F000010ECD114E6ED8904E34CD6F000E12A539
:10340000010ECD114E6ED8904E34CD6F000E12A32A
:10341000010ECD114E6ED8904E34CD6F000E12A11C
:10342000010ECD114E6E4A6A000E11A3010E4A1212
:10343000D8904A34CD6F000E11A1010ECD114A6E05
:103440000F0E4E164F6A00011200E824F76AF73695
:10345000650FF66E340EF7220A00F550FA6E08007A
:10346000F550F96E3C2D422D482D4E2D542D5A2DE0
:10347000602D662D6C2D722D782D7E2D842D8A2D3C
:10348000902D962D9C2DA22DA82DAE2DE824F76A07
:10349000F736A70FF66E340EF7220A00F550FA6ED3
:1034A0000800F550F96E962E9C2EA22EA82EAE2E58
:1034B000B42EBA2EC02EC62ECC2ED22ED82EDE2E54
:1034C000E42EEA2EF02EF62EFC2E022F082FE824F2
:1034D000F76AF736E90FF66E340EF7220A00F55058
:1034E000FA6E0800F550F96E28302E3034303A303C
:1034F000403046304C30523058305E3064306A30A4
:10350000703076307C30823088308E3094309A3013
:10351000E824F76AF7362B0FF66E350EF7220A000D
:10352000F550FA6E0800F550F96E803186318C3115
:10353000923198319E31A431AA31B031B631BC31CB
:10354000C231C831CE31D431DA31E031E631EC313B
:10355000F231948082B002D01AAE02D01AA406D002
:10356000320E0D01CC6F000114EC05F0948082B096
:1035700002D01AAE02D01AA4AAD01A941D6A0D0164
:1035800030B102D034A104D02C8130913491149107
:1035900030B302D034A304D02C83309334931493EB
:1035A00030B502D034A504D02C85309534951495CF
:1035B00030B702D034A704D02C87309734971497B3
:1035C00030B902D034A904D02C8930993499149997
:1035D00030BB02D034AB04D02C8B309B349B149B7B
:1035E00030BD02D034AD04D02C8D309D349D149D5F
:1035F00030BF02D034AF04D02C8F309F349F149F43
:1036000031B102D035A104D02D8131913591159180
:1036100031B302D035A304D02D8331933593159364
:1036200031B502D035A504D02D8531953595159548
:1036300031B702D035A704D02D873197359715972C
:1036400031B902D035A904D02D8931993599159910
:1036500031BB02D035AB04D02D8B319B359B159BF4
:1036600031BD02D035AD04D02D8D319D359D159DD8
:1036700031BF02D035AF04D02D8F319F359F159FBC
:1036800032B102D036A104D02E81329136911691FA
:1036900032B302D036A304D02E83329336931693DE
:1036A00032B502D036A504D02E85329536951695C2
:1036B00032B702D036A704D02E87329736971697A6
:1036C0001A8E899892988996929608D000019480D3
:1036D00082A003D01AAE01D01A9E0D010001120083
:1036E000948282B202D030A002D01AA606D0320E46
:1036F0000D01CC6F000114EC05F0948282B202D06F
:1037000030A002D01AA6F5D01A96000E0D0110B105
:10371000010ECD6F000E18B1010ECD1903E130B1CD
:1037200001D01481000E10B3010ECD6F000E18B33E
:10373000010ECD1903E130B301D01483000E10B592
:10374000010ECD6F000E18B5010ECD1903E130B595
:1037500001D01485000E10B7010ECD6F000E18B702
:10376000010ECD1903E130B701D01487000E10B956
:10377000010ECD6F000E18B9010ECD1903E130B95D
:1037800001D01489000E10BB010ECD6F000E18BBC6
:10379000010ECD1903E130BB01D0148B000E10BD1A
:1037A000010ECD6F000E18BD010ECD1903E130BD25
:1037B00001D0148D000E10BF010ECD6F000E18BF8A
:1037C000010ECD1903E130BF01D0148F000E11B1ED
:1037D000010ECD6F000E19B1010ECD1903E131B10B
:1037E00001D01581000E11B3010ECD6F000E19B37B
:1037F000010ECD1903E131B301D01583000E11B5CF
:10380000010ECD6F000E19B5010ECD1903E131B5D2
:1038100001D01585000E11B7010ECD6F000E19B73E
:10382000010ECD1903E131B701D01587000E11B992
:10383000010ECD6F000E19B9010ECD1903E131B99A
:1038400001D01589000E11BB010ECD6F000E19BB02
:10385000010ECD1903E131BB01D0158B000E11BD56
:10386000010ECD6F000E19BD010ECD1903E131BD62
:1038700001D0158D000E11BF010ECD6F000E19BFC6
:10388000010ECD1903E131BF01D0158F000E12B129
:10389000010ECD6F000E1AB1010ECD1903E132B148
:1038A00001D01681000E12B3010ECD6F000E1AB3B7
:1038B000010ECD1903E132B301D01683000E12B50B
:1038C000010ECD6F000E1AB5010ECD1903E132B510
:1038D00001D01685000E12B7010ECD6F000E1AB77B
:1038E000010ECD1903E132B701D01687308008D020
:1038F0000001948282A203D030A001D030900D014B
:10390000000112000400010E715D0D01CC6F020E6A
:10391000CE6F720ECD6FCCCDCFFD0001A3EC12F0B7
:10392000010E715D720FE96E020EEA6ED8B0EA2ADE
:10393000EF500601735DD8A4A9EF33F0720E0001B9
:103940007125E96E020EEA6ED8B0EA2AEF50060140
:10395000725DD8A4A9EF33F002017251AA08D8A46D
:1039600095D173512008D8A491D170C072F0200E67
:103970000001736F1C0E746F3AC075F03BC076F097
:103980003CC077F03DC078F03EC079F03FC07AF09F
:1039900040C07BF041C07CF042C07DF043C07EF06F
:1039A00044C07FF045C080F046C081F047C082F03F
:1039B00048C083F0F2CFCCFDF29EAA6A100EA96E29
:1039C000A69CA69EA680A8500D01CCBFF28E000139
:1039D000846FF2CFCCFDF29EAA6A110EA96EA69C4E
:1039E000A69EA680A8500D01CCBFF28E0001856F67
:1039F000F2CFCCFDF29EAA6A120EA96EA69CA69EDC
:103A0000A680A8500D01CCBFF28E0001866FF2CFC8
:103A1000CCFDF29EAA6A130EA96EA69CA69EA68055
:103A2000A8500D01CCBFF28E0001876FF2CFCCFD04
:103A3000F29EAA6A140EA96EA69CA69EA680A85005
:103A40000D01CCBFF28E0001886FF2CFCCFDF29E4B
:103A5000AA6A150EA96EA69CA69EA680A8500D0166
:103A6000CCBFF28E0001896FF2CFCCFDF29EAA6A24
:103A7000160EA96EA69CA69EA680A8500D01CCBFCE
:103A8000F28E00018A6FF2CFCCFDF29EAA6A170E69
:103A9000A96EA69CA69EA680A8500D01CCBFF28E52
:103AA00000018B6F60C08CF061C08DF062C08EF041
:103AB00063C08FF07CCD90F070C091F07ECD92F01D
:103AC00080CD93F082CD94F084CD95F086CD96F0A4
:103AD00088CD97F08ACD98F08CCD99F08ECD9AF064
:103AE00090CD9BF092CD9CF094CD9DF096CD9EF024
:103AF00098CD9FF09ACDA0F09CCDA1F09ECDA2F0E4
:103B0000A0CDA3F0A2CDA4F0A4CDA5F00D01CE6B65
:103B1000720ECD6F340ECF6F0001A3EC12F073C69E
:103B2000A6F072C6A7F08A8693960A0E0D01CC6F96
:103B3000000114EC05F07251CEEC12F07351CEEC92
:103B400012F07451CEEC12F07551CEEC12F07651A9
:103B5000CEEC12F07751CEEC12F07851CEEC12F0A0
:103B60007951CEEC12F07A51CEEC12F07B51CEECC2
:103B700012F07C51CEEC12F07D51CEEC12F07E5161
:103B8000CEEC12F07F51CEEC12F08051CEEC12F060
:103B90008151CEEC12F08251CEEC12F08351CEEC7A
:103BA00012F08451CEEC12F08551CEEC12F0865119
:103BB000CEEC12F08751CEEC12F08851CEEC12F020
:103BC0008951CEEC12F08A51CEEC12F08B51CEEC32
:103BD00012F08C51CEEC12F08D51CEEC12F08E51D1
:103BE000CEEC12F08F51CEEC12F09051CEEC12F0E0
:103BF0009151CEEC12F09251CEEC12F09351CEECEA
:103C000012F09451CEEC12F09551CEEC12F0965188
:103C1000CEEC12F09751CEEC12F09851CEEC12F09F
:103C20009951CEEC12F09A51CEEC12F09B51CEECA1
:103C300012F09C51CEEC12F09D51CEEC12F09E5140
:103C4000CEEC12F09F51CEEC12F0A051CEEC12F05F
:103C5000A151CEEC12F0A251CEEC12F0A351CEEC59
:103C600012F0A451CEEC12F0A551CEEC12F0A651F8
:103C7000CEEC12F0A751CEEC12F0030E0D01CC6F7A
:103C8000000114EC05F08A96939602010001705130
:103C90000201725DD8A4A4EF33F0732D6AD206013D
:103CA000776B74C276F676C677F60D01CC6BCC5185
:103CB000020175110601766F0601796B76C278F6FE
:103CC00078C679F60D01CC6BCC5102017711060153
:103CD000786F06017753D8A413D276510F08D8A075
:103CE0000FD2785176250D01CC6F060179517721DD
:103CF0000D01CD6FCD53D8B402D0060101D2CC5105
:103D00001408D8B002D00601FBD10601795306E1B0
:103D10007851080803E3010E7A6F12D0795306E157
:103D20007851100803E3020E7A6F0AD0795306E146
:103D30007851180803E3030E7A6F02D0010E7A6FF0
:103D40007A2DA2D077530DE1765108080AE349C0D5
:103D50007BF67651016E04E0D8907B33012EFCD7C0
:103D60001AD0775303E17651080815E2775313E12F
:103D700076510F0810E3080E765D006E000E77593D
:103D8000036E00C001F04DC07BF6015204E0D890F4
:103D90007B33012EFCD77851080803E1795301E108
:103DA00035D07851070804E1795302E17B9F2ED08A
:103DB0007851060805E1795303E13F0E7B1726D0C1
:103DC0007851050805E1795303E11F0E7B171ED0DA
:103DD0007851040805E1795303E10F0E7B1716D0E3
:103DE0007851030805E1795303E1070E7B170ED0E4
:103DF0007851020805E1795303E1030E7B1706D0E1
:103E0000782D04D0795302E1010E7B1770C072F057
:103E1000010E0001736F7AC674F07BC675F00D0158
:103E2000CE6B720ECD6F040ECF6F0001A3EC12F0BB
:103E300073C676F072C677F08A8693960400040EF5
:103E40000D01CC6F000114EC05F004007251CEECB2
:103E500012F07351CEEC12F07451CEEC12F0755199
:103E6000CEEC12F07651CEEC12F07751CEEC12F08F
:103E70000400030E0D01CC6F000114EC05F00400EA
:103E80008A9693963BD106017A510208D8A4E0D0D5
:103E900049C07BF67651016E04E0D8907B33012E49
:103EA000FCD74DC07CF6070E785D0D01CC6F000E7F
:103EB000060179590D01CD6FCC51080803E1CD53AE
:103EC00001E183D0070E0601785D0D01CC6F000E75
:103ED000060179590D01CD6FCC51070805E1CD538D
:103EE00003E106017C9F70D0070E0601785D0D018D
:103EF000CC6F000E060179590D01CD6FCC5106082B
:103F000006E1CD5304E13F0E06017C175DD0070E9C
:103F10000601785D0D01CC6F000E060179590D0187
:103F2000CD6FCC51050806E1CD5304E11F0E06010B
:103F30007C174AD0070E0601785D0D01CC6F000E8C
:103F4000060179590D01CD6FCC51040806E1CD531E
:103F500004E10F0E06017C1737D0070E0601785DCD
:103F60000D01CC6F000E060179590D01CD6FCC51BA
:103F7000030806E1CD5304E1070E06017C1724D0A7
:103F8000070E0601785D0D01CC6F000E0601795910
:103F90000D01CD6FCC51020806E1CD5304E1030EB3
:103FA00006017C1711D0070E0601785D0D01CC6F5C
:103FB000000E060179590D01CD6FCC2D06D0CD53E1
:103FC00004E1010E06017C170D0170C072F0010EB4
:103FD0000001736F7AC674F07BC675F07CC676F00C
:103FE0000D01CE6B720ECD6F050ECF6F0001A3ECED
:103FF00012F073C677F072C678F08A869396040042
:10400000040E0D01CC6F000114EC05F00400725198
:10401000CEEC12F07351CEEC12F07451CEEC12F0E3
:104020007551CEEC12F07651CEEC12F07751CEEC09
:1040300012F07851CEEC12F00400030E0D01CC6F9B
:10404000000114EC05F004008A96939657D00601FF
:104050007A51030854E149C07BF67651016E04E0C1
:10406000D8907B33012EFCD74DC07CF64EC07DF638
:1040700070C072F0010E0001736F7AC674F07BC6D7
:1040800075F07CC676F07DC677F00D01CE6B720EB2
:10409000CD6F060ECF6F0001A3EC12F073C678F05F
:1040A00072C679F08A8693960400040E0D01CC6FD7
:1040B000000114EC05F004007251CEEC12F07351C3
:1040C000CEEC12F07451CEEC12F07551CEEC12F031
:1040D0007651CEEC12F07751CEEC12F07851CEEC56
:1040E00012F07951CEEC12F00400030E0D01CC6FEA
:1040F000000114EC05F004008A969396060138D06E
:1041000070C072F0810E0001736F020E746F0D01AA
:10411000CE6B720ECD6F030ECF6F0001A3EC12F0C9
:1041200073C675F072C676F08A8693960400040E04
:104130000D01CC6F000114EC05F004007251CEECBF
:1041400012F07351CEEC12F07451CEEC12F07551A6
:10415000CEEC12F07651CEEC12F00400030E0D01FD
:10416000CC6F000114EC05F004008A9693960601CA
:10417000020173510708D8A4B1D00001D2EF12F0A8
:104180009D921EC07BF61FC07CF620C07DF621C02C
:104190007EF622C07FF623C080F624C081F625C0BB
:1041A00082F626C083F627C084F628C085F629C08B
:1041B00086F62AC087F62BC088F62CC089F62DC05B
:1041C0008AF670C072F0070E736F100E06017A6FD8
:1041D0007AC674F07BC675F07CC676F07DC677F043
:1041E0007EC678F07FC679F080C67AF081C67BF013
:1041F00082C67CF083C67DF084C67EF085C67FF0E3
:1042000086C680F087C681F088C682F089C683F0B2
:104210008AC684F00D01CE6B720ECD6F130ECF6F78
:104220000001A3EC12F073C685F072C686F08A8690
:1042300093960400040E0D01CC6F000114EC05F000
:1042400004007251CEEC12F07351CEEC12F07451A6
:10425000CEEC12F07551CEEC12F07651CEEC12F09D
:104260007751CEEC12F07851CEEC12F07951CEECC1
:1042700012F07A51CEEC12F07B51CEEC12F07C5160
:10428000CEEC12F07D51CEEC12F07E51CEEC12F05D
:104290007F51CEEC12F08051CEEC12F08151CEEC79
:1042A00012F08251CEEC12F08351CEEC12F0845118
:1042B000CEEC12F08551CEEC12F08651CEEC12F01D
:1042C0000400030E0D01CC6F000114EC05F0040096
:1042D0008A9693969D824BEF33F002017351050845
:1042E000D8A476D20601776B74C276F676C677F6D6
:1042F0000D01CC6BCC51020175110601766F0601E0
:10430000796B76C278F678C679F60D01CC6BCC5114
:10431000020177110601786F060176534FE177535A
:104320004DE178534AE1793D48D01A8470C072F06B
:10433000050E0001736F74C274F075C275F076C219
:1043400076F077C277F00D01CE6B720ECD6F060E50
:10435000CF6F0001A3EC12F073C678F072C679F04B
:104360008A8693960400040E0D01CC6F000114ECB4
:1043700005F004007251CEEC12F07351CEEC12F045
:104380007451CEEC12F07551CEEC12F07651CEECA9
:1043900012F07751CEEC12F07851CEEC12F0795148
:1043A000CEEC12F00400030E0D01CC6F000114ECF2
:1043B00005F004008A969396060107D2762D4FD019
:1043C00077534DE178534AE1793D48D01A8670C061
:1043D00072F0050E0001736F74C274F075C275F04F
:1043E00076C276F077C277F00D01CE6B720ECD6F8C
:1043F000060ECF6F0001A3EC12F073C678F072C600
:1044000079F08A8693960400040E0D01CC6F0001AA
:1044100014EC05F004007251CEEC12F07351CEECA6
:1044200012F07451CEEC12F07551CEEC12F07651C0
:10443000CEEC12F07751CEEC12F07851CEEC12F0B7
:104440007951CEEC12F00400030E0D01CC6F000187
:1044500014EC05F004008A9693960601B6D17651C5
:104460000208D8A4A5D07753D8A4A2D078534BE1A2
:10447000793D49D01A8870C072F0050E0001736F43
:1044800074C274F075C275F076C276F077C277F0B8
:104490000D01CE6B720ECD6F060ECF6F0001A3EC37
:1044A00012F073C678F072C679F08A86939604008B
:1044B000040E0D01CC6F000114EC05F004007251E4
:1044C000CEEC12F07351CEEC12F07451CEEC12F02F
:1044D0007551CEEC12F07651CEEC12F07751CEEC55
:1044E00012F07851CEEC12F07951CEEC12F00400BB
:1044F000030E0D01CC6F000114EC05F004008A9648
:10450000939654D00601785352E1795350E11A98AA
:10451000000147EC15F01A84A9EC1AF01A8670EC29
:104520001BF070C072F0050E736F74C274F075C228
:1045300075F076C276F077C277F00D01CE6B720E11
:10454000CD6F060ECF6F0001A3EC12F073C678F0AA
:1045500072C679F08A8693960400040E0D01CC6F22
:10456000000114EC05F004007251CEEC12F073510E
:10457000CEEC12F07451CEEC12F07551CEEC12F07C
:104580007651CEEC12F07751CEEC12F07851CEECA1
:1045900012F07951CEEC12F00400030E0D01CC6F35
:1045A000000114EC05F004008A96939606010DD1E3
:1045B00076510308D8A4A5D07753D8A4A2D07853B5
:1045C0004BE1793D49D01A8A70C072F0050E0001A6
:1045D000736F74C274F075C275F076C276F077C2EC
:1045E00077F00D01CE6B720ECD6F060ECF6F00010E
:1045F000A3EC12F073C678F072C679F08A869396AF
:104600000400080E0D01CC6F000114EC05F004004D
:104610007251CEEC12F07351CEEC12F07451CEEC1C
:1046200012F07551CEEC12F07651CEEC12F07751BB
:10463000CEEC12F07851CEEC12F07951CEEC12F0B3
:104640000400080E0D01CC6F000114EC05F004000D
:104650008A96939654D00601785352E1795350E1EB
:104660001A9A000147EC15F01A84A9EC1AF01A8680
:1046700070EC1BF070C072F0050E736F74C274F0B2
:1046800075C275F076C276F077C277F00D01CE6B09
:10469000720ECD6F060ECF6F0001A3EC12F073C641
:1046A00078F072C679F08A8693960400040E0D01A4
:1046B000CC6F000114EC05F004007251CEEC12F046
:1046C0007351CEEC12F07451CEEC12F07551CEEC69
:1046D00012F07651CEEC12F07751CEEC12F0785108
:1046E000CEEC12F07951CEEC12F00400030E0D0165
:1046F000CC6F000114EC05F004008A969396060135
:1047000064D07651640861E177535FE178C670F058
:10471000F250006EF29EAA6A1D0EA96E70C0A8FF2C
:10472000A69CA69EA6840F01550EA76EAA0EA76E84
:10473000A682A6B2FED7A6940050F21270C072F004
:10474000050E0001736F74C274F075C275F076C205
:1047500076F077C277F00D01CE6B720ECD6F060E3C
:10476000CF6F0001A3EC12F073C678F072C679F037
:104770008A8693960400040E0D01CC6F000114ECA0
:1047800005F004007251CEEC12F07351CEEC12F031
:104790007451CEEC12F07551CEEC12F07651CEEC95
:1047A00012F07751CEEC12F07851CEEC12F0795134
:1047B000CEEC12F00400030E0D01CC6F000114ECDE
:1047C00005F004008A96939606014CEF33F002013F
:1047D00073512108D8A49FEF28F0F250006EF29E8A
:1047E000AA6AA96A0F0EA86EA69CA69EA6840F01AF
:1047F000550EA76EAA0EA76EA682A6B2FED7A694E5
:104800000050F212F2CF00F0F29EAA6A010EA96ED9
:1048100075C2A8FFA69CA69EA684550EA76EAA0EDA
:10482000A76EA682A6B2FED7A6940050F212F2CFCF
:1048300000F0F29EAA6A020EA96E76C2A8FFA69C9C
:10484000A69EA684550EA76EAA0EA76EA682A6B235
:10485000FED7A6940050F212F2CF00F0F29EAA6AA0
:10486000030EA96E77C2A8FFA69CA69EA684550E2D
:10487000A76EAA0EA76EA682A6B2FED7A694005077
:10488000F212F2CF00F0F29EAA6A040EA96E78C26C
:10489000A8FFA69CA69EA684550EA76EAA0EA76E7C
:1048A000A682A6B2FED7A6940050F212F2CF00F074
:1048B000F29EAA6A050EA96E79C2A8FFA69CA69EC2
:1048C000A684550EA76EAA0EA76EA682A6B2FED724
:1048D000A6940050F212F2CF00F0F29EAA6A060EE1
:1048E000A96E7AC2A8FFA69CA69EA684550EA76EA6
:1048F000AA0EA76EA682A6B2FED7A6940050F21208
:10490000F2CF00F0F29EAA6A070EA96E7BC2A8FF42
:10491000A69CA69EA684550EA76EAA0EA76EA6827A
:10492000A6B2FED7A6940050F212F2CF00F0F29E8B
:10493000AA6A080EA96E7CC2A8FFA69CA69EA684A1
:10494000550EA76EAA0EA76EA682A6B2FED7A69493
:104950000050F212F2CF00F0F29EAA6A090EA96E80
:104960007DC2A8FFA69CA69EA684550EA76EAA0E81
:10497000A76EA682A6B2FED7A6940050F212F2CF7E
:1049800000F0F29EAA6A0A0EA96E7EC2A8FFA69C3B
:10499000A69EA684550EA76EAA0EA76EA682A6B2E4
:1049A000FED7A6940050F212F2CF00F0F29EAA6A4F
:1049B0000B0EA96E7FC2A8FFA69CA69EA684550ECC
:1049C000A76EAA0EA76EA682A6B2FED7A694005026
:1049D000F212F2CF00F0F29EAA6A0C0EA96E80C20B
:1049E000A8FFA69CA69EA684550EA76EAA0EA76E2B
:1049F000A682A6B2FED7A6940050F212F2CF00F023
:104A0000F29EAA6A0D0EA96E81C2A8FFA69CA69E60
:104A1000A684550EA76EAA0EA76EA682A6B2FED7D2
:104A2000A6940050F212F2CF00F0F29EAA6A0E0E87
:104A3000A96E82C2A8FFA69CA69EA684550EA76E4C
:104A4000AA0EA76EA682A6B2FED7A6940050F212B6
:104A5000F2CF00F0F29EAA6A0F0EA96E83C2A8FFE1
:104A6000A69CA69EA684550EA76EAA0EA76EA68229
:104A7000A6B2FED7A6940050F212F2CF00F0F29E3A
:104A8000AA6A100EA96E84C2A8FFA69CA69EA68440
:104A9000550EA76EAA0EA76EA682A6B2FED7A69442
:104AA0000050F212F2CF00F0F29EAA6A110EA96E27
:104AB00085C2A8FFA69CA69EA684550EA76EAA0E28
:104AC000A76EA682A6B2FED7A6940050F212F2CF2D
:104AD00000F0F29EAA6A120EA96E86C2A8FFA69CDA
:104AE000A69EA684550EA76EAA0EA76EA682A6B293
:104AF000FED7A6940050F212F2CF00F0F29EAA6AFE
:104B0000130EA96E87C2A8FFA69CA69EA684550E6A
:104B1000A76EAA0EA76EA682A6B2FED7A6940050D4
:104B2000F212F2CF00F0F29EAA6A140EA96E88C2A9
:104B3000A8FFA69CA69EA684550EA76EAA0EA76ED9
:104B4000A682A6B2FED7A6940050F212F2CF00F0D1
:104B5000F29EAA6A150EA96E89C2A8FFA69CA69EFF
:104B6000A684550EA76EAA0EA76EA682A6B2FED781
:104B7000A6940050F212F2CF00F0F29EAA6A160E2E
:104B8000A96E8AC2A8FFA69CA69EA684550EA76EF3
:104B9000AA0EA76EA682A6B2FED7A6940050F21265
:104BA000F2CF00F0F29EAA6A170EA96E8BC2A8FF80
:104BB000A69CA69EA684550EA76EAA0EA76EA682D8
:104BC000A6B2FED7A6940050F212F2CF00F0F29EE9
:104BD000AA6A180EA96E8CC2A8FFA69CA69EA684DF
:104BE000550EA76EAA0EA76EA682A6B2FED7A694F1
:104BF0000050F212F2CF00F0F29EAA6A190EA96ECE
:104C00008DC2A8FFA69CA69EA684550EA76EAA0ECE
:104C1000A76EA682A6B2FED7A6940050F212F2CFDB
:104C200000F0F29EAA6A1A0EA96E8EC2A8FFA69C78
:104C3000A69EA684550EA76EAA0EA76EA682A6B241
:104C4000FED7A6940050F212F2CF00F0F29EAA6AAC
:104C50001B0EA96E8FC2A8FFA69CA69EA684550E09
:104C6000A76EAA0EA76EA682A6B2FED7A694005083
:104C7000F212F2CF00F0F29EAA6A1C0EA96E90C248
:104C8000A8FFA69CA69EA684550EA76EAA0EA76E88
:104C9000A682A6B2FED7A6940050F212F2CF00F080
:104CA000F29EAA6A1D0EA96E91C2A8FFA69CA69E9E
:104CB000A684550EA76EAA0EA76EA682A6B2FED730
:104CC000A6940050F212F2CF00F0F29EAA6A1E0ED5
:104CD000A96E92C2A8FFA69CA69EA684550EA76E9A
:104CE000AA0EA76EA682A6B2FED7A6940050F21214
:104CF000F2CF00F0F29EAA6A1F0EA96E93C2A8FF1F
:104D0000A69CA69EA684550EA76EAA0EA76EA68286
:104D1000A6B2FED7A6940050F212F2CF00F0F29E97
:104D2000AA6A200EA96E94C2A8FFA69CA69EA6847D
:104D3000550EA76EAA0EA76EA682A6B2FED7A6949F
:104D40000050F212F2CF00F0F29EAA6A210EA96E74
:104D500095C2A8FFA69CA69EA684550EA76EAA0E75
:104D6000A76EA682A6B2FED7A6940050F212F2CF8A
:104D700000F0F29EAA6A220EA96E96C2A8FFA69C17
:104D8000A69EA684550EA76EAA0EA76EA682A6B2F0
:104D9000FED7A6940050F212F2CF00F0F29EAA6A5B
:104DA000230EA96E97C2A8FFA69CA69EA684550EA8
:104DB000A76EAA0EA76EA682A6B2FED7A694005032
:104DC000F212F2CF00F0F29EAA6A240EA96E98C2E7
:104DD000A8FFA69CA69EA684550EA76EAA0EA76E37
:104DE000A682A6B2FED7A6940050F212F2CF00F02F
:104DF000F29EAA6A250EA96E99C2A8FFA69CA69E3D
:104E0000A684550EA76EAA0EA76EA682A6B2FED7DE
:104E1000A6940050F212F2CF00F0F29EAA6A260E7B
:104E2000A96E9AC2A8FFA69CA69EA684550EA76E40
:104E3000AA0EA76EA682A6B2FED7A6940050F212C2
:104E4000F2CF00F0F29EAA6A270EA96E9BC2A8FFBD
:104E5000A69CA69EA684550EA76EAA0EA76EA68235
:104E6000A6B2FED7A6940050F212F2CF00F0F29E46
:104E7000AA6A280EA96E9CC2A8FFA69CA69EA6841C
:104E8000550EA76EAA0EA76EA682A6B2FED7A6944E
:104E90000050F212F2CF00F0F29EAA6A290EA96E1B
:104EA0009DC2A8FFA69CA69EA684550EA76EAA0E1C
:104EB000A76EA682A6B2FED7A6940050F212F2CF39
:104EC00000F0F29EAA6A2A0EA96E9EC2A8FFA69CB6
:104ED000A69EA684550EA76EAA0EA76EA682A6B29F
:104EE000FED7A6940050F212F2CF00F0F29EAA6A0A
:104EF0002B0EA96E9FC2A8FFA69CA69EA684550E47
:104F0000A76EAA0EA76EA682A6B2FED7A6940050E0
:104F1000F212F2CF00F0F29EAA6A2C0EA96EA0C285
:104F2000A8FFA69CA69EA684550EA76EAA0EA76EE5
:104F3000A682A6B2FED7A6940050F212F2CF00F0DD
:104F4000F29EAA6A2D0EA96EA1C2A8FFA69CA69EDB
:104F5000A684550EA76EAA0EA76EA682A6B2FED78D
:104F6000A6940050F212F2CF00F0F29EAA6A2E0E22
:104F7000A96EA2C2A8FFA69CA69EA684550EA76EE7
:104F8000AA0EA76EA682A6B2FED7A6940050F21271
:104F9000F2CF00F0F29EAA6A2F0EA96EA3C2A8FF5C
:104FA000A69CA69EA684550EA76EAA0EA76EA682E4
:104FB000A6B2FED7A6940050F212F2CF00F0F29EF5
:104FC000AA6A300EA96EA4C2A8FFA69CA69EA684BB
:104FD000550EA76EAA0EA76EA682A6B2FED7A694FD
:104FE0000050F212F2CF00F0F29EAA6A310EA96EC2
:104FF000A5C2A8FFA69CA69EA684550EA76EAA0EC3
:10500000A76EA682A6B2FED7A6940050F2120D019A
:10501000C46BC36B0400A60EC325E96E020EC42147
:10502000EA6EEFCFC5FDC5510D0805E0C45303E19D
:10503000C3510F0827E2810EC325E96E0A0EC42171
:10504000EA6EEF6A320EC325CC6F000EC421CD6F1D
:10505000F250006EF29ECDCDAAFFCCCDA9FFC5CDFA
:10506000A8FFA69CA69EA6840F01550EA76EAA0EA9
:10507000A76EA682A6B2FED7A6940050F2122DD03B
:1050800026D00D01810EC325E96E0A0EC421EA6EF9
:10509000C5CDEFFF320EC325CC6F000EC421CD6FFE
:1050A000F250006EF29ECDCDAAFFCCCDA9FFC5CDAA
:1050B000A8FFA69CA69EA6840F01550EA76EAA0E59
:1050C000A76EA682A6B2FED7A6940050F2120D01DA
:1050D000C32BD8B4C42B9ED70F0170C072F0210E21
:1050E0000001736F0D01CE6B720ECD6F020ECF6F8C
:1050F0000001A3EC12F073C674F072C675F08A86D4
:1051000093960A0E0D01CC6F000114EC05F072515C
:10511000CEEC12F07351CEEC12F07451CEEC12F0D2
:105120007551CEEC12F0030E0D01CC6F000114ECA2
:1051300005F08A969396FF004BEF33F0020173510E
:105140002208D8A44BEF33F00D01C76B040EC66FD5
:10515000C96BC86BCB6BCA6B0400720EC625E96EB7
:10516000020EC721EA6EEF500D0805E0C95303E1B6
:10517000C8511E0820E25D0EC625CC6F000EC72167
:10518000CD6FF250006EF29ECDCDAAFFCCCDA9FF1F
:105190000D0EA86EA69CA69EA6840F01550EA76EA6
:1051A000AA0EA76EA682A6B2FED7A6940050F2124F
:1051B00047D03AD00D01900EC825016E0A0EC921C4
:1051C000036E720EC625E96E020EC721EA6EEFCF9E
:1051D000CEFD03C0EAFF01C0E9FFCECDEFFF5D0EBB
:1051E000C625CC6F000EC721CD6F720EC625E96EA5
:1051F000020EC721EA6EEFCFCEFDF250006EF29E96
:10520000CDCDAAFFCCCDA9FFCECDA8FFA69CA69E52
:10521000A6840F01550EA76EAA0EA76EA682A6B28F
:10522000FED7A6940050F2120D01C7CD03F0C6516F
:10523000C62BD8B4C72BC82BD8B4C92B8DD70F0118
:10524000900E0D01C825E96E0A0EC921EA6EEF6ABB
:10525000C96BC86BC62BD8B4C72B0400720EC62509
:10526000E96E020EC721EA6EEF500D0805E0C95342
:1052700003E1C8511E0820E25D0EC625CC6F000E6A
:10528000C721CD6FF250006EF29ECDCDAAFFCCCDDE
:10529000A9FF0D0EA86EA69CA69EA6840F01550E12
:1052A000A76EAA0EA76EA682A6B2FED7A69400503D
:1052B000F21247D03AD00D01B00EC825016E0A0E89
:1052C000C921036E720EC625E96E020EC721EA6E71
:1052D000EFCFCEFD03C0EAFF01C0E9FFCECDEFFF67
:1052E0005D0EC625CC6F000EC721CD6F720EC62590
:1052F000E96E020EC721EA6EEFCFCEFDF250006ECE
:10530000F29ECDCDAAFFCCCDA9FFCECDA8FFA69C05
:10531000A69EA6840F01550EA76EAA0EA76EA682A2
:10532000A6B2FED7A6940050F2120D01C7CD03F02D
:10533000C651C62BD8B4C72BC82BD8B4C92B8DD710
:105340000F01B00E0D01C825E96E0A0EC921EA6EE3
:10535000EF6AC96BC86BC62BD8B4C72B0400720E9A
:10536000C625E96E020EC721EA6EEF500D0805E072
:10537000C95303E1C8511E0820E25D0EC625CC6F5B
:10538000000EC721CD6FF250006EF29ECDCDAAFF68
:10539000CCCDA9FF0D0EA86EA69CA69EA6840F01DB
:1053A000550EA76EAA0EA76EA682A6B2FED7A69429
:1053B0000050F21247D03AD00D01D00EC825016E30
:1053C0000A0EC921036E720EC625E96E020EC721B0
:1053D000EA6EEFCFCEFD03C0EAFF01C0E9FFCECDFC
:1053E000EFFF5D0EC625CC6F000EC721CD6F720E8C
:1053F000C625E96E020EC721EA6EEFCFCEFDF25050
:10540000006EF29ECDCDAAFFCCCDA9FFCECDA8FFD8
:10541000A69CA69EA6840F01550EA76EAA0EA76E87
:10542000A682A6B2FED7A6940050F2120D01C7CDF7
:1054300003F0C651C62BD8B4C72BC82BD8B4C92B80
:105440008DD70F01D00E0D01C825E96E0A0EC921B6
:10545000EA6EEF6AC96BC86BC62BD8B4C72B0400C1
:10546000720EC625E96E020EC721EA6EEF500D08D6
:1054700005E0C95303E1C8511E0820E25D0EC625B0
:10548000CC6F000EC721CD6FF250006EF29ECDCDD5
:10549000AAFFCCCDA9FF0D0EA86EA69CA69EA68441
:1054A0000F01550EA76EAA0EA76EA682A6B2FED752
:1054B000A6940050F21247D03AD00D01F00EC82544
:1054C000016E0A0EC921036E720EC625E96E020E28
:1054D000C721EA6EEFCFCEFD03C0EAFF01C0E9FFAE
:1054E000CECDEFFF5D0EC625CC6F000EC721CD6F70
:1054F000720EC625E96E020EC721EA6EEFCFCEFD11
:10550000F250006EF29ECDCDAAFFCCCDA9FFCECD3C
:10551000A8FFA69CA69EA6840F01550EA76EAA0EF4
:10552000A76EA682A6B2FED7A6940050F2120D0175
:10553000C7CD03F0C651C62BD8B4C72BC82BD8B4DF
:10554000C92B8DD70F01F00E0D01C825E96E0A0E8B
:10555000C921EA6EEF6AC96BC86BC62BD8B4C72BDA
:105560000400720EC625E96E020EC721EA6EEF50E6
:105570000D0805E0C95303E1C8511E0820E25D0E85
:10558000C625CC6F000EC721CD6FF250006EF29E83
:10559000CDCDAAFFCCCDA9FF0D0EA86EA69CA69ED0
:1055A000A6840F01550EA76EAA0EA76EA682A6B2FC
:1055B000FED7A6940050F21247D03AD00D01100E3B
:1055C000C825016E0B0EC921036E720EC625E96E49
:1055D000020EC721EA6EEFCFCEFD03C0EAFF01C085
:1055E000E9FFCECDEFFF5D0EC625CC6F000EC721C3
:1055F000CD6F720EC625E96E020EC721EA6EEFCF9F
:10560000CEFDF250006EF29ECDCDAAFFCCCDA9FF0B
:10561000CECDA8FFA69CA69EA6840F01550EA76E10
:10562000AA0EA76EA682A6B2FED7A6940050F212CA
:105630000D01C7CD03F0C651C62BD8B4C72BC82B5C
:10564000D8B4C92B8DD70F01100E0D01C825E96EF6
:105650000B0EC921EA6EEF6AC96BC86BC62BD8B4B2
:10566000C72B0400720EC625E96E020EC721EA6E32
:10567000EF500D0805E0C95303E1C8511E0820E2B0
:105680005D0EC625CC6F000EC721CD6FF250006EA7
:10569000F29ECDCDAAFFCCCDA9FF0D0EA86EA69C83
:1056A000A69EA6840F01550EA76EAA0EA76EA6820F
:1056B000A6B2FED7A6940050F21249D03CD00D01FC
:1056C0005D0EC625CC6F000EC721CD6F720EC625AC
:1056D000E96E020EC721EA6EEFCFCEFDF250006EEA
:1056E000F29ECDCDAAFFCCCDA9FFCECDA8FFA69C22
:1056F000A69EA6840F01550EA76EAA0EA76EA682BF
:10570000A6B2FED7A6940050F212300E0D01C825A5
:10571000016E0B0EC921036E720EC625E96E020ED4
:10572000C721EA6EEFCFCEFD03C0EAFF01C0E9FF5B
:10573000CECDEFFF0F010D01C7CD03F0C651C62B33
:10574000D8B4C72BC82BD8B4C92B8BD70F01300EB8
:105750000D01C825E96E0B0EC921EA6EEF6AC96B0F
:10576000C86BC62BD8B4C72B0400720EC625E96ED1
:10577000020EC721EA6EEF500D0805E0C95303E1A0
:10578000C8511E0820E25D0EC625CC6F000EC72151
:10579000CD6FF250006EF29ECDCDAAFFCCCDA9FF09
:1057A0000D0EA86EA69CA69EA6840F01550EA76E90
:1057B000AA0EA76EA682A6B2FED7A6940050F21239
:1057C00047D03AD00D01500EC825016E0B0EC921ED
:1057D000036E720EC625E96E020EC721EA6EEFCF88
:1057E000CEFD03C0EAFF01C0E9FFCECDEFFF5D0EA5
:1057F000C625CC6F000EC721CD6F720EC625E96E8F
:10580000020EC721EA6EEFCFCEFDF250006EF29E7F
:10581000CDCDAAFFCCCDA9FFCECDA8FFA69CA69E3C
:10582000A6840F01550EA76EAA0EA76EA682A6B279
:10583000FED7A6940050F2120D01C7CD03F0C65159
:10584000C62BD8B4C72BC82BD8B4C92B8DD70F0102
:10585000500E0D01C825E96E0B0EC921EA6EEF6AE4
:10586000C96BC86BC62BD8B4C72B0400720EC625F3
:10587000E96E020EC721EA6EEF500D0805E0C9532C
:1058800003E1C8511E0820E25D0EC625CC6F000E54
:10589000C721CD6FF250006EF29ECDCDAAFFCCCDC8
:1058A000A9FF0D0EA86EA69CA69EA6840F01550EFC
:1058B000A76EAA0EA76EA682A6B2FED7A694005027
:1058C000F21247D03AD00D01700EC825016E0B0EB2
:1058D000C921036E720EC625E96E020EC721EA6E5B
:1058E000EFCFCEFD03C0EAFF01C0E9FFCECDEFFF51
:1058F0005D0EC625CC6F000EC721CD6F720EC6257A
:10590000E96E020EC721EA6EEFCFCEFDF250006EB7
:10591000F29ECDCDAAFFCCCDA9FFCECDA8FFA69CEF
:10592000A69EA6840F01550EA76EAA0EA76EA6828C
:10593000A6B2FED7A6940050F2120D01C7CD03F017
:10594000C651C62BD8B4C72BC82BD8B4C92B8DD7FA
:105950000F01700E0D01C825E96E0B0EC921EA6E0C
:10596000EF6AC96BC86BC62BD8B4C72B0400720E84
:10597000C625E96E020EC721EA6EEF500D0805E05C
:10598000C95303E1C8511E0828E25D0EC625CC6F3D
:10599000000EC721CD6F720EC625E96E020EC7211B
:1059A000EA6EEFCFCEFDF250006EF29ECDCDAAFF93
:1059B000CCCDA9FFCECDA8FFA69CA69EA6840F01A4
:1059C000550EA76EAA0EA76EA682A6B2FED7A69403
:1059D0000050F21247D03AD00D01900EC825016E4A
:1059E0000B0EC921036E720EC625E96E020EC72189
:1059F000EA6EEFCFCEFD03C0EAFF01C0E9FFCECDD6
:105A0000EFFF5D0EC625CC6F000EC721CD6F720E65
:105A1000C625E96E020EC721EA6EEFCFCEFDF25029
:105A2000006EF29ECDCDAAFFCCCDA9FFCECDA8FFB2
:105A3000A69CA69EA6840F01550EA76EAA0EA76E61
:105A4000A682A6B2FED7A6940050F2120D01C7CDD1
:105A500003F0C651C62BD8B4C72BC82BD8B4C92B5A
:105A600085D70F01900E0D01C825E96E0B0EC921D7
:105A7000EA6EEF6AC96BC86BC62BD8B4C72B04009B
:105A8000720EC625E96E020EC721EA6EEF500D08B0
:105A900005E0C95303E1C8511E0828E25D0EC62582
:105AA000CC6F000EC721CD6F720EC625E96E020EB7
:105AB000C721EA6EEFCFCEFDF250006EF29ECDCD43
:105AC000AAFFCCCDA9FFCECDA8FFA69CA69EA684FA
:105AD0000F01550EA76EAA0EA76EA682A6B2FED71C
