:0400000066EF62F055
:08000800046ED8CF05F0E0CF33
:1000100006F00001E9CF0CF0EACF07F0E1CF08F0DD
:10002000E2CF09F0D9CF0AF0DACF0BF0F3CF12F01C
:10003000F4CF13F0FACF14F0F5CF15F0F6CF16F099
:10004000F7CF17F000C00EF001C00FF002C010F0A3
:1000500003C011F09DA230EF00F09EB2C9EF02F094
:100060009DAA36EF00F09EBAC1EF02F00EC000F07C
:100070000FC001F010C002F011C003F00CC0E9FF86
:1000800007C0EAFF078E08C0E1FF09C0E2FF0AC00F
:10009000D9FF0BC0DAFF12C0F3FF13C0F4FF14C086
:1000A000FAFF15C0F5FF16C0F6FF17C0F7FF0450A2
:1000B00006C0E0FF05C0D8FF1000F76ACA0FF66E51
:1000C000000EF7220900F550120000C1814001C066
:1000D000804101C0804100C1814001C0804100C118
:1000E000814000C1814001C0804101C0804100C108
:1000F000814000C1814001C0804100C1814001C0F8
:10010000804101C0804100C1814001C0804100C1E7
:10011000814000C1814001C0804100C1814001C0D7
:10012000804101C0804100C1814000C1814001C0C7
:10013000804101C0804100C1814001C0804100C1B7
:10014000814000C1814001C0804101C0804100C1A7
:10015000814000C1814001C0804100C1814001C097
:10016000804101C0804100C1814000C1814001C087
:10017000804101C0804100C1814001C0804100C177
:10018000814000C1814001C0804100C1814001C067
:10019000804101C0804100C1814001C0804100C157
:1001A000814000C1814001C0804101C0804100C147
:1001B000814000C1814001C0804100C1814001C037
:1001C000804101C0804100C18140F76ADA0FF66EBC
:1001D000010EF7220900F550120000C0C101C3034F
:1001E00002C2C60607C705C5C404CC0C0DCD0FCF8F
:1001F000CE0E0ACACB0BC90908C8D81819D91BDBFF
:10020000DA1A1EDEDF1FDD1D1CDC14D4D515D7174E
:1002100016D6D21213D311D1D010F03031F133F3FE
:10022000F23236F6F737F53534F43CFCFD3DFF3F4E
:100230003EFEFA3A3BFB39F9F83828E8E929EB2B7E
:100240002AEAEE2E2FEF2DEDEC2CE42425E527E70E
:10025000E62622E2E323E12120E0A06061A163A37E
:10026000A26266A6A767A56564A46CACAD6DAF6F0E
:100270006EAEAA6A6BAB69A9A86878B8B979BB7B7E
:100280007ABABE7E7FBF7DBDBC7CB47475B577B7CE
:10029000B67672B2B373B17170B0509091519353FE
:1002A000529296565797559594549C5C5D9D5F9FCE
:1002B0009E5E5A9A9B5B99595898884849894B8BFE
:1002C0008A4A4E8E8F4F8D4D4C8C4484854587478E
:1002D0004686824243834181804004005850615DDC
:1002E00013E1636B640E6325E96E020EEA6ED8B00B
:1002F000EA2A2EC0EFFF0400632B100E616F140E6C
:100300000A016E6F3BD10001615110085CE1640E7F
:100310006325E96E020EEA6ED8B0EA2A2EC0EFFF1E
:100320000400632B010E635D640FE96E020EEA6E3A
:10033000D8B0EA2AEF50160807E359C061F0140E4E
:100340000A016E6F3ED00001010E635D640FE96E1D
:10035000020EEA6ED8B0EA2AEF50200807E15CC02E
:1003600061F0140E0A016E6F2CD00001010E635D66
:10037000640FE96E020EEA6ED8B0EA2AEF50210847
:1003800007E15FC061F0140E0A016E6F1AD0000120
:10039000010E635D640FE96E020EEA6ED8B0EA2AC0
:1003A000EF50220807E15EC061F0140E0A016E6F83
:1003B00008D00001636B58C061F00A016E6B8A9629
:1003C0009396DCD000015E50615D12E1640E6325FE
:1003D000E96E020EEA6ED8B0EA2A2EC0EFFF0400E2
:1003E000632B5FC061F0140E0A016E6FC7D000016D
:1003F0005F50615D2BE1640E6325E96E020EEA6ECB
:10040000D8B0EA2A2EC0EFFF0400632B0201655129
:10041000220809E16651640DF35067250A016F6FE8
:10042000706B0ED00201010E0001635D640FE96E76
:10043000020EEA6ED8B0EA2A0A01706BEFCF6FFAAB
:10044000140E6E6F60C061F099D000016051615D63
:100450001AE1640E6325E96E020EEA6ED8B0EA2A4C
:100460002EC0EFFF0400632B0A016F51D8B4700750
:100470006F076F5304E1705302E15CC061F0140E2A
:100480006E6F7CD000015950615D12E1640E6325EE
:10049000E96E020EEA6ED8B0EA2A2EC0EFFF040021
:1004A000632B5AC061F0140E0A016E6F67D0000111
:1004B0005A50615D12E1640E6325E96E020EEA6E28
:1004C000D8B0EA2A2EC0EFFF0400632B5BC061F0B6
:1004D000140E0A016E6F52D000015B50615D12E193
:1004E000640E6325E96E020EEA6ED8B0EA2A2EC0C9
:1004F000EFFF0400632B150E616F140E0A016E6F7F
:100500003DD000016151150812E1640E6325E96ECA
:10051000020EEA6ED8B0EA2A2EC0EFFF0400632B69
:100520005CC061F0140E0A016E6F28D000015C50AF
:10053000615D12E1640E6325E96E020EEA6ED8B0C9
:10054000EA2A2EC0EFFF0400632B5DC061F0140E99
:100550000A016E6F13D000015D50615D0FE1640E02
:100560006325E96E020EEA6ED8B0EA2A2EC0EFFFCC
:10057000040058C061F00A016E6B308A0001C6EFBA
:1005800002F09EAAFED7AECF2EF0A7D69E9A36EFE7
:1005900000F0192A0A016E5307E06E076E5304E15A
:1005A00058C061F08A9693961C5213E01C061C52A8
:1005B00010E11D5204E01D061D5201E11A84572A64
:1005C0005750010803E23088020E576E3084640EE3
:1005D0001C6E1950280814E1196A1AB004D01A8048
:1005E0008A8A939A03D01A908A9A939A1AAC07D05F
:1005F0002F5201E02F062F5201E11A8A01D02F6AF3
:100600001B5213E01B061B520AE1716930B205D080
:100610001AA202D01A9201D01A8255C01BF0315290
:1006200004E03106315201E130929E92000136EF32
:1006300000F041542B434D47463D310041542B437C
:100640004D47533D220041542B434D47463D310019
:1006500041542B434D47533D220041542B434D47BA
:10066000463D310041542B434D47533D22004154F8
:100670002B434D47463D310041542B434D47533D9D
:10068000220041542B434D47463D310041542B43FA
:100690004D47533D220041542B434D47463D3100C9
:1006A00041542B434D47533D220041542B434D476A
:1006B000463D310041542B434D47533D22004154A8
:1006C0002B434D47463D310041542B434D47533D4D
:1006D000220041542B434D47463D310041542B43AA
:1006E0004D47533D220041542B434D47463D310079
:1006F00041542B434D47533D220041542B434D471A
:10070000463D310041542B434D47533D2200415457
:100710002B434D47463D310041542B434D47533DFC
:10072000220041542B434D47463D310041542B4359
:100730004D47533D220041542B434D47463D310028
:1007400041542B434D47533D220041542B434D47C9
:10075000463D310041542B434D47533D2200415407
:100760002B434D47463D310041542B434D47533DAC
:10077000220041542B434D47463D310041542B4309
:100780004D47533D220041542B434D47463D3100D8
:1007900041542B434D47533D220041542B434D4779
:1007A000463D310041542B434D47533D22004154B7
:1007B0002B434D47463D310041542B434D47533D5C
:1007C000220041542B434D47463D310041542B43B9
:1007D0004D47533D220041542B434D47463D310088
:1007E00041542B434D47533D220041542B434D4729
:1007F000463D310041542B434D47533D2200415467
:100800002B434D47463D310041542B434D47533D0B
:10081000220041542B434D47463D310041542B4368
:100820004D47533D220041542B434D47463D310037
:1008300041542B434D47533D220041542B434D47D8
:10084000463D310041542B434D47533D2200415416
:100850002B434D47463D310041542B434D47533DBB
:10086000220041542B434D47463D310041542B4318
:100870004D47533D220041542B434D47463D3100E7
:1008800041542B434D47533D220041542B434D4788
:10089000463D310041542B434D47533D22004154C6
:1008A0002B434D47463D310041542B434D47533D6B
:1008B000220041542B434D47463D310041542B43C8
:1008C0004D47533D220041542B434D47463D310097
:1008D00041542B434D47533D220041542B434D4738
:1008E000463D310041542B434D47533D2200415476
:1008F0002B434D47463D310041542B434D47533D1B
:10090000220041542B434D47463D310041542B4377
:100910004D47533D220041542B434D47463D310046
:1009200041542B434D47533D220041542B434D47E7
:10093000463D310041542B434D47533D2200415425
:100940002B434D47463D310041542B434D47533DCA
:10095000220041542B434D47533D220041542B4329
:100960004D47533D220041542B434D47533D2200F8
:1009700041542B434D47533D220041542B434D4797
:10098000533D220041542B434D47533D22004154D7
:100990002B434D47533D220041542B434D47533D7C
:1009A000220041542B434D47533D220041542B43D9
:1009B0004D47533D220041542B434D47533D2200A8
:1009C00041542B434D47533D220041542B434D4747
:1009D000533D220041542B434D47533D2200415487
:1009E0002B434D47533D220041542B434D47533D2C
:1009F000220041542B434D47533D220041542B4389
:100A00004D47533D220041542B434D47533D220057
:100A100041542B434D47533D220041542B434D47F6
:100A2000463D31000E0EEA6E450EE96EEF5011E0C4
:100A3000050E016EBF0E006E0400002EFDD7012EC4
:100A4000F9D72E0E006E002EFED700000400EF2E08
:100A5000EFD71200929A899A0E0146514009496FC8
:100A6000C95049CEC9FFC730FEE3C95047CEC9FFC0
:100A7000C730FEE3C95048CEC9FFC730FEE3929AA3
:100A8000898A00011200929A898A929A0E01466B15
:100A90000A0E476FAA0E486F0001DCDF020E0E013E
:100AA000466F0A0E476FAA0E486F0001D3DF040E8F
:100AB0000E01466F0A0E476FAA0E486F0001CADF8B
:100AC000060E0E01466F0A0E476FAA0E486F000110
:100AD000C1DF080E0E01466F0A0E476FAA0E486F5F
:100AE0000001B8DF0A0E0E01466F476FAA0E486F6D
:100AF0000001B0DF0C0E0E01466F0A0E476FAA0E02
:100B0000486F0001A7DF0E0E0E01466F0A0E476FF9
:100B1000AA0E486F00019EDFD6EF62F03CCE46FE83
:100B20000E01476B3DCE48FE000194DF12003CCE23
:100B300046FE100E0E01476F3DCE48FE00018ADFD3
:100B40001200F2CF46FEF29EAA6A010EA96EA69C82
:100B5000A69EA680A8500E0146BFF28E346E34C009
:100B600035F00D01A99134B0A981D8903430A99302
:100B7000E8B0A9833430006E00323F0E0016A9950C
:100B800000B0A9853430006E003200321F0E00160E
:100B9000A99700B0A9873438006E0F0E0016A999E6
:100BA00000B0A9893438006E0032070E0016A99BE8
:100BB00000B0A98B3438006E00320032030E0016EC
:100BC000A99D00B0A98D006A34BE0080A99F00B025
:100BD000A98FF2CF46FEF29EAA6A020EA96EA69CCB
:100BE000A69EA680A8500E0146BFF28E346E34C079
:100BF00036F00D01AA9134B0AA81D8903430AA936E
:100C0000E8B0AA833430006E00323F0E0016AA9579
:100C100000B0AA853430006E003200321F0E00167C
:100C2000AA9700B0AA873438006E0F0E0016AA9952
:100C300000B0AA893438006E0032070E0016AA9B55
:100C400000B0AA8B3438006E00320032030E00165A
:100C5000AA9D00B0AA8D006A34BE0080AA9F00B091
:100C6000AA8FF2CF46FEF29EAA6A030EA96EA69C38
:100C7000A69EA680A8500E0146BFF28E346E34C0E8
:100C800037F00D01AB9134B0AB81D8903430AB93D9
:100C9000E8B0AB833430006E00323F0E0016AB95E7
:100CA00000B0AB853430006E003200321F0E0016EB
:100CB000AB9700B0AB873438006E0F0E0016AB99BF
:100CC00000B0AB893438006E0032070E0016AB9BC3
:100CD00000B0AB8B3438006E00320032030E0016C9
:100CE000AB9D00B0AB8D006A34BE0080AB9F00B0FE
:100CF000AB8F0E0133930D01A9A103D00E013383F5
:100D00000D010E0133950D01A9A303D00E0133850A
:100D10000D010E0133970D01A9A503D00E013387F4
:100D20000D010E0133990D01A9A703D00E013389DE
:100D30000D010E01339B0D01A9A903D00E01338BC8
:100D40000D010E01339D0D01A9AB03D00E01338DB2
:100D50000D010E01339F0D01A9AD03D00E01338F9C
:100D60000D010E0134910D01A9AF03D00E013481A4
:100D70000D010E0134930D01AAA103D00E0134839D
:100D80000D010E0134950D01AAA303D00E01348587
:100D90000D010E0134970D01AAA503D00E01348771
:100DA0000D010E0134990D01AAA703D00E0134895B
:100DB0000D010E01349B0D01AAA903D00E01348B45
:100DC0000D010E01349D0D01AAAB03D00E01348D2F
:100DD0000D010E01349F0D01AAAD03D00E01348F19
:100DE0000D010E0135910D01AAAF03D00E01358121
:100DF0000D010E0135930D01ABA103D00E0135831A
:100E00000D010E0135950D01ABA303D00E01358503
:100E10000D010E0135970D01ABA503D00E013587ED
:100E20000D010E0135990D01ABA703D00E013589D7
:100E30000D01F2CF46FEF29EAA6A040EA96EA69C90
:100E4000A69EA680A8500E0146BFF28E346E34C016
:100E500038F00D01AD9134B0AD81D8903430AD9300
:100E6000E8B0AD833430006E00323F0E0016AD9511
:100E700000B0AD853430006E003200321F0E001617
:100E8000AD9700B0AD873438006E0F0E0016AD99E7
:100E900000B0AD893438006E0032070E0016AD9BED
:100EA00000B0AD8B3438006E00320032030E0016F5
:100EB000AD9D00B0AD8D006A34BE0080AD9F00B026
:100EC000AD8FF2CF46FEF29EAA6A050EA96EA69CD1
:100ED000A69EA680A8500E0146BFF28E346E34C086
:100EE00039F00D01AE9134B0AE81D8903430AE936C
:100EF000E8B0AE833430006E00323F0E0016AE957F
:100F000000B0AE853430006E003200321F0E001685
:100F1000AE9700B0AE873438006E0F0E0016AE9953
:100F200000B0AE893438006E0032070E0016AE9B5A
:100F300000B0AE8B3438006E00320032030E001663
:100F4000AE9D00B0AE8D006A34BE0080AE9F00B092
:100F5000AE8FF2CF46FEF29EAA6A060EA96EA69C3E
:100F6000A69EA680A8500E0146BFF28E346E34C0F5
:100F70003AF00D01AF9134B0AF81D8903430AF93D7
:100F8000E8B0AF833430006E00323F0E0016AF95EC
:100F900000B0AF853430006E003200321F0E0016F4
:100FA000AF9700B0AF873438006E0F0E0016AF99C0
:100FB00000B0AF893438006E0032070E0016AF9BC8
:100FC00000B0AF8B3438006E00320032030E0016D2
:100FD000AF9D00B0AF8D006A34BE0080AF9F00B0FF
:100FE000AF8FF2CF46FEF29EAA6A070EA96EA69CAC
:100FF000A69EA680A8500E0146BFF28E346E34C065
:101000003BF00D01B19134B0B181D8903430B1933F
:10101000E8B0B1833430006E00323F0E0016B19557
:1010200000B0B1853430006E003200321F0E001661
:10103000B19700B0B1873438006E0F0E0016B19929
:1010400000B0B1893438006E0032070E0016B19B33
:1010500000B0B18B3438006E00320032030E00163F
:10106000B19D00B0B18D006A34BE0080B19F00B068
:10107000B18FF2CF46FEF29EAA6A080EA96EA69C18
:10108000A69EA680A8500E0146BFF28E346E34C0D4
:101090003CF00D01B29134B0B281D8903430B293AB
:1010A000E8B0B2833430006E00323F0E0016B295C5
:1010B00000B0B2853430006E003200321F0E0016D0
:1010C000B29700B0B2873438006E0F0E0016B29996
:1010D00000B0B2893438006E0032070E0016B29BA1
:1010E00000B0B28B3438006E00320032030E0016AE
:1010F000B29D00B0B28D006A34BE0080B29F00B0D5
:10110000B28FF2CF46FEF29EAA6A090EA96EA69C85
:10111000A69EA680A8500E0146BFF28E346E34C043
:101120003DF00D01B39134B0B381D8903430B39316
:10113000E8B0B3833430006E00323F0E0016B39532
:1011400000B0B3853430006E003200321F0E00163E
:10115000B39700B0B3873438006E0F0E0016B39902
:1011600000B0B3893438006E0032070E0016B39B0E
:1011700000B0B38B3438006E00320032030E00161C
:10118000B39D00B0B38D006A34BE0080B39F00B041
:10119000B38FF2CF46FEF29EAA6A0A0EA96EA69CF3
:1011A000A69EA680A8500E0146BFF28E346E34C0B3
:1011B0003EF00D01B59134B0B581D8903430B5937F
:1011C000E8B0B5833430006E00323F0E0016B5959E
:1011D00000B0B5853430006E003200321F0E0016AC
:1011E000B59700B0B5873438006E0F0E0016B5996C
:1011F00000B0B5893438006E0032070E0016B59B7A
:1012000000B0B58B3438006E00320032030E001689
:10121000B59D00B0B58D006A34BE0080B59F00B0AA
:10122000B58FF2CF46FEF29EAA6A0B0EA96EA69C5F
:10123000A69EA680A8500E0146BFF28E346E34C022
:101240003FF00D01B69134B0B681D8903430B693EA
:10125000E8B0B6833430006E00323F0E0016B6950B
:1012600000B0B6853430006E003200321F0E00161A
:10127000B69700B0B6873438006E0F0E0016B699D8
:1012800000B0B6893438006E0032070E0016B69BE7
:1012900000B0B68B3438006E00320032030E0016F8
:1012A000B69D00B0B68D006A34BE0080B69F00B017
:1012B000B68FF2CF46FEF29EAA6A0C0EA96EA69CCD
:1012C000A69EA680A8500E0146BFF28E346E34C092
:1012D00040F00D01B79134B0B781D8903430B79356
:1012E000E8B0B7833430006E00323F0E0016B79579
:1012F00000B0B7853430006E003200321F0E001689
:10130000B79700B0B7873438006E0F0E0016B79944
:1013100000B0B7893438006E0032070E0016B79B54
:1013200000B0B78B3438006E00320032030E001666
:10133000B79D00B0B78D006A34BE0080B79F00B083
:10134000B78FF2CF46FEF29EAA6A0D0EA96EA69C3A
:10135000A69EA680A8500E0146BFF28E346E34C001
:1013600041F00D01B99134B0B981D8903430B993BE
:10137000E8B0B9833430006E00323F0E0016B995E4
:1013800000B0B9853430006E003200321F0E0016F6
:10139000B99700B0B9873438006E0F0E0016B999AE
:1013A00000B0B9893438006E0032070E0016B99BC0
:1013B00000B0B98B3438006E00320032030E0016D4
:1013C000B99D00B0B98D006A34BE0080B99F00B0ED
:1013D000B98FF2CF46FEF29EAA6A0E0EA96EA69CA7
:1013E000A69EA680A8500E0146BFF28E346E34C071
:1013F00042F00D01BA9134B0BA81D8903430BA932A
:10140000E8B0BA833430006E00323F0E0016BA9551
:1014100000B0BA853430006E003200321F0E001664
:10142000BA9700B0BA873438006E0F0E0016BA991A
:1014300000B0BA893438006E0032070E0016BA9B2D
:1014400000B0BA8B3438006E00320032030E001642
:10145000BA9D00B0BA8D006A34BE0080BA9F00B059
:10146000BA8FF2CF46FEF29EAA6A0F0EA96EA69C14
:10147000A69EA680A8500E0146BFF28E346E34C0E0
:1014800043F00D01BB9134B0BB81D8903430BB9395
:10149000E8B0BB833430006E00323F0E0016BB95BF
:1014A00000B0BB853430006E003200321F0E0016D3
:1014B000BB9700B0BB873438006E0F0E0016BB9987
:1014C00000B0BB893438006E0032070E0016BB9B9B
:1014D00000B0BB8B3438006E00320032030E0016B1
:1014E000BB9D00B0BB8D006A34BE0080BB9F00B0C6
:1014F000BB8FF2CF46FEF29EAA6A100EA96EA69C82
:10150000A69EA680A8500E0146BFF28E346E0D0135
:10151000CD9134B0CD81D8903430CD93E8B0CD8327
:101520003430006E00323F0E0016CD9500B0CD85F0
:101530003430006E003200321F0E0016CD9700B01E
:10154000CD873438006E0F0E0016CD9900B0CD89CE
:101550003438006E0032070E0016CD9B00B0CD8BE4
:101560003438006E00320032030E0016CD9D00B0FC
:10157000CD8D006A34BE0080CD9F00B0CD8FF2CFFC
:1015800046FEF29EAA6A110EA96EA69CA69EA68091
:10159000A8500E0146BFF28E346E0D01CE9134B0CC
:1015A000CE81D8903430CE93E8B0CE83F2CF46FED1
:1015B000F29EAA6A120EA96EA69CA69EA680A850AC
:1015C0000E0146BFF28E346E0D01CE9534B0CE853D
:1015D000D8903430CE97E8B0CE873430006E0032E9
:1015E0003F0E0016CE9900B0CE893430006E003226
:1015F00000321F0E0016CE9B00B0CE8B3438006E2A
:101600000F0E0016CE9D00B0CE8D3438006E003225
:10161000070E0016CE9F00B0CE8F3438006E003219
:101620000032030E0016CF9100B0CF81006A34BEA5
:101630000080CF9300B0CF83F2CF46FEF29EAA6A1D
:10164000130EA96EA69CA69EA680A8500E0146BFAA
:10165000F28E346E0D01CF9534B0CF85D8903430F2
:10166000CF97E8B0CF87F2CF46FEF29EAA6A140E5B
:10167000A96EA69CA69EA680A8500E0146BFF28E1B
:10168000346E0D01D19134B0D181D8903430D193E2
:10169000E8B0D1833430006E00323F0E0016D19591
:1016A00000B0D1853430006E003200321F0E0016BB
:1016B000D19700B0D1873438006E0F0E0016D19943
:1016C00000B0D1893438006E0032070E0016D19B6D
:1016D00000B0D18B3438006E00320032030E001699
:1016E000D19D00B0D18D006A34BE0080D19F00B082
:1016F000D18FF2CF46FEF29EAA6A150EA96EA69C65
:10170000A69EA680A8500E0146BFF28E346E0D0133
:10171000D29134B0D281D8903430D293E8B0D28311
:10172000F2CF46FEF29EAA6A160EA96EA69CA69E4F
:10173000A680A8500E0146BFF28E346E0D01D295E0
:1017400034B0D285D8903430D297E8B0D2873430D4
:10175000006E00323F0E0016D29900B0D2893430AC
:10176000006E003200321F0E0016D29B00B0D28BEA
:101770003438006E0F0E0016D29D00B0D28D343872
:10178000006E0032070E0016D29F00B0D28F3438A0
:10179000006E00320032030E0016D39100B0D381E8
:1017A000006A34BE0080D39300B0D383F2CF46FEEC
:1017B000F29EAA6A170EA96EA69CA69EA680A850A5
:1017C0000E0146BFF28E346E0D01D39534B0D38531
:1017D000D8903430D397E8B0D387F2CF46FEF29E4C
:1017E000AA6A180EA96EA69CA69EA680A8500E01F5
:1017F00046BFF28E536EF2CF46FEF29EAA6A190ED3
:10180000A96EA69CA69EA680A85046BFF28E546ED6
:10181000F2CF46FEF29EAA6A1A0EA96EA69CA69E5A
:10182000A680A85046BFF28E556EF2CF46FEF29EBD
:10183000AA6A1B0EA96EA69CA69EA680A85046BFAB
:10184000F28E566EF2CF46FEF29EAA6A1C0EA96E6A
:10185000A69CA69EA680A85046BFF28E0A6B096F72
:10186000F2CF46FEF29EAA6A1D0EA96EA69CA69E07
:10187000A680A85046BFF28E0001626FF2CF46FEEE
:10188000F29EAA6A1E0EA96EA69CA69EA680A850CD
:101890000E0146BFF28E0C6B0B6FF2CF46FEF29E2E
:1018A000AA6A1F0EA96EA69CA69EA680A85046BF37
:1018B000F28E0E6B0D6FF2CF46FEF29EAA6A200EDC
:1018C000A96EA69CA69EA680A85046BFF28E106B5D
:1018D0000F6FF2CF46FEF29EAA6A210EA96EA69C59
:1018E000A69EA680A85046BFF28E126B116FF2CF53
:1018F00046FEF29EAA6A220EA96EA69CA69EA6800D
:10190000A85046BFF28E146B136FF2CF46FEF29EC4
:10191000AA6A230EA96EA69CA69EA680A85046BFC2
:10192000F28E166B156FF2CF46FEF29EAA6A240E57
:10193000A96EA69CA69EA680A85046BFF28E186BE4
:10194000176FF2CF46FEF29EAA6A250EA96EA69CDC
:10195000A69EA680A85046BFF28E1A6B196FF2CFD2
:1019600046FEF29EAA6A260EA96EA69CA69EA68098
:10197000A85046BFF28E1C6B1B6FF2CF46FEF29E44
:10198000AA6A270EA96EA69CA69EA680A85046BF4E
:10199000F28E1E6B1D6FF2CF46FEF29EAA6A280ED3
:1019A000A96EA69CA69EA680A85046BFF28E206B6C
:1019B0001F6FF2CF46FEF29EAA6A290EA96EA69C60
:1019C000A69EA680A85046BFF28E226B216FF2CF52
:1019D00046FEF29EAA6A2A0EA96EA69CA69EA68024
:1019E000A85046BFF28E246B236FF2CF46FEF29EC4
:1019F000AA6A2B0EA96EA69CA69EA680A85046BFDA
:101A0000F28E266B256FF2CF46FEF29EAA6A2C0E4E
:101A1000A96EA69CA69EA680A85046BFF28E286BF3
:101A2000276FF2CF46FEF29EAA6A2D0EA96EA69CE3
:101A3000A69EA680A85046BFF28E2A6B296FF2CFD1
:101A400046FEF29EAA6A2E0EA96EA69CA69EA680AF
:101A5000A85046BFF28E2C6B2B6FF2CF46FEF29E43
:101A6000AA6A2F0EA96EA69CA69EA680A85046BF65
:101A7000F28E2E6B2D6FF2CF46FEF29EAA6A300ECA
:101A8000A96EA69CA69EA680A85046BFF28E306B7B
:101A90002F6FF2CF46FEF29EAA6A310EA96EA69C67
:101AA000A69EA680A85046BFF28E326B316F3C6B6B
:101AB0000400320E3C25466FF2CF47FEF29EAA6A22
:101AC00046CEA9FFA69CA69EA680A85047BFF28E30
:101AD0003D6F3D510D0803E03C510F0824E2036ABD
:101AE0003C51720FE96E0A0E0320EA6EEF6A320E65
:101AF0003C25466FF250006EF29EAA6A46CEA9FFC0
:101B00003DCEA8FFA69CA69EA6840F01550EA76EEB
:101B1000AA0EA76EA682A6B2FED7A6940050F21215
:101B200010D00BD00E01036A3C51720FE96E0A0E01
:101B30000320EA6E3DCEEFFF0F010E013C2BB8D71C
:101B40000F010E013F6B030E3E6F416B406B436B09
:101B5000426B04005D0E3E25466F000E3F21476F2D
:101B6000F2CF48FEF29E47CEAAFF46CEA9FFA69C22
:101B7000A69EA680A85048BFF28E456B446F445184
:101B80000D0802E1455305E0415303E140511E08B1
:101B900009E2810E4025E96E0A0E4121EA6EEF6AE4
:101BA00013D008D0810E4025E96E0A0E4121EA6E5D
:101BB00044CEEFFF3FCE03F03E513E2BD8B43F2B37
:101BC000402BD8B4412BC5D73E2BD8B43F2B416B0B
:101BD000406B04005D0E3E25466F000E3F21476FAF
:101BE000F2CF48FEF29E47CEAAFF46CEA9FFA69CA2
:101BF000A69EA680A85048BFF28E456B446F445104
:101C00000D0802E1455305E0415303E140511E0830
:101C100009E2A10E4025E96E0A0E4121EA6EEF6A43
:101C200013D008D0A10E4025E96E0A0E4121EA6EBC
:101C300044CEEFFF3FCE03F03E513E2BD8B43F2BB6
:101C4000402BD8B4412BC5D73E2BD8B43F2B416B8A
:101C5000406B04005D0E3E25466F000E3F21476F2E
:101C6000F2CF48FEF29E47CEAAFF46CEA9FFA69C21
:101C7000A69EA680A85048BFF28E456B446F445183
:101C80000D0802E1455305E0415303E140511E08B0
:101C900009E2C10E4025E96E0A0E4121EA6EEF6AA3
:101CA00013D008D0C10E4025E96E0A0E4121EA6E1C
:101CB00044CEEFFF3FCE03F03E513E2BD8B43F2B36
:101CC000402BD8B4412BC5D73E2BD8B43F2B416B0A
:101CD000406B04005D0E3E25466F000E3F21476FAE
:101CE000F2CF48FEF29E47CEAAFF46CEA9FFA69CA1
:101CF000A69EA680A85048BFF28E456B446F445103
:101D00000D0802E1455305E0415303E140511E082F
:101D100009E2E10E4025E96E0A0E4121EA6EEF6A02
:101D200013D008D0E10E4025E96E0A0E4121EA6E7B
:101D300044CEEFFF3FCE03F03E513E2BD8B43F2BB5
:101D4000402BD8B4412BC5D73E2BD8B43F2B416B89
:101D5000406B04005D0E3E25466F000E3F21476F2D
:101D6000F2CF48FEF29E47CEAAFF46CEA9FFA69C20
:101D7000A69EA680A85048BFF28E456B446F445182
:101D80000D0802E1455305E0415303E140511E08AF
:101D900009E2010E4025E96E0B0E4121EA6EEF6A61
:101DA00013D008D0010E4025E96E0B0E4121EA6EDA
:101DB00044CEEFFF3FCE03F03E513E2BD8B43F2B35
:101DC000402BD8B4412BC5D73E2BD8B43F2B416B09
:101DD000406B04005D0E3E25466F000E3F21476FAD
:101DE000F2CF48FEF29E47CEAAFF46CEA9FFA69CA0
:101DF000A69EA680A85048BFF28E456B446F445102
:101E00000D0802E1455305E0415303E140511E082E
:101E100009E2210E4025E96E0B0E4121EA6EEF6AC0
:101E200013D008D0210E4025E96E0B0E4121EA6E39
:101E300044CEEFFF3FCE03F03E513E2BD8B43F2BB4
:101E4000402BD8B4412BC5D73E2BD8B43F2B416B88
:101E5000406B04005D0E3E25466F000E3F21476F2C
:101E6000F2CF48FEF29E47CEAAFF46CEA9FFA69C1F
:101E7000A69EA680A85048BFF28E456B446F445181
:101E80000D0802E1455305E0415303E140511E08AE
:101E900009E2410E4025E96E0B0E4121EA6EEF6A20
:101EA00013D008D0410E4025E96E0B0E4121EA6E99
:101EB00044CEEFFF3FCE03F03E513E2BD8B43F2B34
:101EC000402BD8B4412BC5D73E2BD8B43F2B416B08
:101ED000406B04005D0E3E25466F000E3F21476FAC
:101EE000F2CF48FEF29E47CEAAFF46CEA9FFA69C9F
:101EF000A69EA680A85048BFF28E456B446F445101
:101F00000D0802E1455305E0415303E140511E082D
:101F100009E2610E4025E96E0B0E4121EA6EEF6A7F
:101F200013D008D0610E4025E96E0B0E4121EA6EF8
:101F300044CEEFFF3FCE03F03E513E2BD8B43F2BB3
:101F4000402BD8B4412BC5D73E2BD8B43F2B416B87
:101F5000406B04005D0E3E25466F000E3F21476F2B
:101F6000F2CF48FEF29E47CEAAFF46CEA9FFA69C1E
:101F7000A69EA680A85048BFF28E456B446F445180
:101F80000D0802E1455305E0415303E140511E08AD
:101F900009E2810E4025E96E0B0E4121EA6EEF6ADF
:101FA00013D008D0810E4025E96E0B0E4121EA6E58
:101FB00044CEEFFF3FCE03F03E513E2BD8B43F2B33
:101FC000402BD8B4412BC5D73E2BD8B43F2B416B07
:101FD000406B04005D0E3E25466F000E3F21476FAB
:101FE000F2CF48FEF29E47CEAAFF46CEA9FFA69C9E
:101FF000A69EA680A85048BFF28E456B446F445100
:102000000D0802E1455305E0415303E140511E082C
:1020100009E2A10E4025E96E0B0E4121EA6EEF6A3E
:1020200013D008D0A10E4025E96E0B0E4121EA6EB7
:1020300044CEEFFF3FCE03F03E513E2BD8B43F2BB2
:10204000402BD8B4412BC5D73E2BD8B43F2B416B86
:10205000406B04005D0E3E25466F000E3F21476F2A
:10206000F2CF48FEF29E47CEAAFF46CEA9FFA69C1D
:10207000A69EA680A85048BFF28E456B446F44517F
:102080000D0802E1455305E0415303E140511E08AC
:1020900009E2C10E4025E96E0B0E4121EA6EEF6A9E
:1020A00013D008D0C10E4025E96E0B0E4121EA6E17
:1020B00044CEEFFF3FCE03F03E513E2BD8B43F2B32
:1020C000402BD8B4412BC5D73E2BD8B43F2B416B06
:1020D000406B04005D0E3E25466F000E3F21476FAA
:1020E000F2CF48FEF29E47CEAAFF46CEA9FFA69C9D
:1020F000A69EA680A85048BFF28E456B446F4451FF
:102100000D0802E1455305E0415303E140511E082B
:1021100009E2E10E4025E96E0B0E4121EA6EEF6AFD
:1021200013D008D0E10E4025E96E0B0E4121EA6E76
:1021300044CEEFFF3FCE03F03E513E2BD8B43F2BB1
:10214000402BD8B4412BC5D73E2BD8B43F2B416B85
:10215000406B04005D0E3E25466F000E3F21476F29
:10216000F2CF48FEF29E47CEAAFF46CEA9FFA69C1C
:10217000A69EA680A85048BFF28E456B446F44517E
:102180000D0802E1455305E0415303E140511E08AB
:1021900009E2010E4025E96E0C0E4121EA6EEF6A5C
:1021A00013D008D0010E4025E96E0C0E4121EA6ED5
:1021B00044CEEFFF3FCE03F03E513E2BD8B43F2B31
:1021C000402BD8B4412BC5D73E2BD8B43F2B416B05
:1021D000406B04005D0E3E25466F000E3F21476FA9
:1021E000F2CF48FEF29E47CEAAFF46CEA9FFA69C9C
:1021F000A69EA680A85048BFF28E456B446F4451FE
:102200000D0802E1455305E0415303E140511E082A
:1022100009E2210E4025E96E0C0E4121EA6EEF6ABB
:1022200013D008D0210E4025E96E0C0E4121EA6E34
:1022300044CEEFFF3FCE03F03E513E2BD8B43F2BB0
:10224000402BD8B4412BC5D73E2BD8B43F2B416B84
:10225000406B04005D0E3E25466F000E3F21476F28
:10226000F2CF48FEF29E47CEAAFF46CEA9FFA69C1B
:10227000A69EA680A85048BFF28E456B446F44517D
:102280000D0802E1455305E0415303E140511E08AA
:1022900009E2410E4025E96E0C0E4121EA6EEF6A1B
:1022A00013D008D0410E4025E96E0C0E4121EA6E94
:1022B00044CEEFFF3FCE03F03E513E2BD8B43F2B30
:1022C000402BD8B4412BC5D73E2BD8B43F2B416B04
:1022D000406B04005D0E3E25466F000E3F21476FA8
:1022E000F2CF48FEF29E47CEAAFF46CEA9FFA69C9B
:1022F000A69EA680A85048BFF28E456B446F4451FD
:102300000D0802E1455305E0415303E140511E0829
:1023100009E2610E4025E96E0C0E4121EA6EEF6A7A
:1023200013D008D0610E4025E96E0C0E4121EA6EF3
:1023300044CEEFFF3FCE03F03E513E2BD8B43F2BAF
:10234000402BD8B4412BC5D73E2BD8B43F2B416B83
:10235000406B04005D0E3E25466F000E3F21476F27
:10236000F2CF48FEF29E47CEAAFF46CEA9FFA69C1A
:10237000A69EA680A85048BFF28E456B446F44517C
:102380000D0802E1455305E0415303E140511E08A9
:1023900009E2810E4025E96E0C0E4121EA6EEF6ADA
:1023A00013D008D0810E4025E96E0C0E4121EA6E53
:1023B00044CEEFFF3FCE03F03E513E2BD8B43F2B2F
:1023C000402BD8B4412BC5D73E2BD8B43F2B416B03
:1023D000406B04005D0E3E25466F000E3F21476FA7
:1023E000F2CF48FEF29E47CEAAFF46CEA9FFA69C9A
:1023F000A69EA680A85048BFF28E456B446F4451FC
:102400000D0802E1455305E0415303E140511E0828
:1024100009E2A10E4025E96E0C0E4121EA6EEF6A39
:1024200013D008D0A10E4025E96E0C0E4121EA6EB2
:1024300044CEEFFF3FCE03F03E513E2BD8B43F2BAE
:10244000402BD8B4412BC5D73E2BD8B43F2B416B82
:10245000406B04005D0E3E25466F000E3F21476F26
:10246000F2CF48FEF29E47CEAAFF46CEA9FFA69C19
:10247000A69EA680A85048BFF28E456B446F44517B
:102480000D0802E1455305E0415303E140511E08A8
:1024900009E2C10E4025E96E0C0E4121EA6EEF6A99
:1024A00013D008D0C10E4025E96E0C0E4121EA6E12
:1024B00044CEEFFF3FCE03F03E513E2BD8B43F2B2E
:1024C000402BD8B4412BC5D73E2BD8B43F2B416B02
:1024D000406B04005D0E3E25466F000E3F21476FA6
:1024E000F2CF48FEF29E47CEAAFF46CEA9FFA69C99
:1024F000A69EA680A85048BFF28E456B446F4451FB
:102500000D0802E1455305E0415303E140511E0827
:1025100009E2E10E4025E96E0C0E4121EA6EEF6AF8
:1025200013D008D0E10E4025E96E0C0E4121EA6E71
:1025300044CEEFFF3FCE03F03E513E2BD8B43F2BAD
:10254000402BD8B4412BC5D70001120044CE46FE23
:102550000A0E0E01476F45CE48FE00012AEC05F039
:10256000120044CE46FE1A0E0E01476F45CE48FEBD
:1025700000012AEC05F012000E014951070B006E14
:102580004931016E013201321F0E011601504B25F7
:10259000E96E000E4C21EA6E016A012A002A01D080
:1025A0000136002EFDD74A5303E00150EF1203D04D
:1025B000011E0150EF16000112000E014951070BD8
:1025C000006E4931016E013201321F0E01160150B9
:1025D0004A25E96E000E4B21EA6EEFCF01F0002A8A
:1025E00001D00132002EFDD7010E011600011200AC
:1025F00093908A90080E016E00D00000018E10D0DA
:10260000019E0E0146330001D8B08A80D8A08A907E
:10261000018C06D0019C012EF4D700D000008A80E6
:10262000840EE96EE92EFED700D0000001BEE8D787
:1026300001BCF0D712000900F5520CE0F6CF44FEC1
:10264000F7CF45FEF5CF46FED3DF44CEF6FF45CEAD
:10265000F7FFF1D712000601656964690E014A6B44
:1026600048514A5D21E204004A514625E96E000EB8
:102670004721EA6EEF50060165190E01496F036AA2
:10268000495100015DEC00F0016E06016451011832
:10269000656F036A0E0149510001E5EC00F0E8CFD7
:1026A00064F60E014A2BDCD7000112009EA8FED76B
:1026B000AD6E12001E6A1F6A206A266A276A286A9F
:1026C0000D01C1B104D0A5B102D0C98101D0C99119
:1026D000C1B304D0A5B302D0C98301D0C993C1B599
:1026E00004D0A5B502D0C98501D0C995C1B704D021
:1026F000A5B702D0C98701D0C997C1B904D0A5B97F
:1027000002D0C98901D0C999C1BB04D0A5BB02D0F0
:10271000C98B01D0C99BC1BD04D0A5BD02D0C98D54
:1027200001D0C99DC1BF04D0A5BF02D0C98F01D0BF
:10273000C99FC2B104D0A6B102D0CA8101D0CA914A
:10274000C2B304D0A6B302D0CA8301D0CA93C2B523
:1027500004D0A6B502D0CA8501D0CA95C2B704D0AC
:10276000A6B702D0CA8701D0CA97C2B904D0A6B909
:1027700002D0CA8901D0CA99C2BB04D0A6BB02D07C
:10278000CA8B01D0CA9BC2BD04D0A6BD02D0CA8DDF
:1027900001D0CA9DC2BF04D0A6BF02D0CA8F01D04B
:1027A000CA9FC3B104D0A7B102D0CB8101D0CB91D5
:1027B000C3B304D0A7B302D0CB8301D0CB93C3B5AE
:1027C00004D0A7B502D0CB8501D0CB95C3B704D038
:1027D000A7B702D0CB8701D0CB97000EC9BF010E9F
:1027E0002612D89026340E01466F000E0D01C9BD89
:1027F000010E0E014611266ED8902634466F000E4B
:102800000D01C9BB010E0E014611266ED89026346B
:10281000466F000E0D01C9B9010E0E014611266E5C
:10282000D8902634466F000E0D01C9B7010E0E0177
:102830004611266ED8902634466F000E0D01C9B59C
:10284000010E0E014611266ED8902634466F000EFA
:102850000D01C9B3010E0E014611266ED890263423
:10286000466F000E0D01C9B1010E0E014611266E14
:10287000000E0D01CABF010E2712D89027340E0199
:10288000466F000E0D01CABD010E0E014611276EE6
:10289000D8902734466F000E0D01CABB010E0E0101
:1028A0004611276ED8902734466F000E0D01CAB925
:1028B000010E0E014611276ED8902734466F000E88
:1028C0000D01CAB7010E0E014611276ED8902734AC
:1028D000466F000E0D01CAB5010E0E014611276E9E
:1028E000D8902734466F000E0D01CAB3010E0E01B9
:1028F0004611276ED8902734466F000E0D01CAB1DD
:10290000010E0E014611276E000E0D01CBBF010E08
:102910002812D89028340E01466F000E0D01CBBD51
:10292000010E0E014611286ED8902834466F000E15
:102930000D01CBBB010E0E014611286ED890283434
:10294000466F000E0D01CBB9010E0E014611286E27
:10295000D8902834466F000E0D01CBB7010E0E0142
:102960004611286ED8902834466F000E0D01CBB565
:10297000010E0E014611286ED8902834466F000EC5
:102980000D01CBB3010E0E014611286ED8902834EC
:10299000466F000E0D01CBB1010E0E014611286EDF
:1029A000000E0D01C1BF010E1E12D8901E340E0183
:1029B000466F000E0D01C1BD010E0E0146111E6EC7
:1029C000D8901E34466F000E0D01C1BB010E0E01E2
:1029D00046111E6ED8901E34466F000E0D01C1B90F
:1029E000010E0E0146111E6ED8901E34466F000E69
:1029F0000D01C1B7010E0E0146111E6ED8901E3496
:102A0000466F000E0D01C1B5010E0E0146111E6E7E
:102A1000D8901E34466F000E0D01C1B3010E0E0199
:102A200046111E6ED8901E34466F000E0D01C1B1C6
:102A3000010E0E0146111E6E000E0D01C2BF010EE9
:102A40001F12D8901F340E01466F000E0D01C2BD3B
:102A5000010E0E0146111F6ED8901F34466F000EF6
:102A60000D01C2BB010E0E0146111F6ED8901F341E
:102A7000466F000E0D01C2B9010E0E0146111F6E08
:102A8000D8901F34466F000E0D01C2B7010E0E0123
:102A900046111F6ED8901F34466F000E0D01C2B54F
:102AA000010E0E0146111F6ED8901F34466F000EA6
:102AB0000D01C2B3010E0E0146111F6ED8901F34D6
:102AC000466F000E0D01C2B1010E0E0146111F6EC0
:102AD000000E0D01C3BF010E2012D89020340E014C
:102AE000466F000E0D01C3BD010E0E014611206E92
:102AF000D8902034466F000E0D01C3BB010E0E01AD
:102B00004611206ED8902034466F000E0D01C3B9D7
:102B1000010E0E014611206ED8902034466F000E33
:102B20000D01C3B7010E0E014611206ED89020345E
:102B3000466F000E0D01C3B5010E0E014611206E49
:102B4000D8902034466F000E0D01C3B3010E0E0164
:102B50004611206ED8902034466F000E0D01C3B18F
:102B6000010E0E014611206E0001E9EF22F0929A4B
:102B7000899A0E01485141094B6FC9504BCEC9FF8C
:102B8000C730FEE3C95049CEC9FFC730FEE3C95084
:102B9000C96AC730FEE3C9CF4AFE929A898A4ACEF3
:102BA00001F00001120046CE48FE090E0E01496FE9
:102BB0000001DDDF01C047FE0E0147CE01F000013C
:102BC000120046CE48FE190E0E01496F0001CFDFFC
:102BD00001C047FE0E0147CE01F0000112000E01B8
:102BE0004A514C03F3CF01F0F4CF00F04D03F35002
:102BF00000264B514C03F3500020026E00011200DE
:102C00000E01466B466B46BF03D046511D0823E3B9
:102C1000036A4651006EE8BE0306476F03C048FED4
:102C2000036A4651006EE8BE0306496F0D0E4B6FF6
:102C3000DC0E4A6F0001C1DC47CE49FE0E014A6B33
:102C400001B04A2B0D0E4C6FD90E4B6F000194DC76
:102C50000E01462BD8D7000154EF1AF00E01466B37
:102C60000001A1DF01C06DFA1AA803D00A016D1F8F
:102C700000010D01DD970A016DA103D00D01DD8773
:102C80000A01D8906D310D01DD99E8B0DD890A01A6
:102C90006D31006E00323F0E00160D01DD9B00B05D
:102CA000DD8B0A016D31006E003200321F0E0016FE
:102CB0000D01DD9D00B0DD8D0A016D39006E0F0E36
:102CC00000160D01DD9F00B0DD8F0A016D39006E29
:102CD0000032070E00160D01DE9100B0DE810A0100
:102CE0006D39006E00320032030E00160D01DE93C6
:102CF00000B0DE83006A0A016DBF00800D01DE9521
:102D000000B0DE850E01466B00015BDF01C06DFA8D
:102D10001AA803D00A016D1F00010D01DE970A01F8
:102D20006DA103D00D01DE870A01D8906D310D0130
:102D3000DE99E8B0DE89020E0E01466F000133DF36
:102D400001C06DFA1AA803D00A016D1F00010D0120
:102D5000DC930A016DA103D00D01DC830A01D89038
:102D60006D310D01DC95E8B0DC850A016D31006E36
:102D700000323F0E00160D01DC9700B0DC870A011F
:102D80006D31006E003200321F0E00160D01DC990D
:102D900000B0DC890A016D39006E0F0E00160D01BE
:102DA000DC9B00B0DC8B0A016D39006E0032070E2F
:102DB00000160D01DC9D00B0DC8D0A016D39006E3E
:102DC00000320032030E00160D01DC9F00B0DC8FD4
:102DD000006A0A016DBF00800D01DD9100B0DD8148
:102DE000020E0E01466F0001ECDE01C06DFA1AA85A
:102DF00003D00A016D1F00010D01DD930A016DA1D1
:102E000003D00D01DD830A01D8906D310D01DD95F0
:102E1000E8B0DD85010E0E01456F45511408D8A0BC
:102E200040D345CE49FE0E0E4B6F330E4A6F000164
:102E3000DDEC12F00150010B0108D8A490D145CE71
:102E400049FE0D0E0E014B6FDC0E4A6F0001DDECEA
:102E500012F00150010BD8A4C1D045CE49FE0D0E91
:102E60000E014B6FD90E4A6F0001DDEC12F00150DC
:102E7000010BD8A4A5D0D8900E014535036ADF0F09
:102E8000E96E0D0E0320EA6E010EEE2601E3EF2A35
:102E9000D8904535036ADF0FE96E0D0E0320EA6E08
:102EA000ECCF47FEED52EFCF46FED8904535036A92
:102EB000090FE96E0E0E0320EA6EECCF4BFEED52C9
:102EC000EFCF4AFE4D6B4B0E4C6F000188DE02C007
:102ED00049FE01C048FE0F0E0E010124016E000ED6
:102EE0000220036E0350475DD8A068D003E1015073
:102EF000465D64E3D8904535036ADF0FE96E0D0E39
:102F00000320EA6EEC6AED52EF6A010E455DEC0FAC
:102F100055E2140F0001AFEF1BF00D01A1910E015E
:102F20004DD00D01A1930E0149D00D01A1950E01C7
:102F300045D00D01A1970E0141D00D01A1990E01BF
:102F40003DD00D01A19B0E0139D00D01A19D0E01B7
:102F500035D00D01A19F0E0131D00D01A2910E01BE
:102F60002DD00D01A2930E0129D00D01A2950E01C5
:102F700025D00D01A2970E0121D00D01A2990E01BD
:102F80001DD00D01A29B0E0119D00D01A29D0E01B5
:102F900015D00D01A29F0E0111D00D01A3910E01BC
:102FA0000DD00D01A3930E0109D00D01A3950E01C3
:102FB00005D00D01A3970E0101D00E010DD0000127
:102FC000D8900E014535036ADF0FE96E0D0E032020
:102FD000EA6EEC6AED52EF6AC1D0000145CE49FEBF
:102FE0000D0E0E014B6FD90E4A6F0001DDEC12F091
:102FF0000150010B0108D8A4A5D0D8900E01453589
:10300000036ADF0FE96E0D0E0320EA6E010EEE2655
:1030100001E3EF2AD8904535036ADF0FE96E0D0E04
:103020000320EA6EECCF47FEED52EFCF46FED8907C
:103030004535036A090FE96E0E0E0320EA6EECCFE8
:103040004BFEED52EFCF4AFE4D6B4B0E4C6F000125
:10305000C6DD02C049FE01C048FE0F0E0E0101246C
:10306000016E000E0220036E0350475DD8A068D0A9
:1030700003E10150465D64E3D8904535036ADF0FF4
:10308000E96E0D0E0320EA6EEC6AED52010EEF6E52
:10309000455DEC0F55E2140F0001D0EF1BF00D0160
:1030A000A1810E014DD00D01A1830E0149D00D016A
:1030B000A1850E0145D00D01A1870E0141D00D0162
:1030C000A1890E013DD00D01A18B0E0139D00D015A
:1030D000A18D0E0135D00D01A18F0E0131D00D0152
:1030E000A2810E012DD00D01A2830E0129D00D0168
:1030F000A2850E0125D00D01A2870E0121D00D0160
:10310000A2890E011DD00D01A28B0E0119D00D0157
:10311000A28D0E0115D00D01A28F0E0111D00D014F
:10312000A3810E010DD00D01A3830E0109D00D0165
:10313000A3850E0105D00D01A3870E0101D00E015C
:103140000DD00001D8900E014535036ADF0FE96EFE
:103150000D0E0320EA6EEC6AED52EF6A9ED145CE69
:1031600049FE0E0E0E014B6F330E4A6F0001DDEC6F
:1031700012F00150010BD8A491D145CE49FE0D0E9D
:103180000E014B6FDC0E4A6F0001DDEC12F00150B6
:10319000010B0108D8A4C2D045CE49FE0D0E0E0188
:1031A0004B6FD90E4A6F0001DDEC12F00150010B9C
:1031B0000108D8A4A5D0D8900E014535036ADF0FC9
:1031C000E96E0D0E0320EA6E010EEE2601E3EF2AF2
:1031D000D8904535036ADF0FE96E0D0E0320EA6EC5
:1031E000ECCF47FEED52EFCF46FED8904535036A4F
:1031F000090FE96E0E0E0320EA6EECCF4BFEED5286
:10320000EFCF4AFE4D6B4B0E4C6F0001E8DC02C065
:1032100049FE01C048FE0F0E0E010124016E000E92
:103220000220036E0350475DD8A068D003E101502F
:10323000465D64E3D8904535036ADF0FE96E0D0EF5
:103240000320EA6EEC6AED52EF6A010E455DEC0F69
:1032500055E2140F0001F1EF1BF00D01A1810E01E9
:103260004DD00D01A1830E0149D00D01A1850E01A4
:1032700045D00D01A1870E0141D00D01A1890E019C
:103280003DD00D01A18B0E0139D00D01A18D0E0194
:1032900035D00D01A18F0E0131D00D01A2810E019B
:1032A0002DD00D01A2830E0129D00D01A2850E01A2
:1032B00025D00D01A2870E0121D00D01A2890E019A
:1032C0001DD00D01A28B0E0119D00D01A28D0E0192
:1032D00015D00D01A28F0E0111D00D01A3810E0199
:1032E0000DD00D01A3830E0109D00D01A3850E01A0
:1032F00005D00D01A3870E0101D00E010DD00001F4
:10330000D8900E014535036ADF0FE96E0D0E0320DC
:10331000EA6EEC6AED52EF6AC0D0000145CE49FE7C
:103320000D0E0E014B6FD90E4A6F0001DDEC12F04D
:103330000150010BD8A4A5D0D8900E014535036AE1
:10334000DF0FE96E0D0E0320EA6E010EEE2601E39B
:10335000EF2AD8904535036ADF0FE96E0D0E032082
:10336000EA6EECCF47FEED52EFCF46FED8904535E2
:10337000036A090FE96E0E0E0320EA6EECCF4BFED6
:10338000ED52EFCF4AFE4D6B4B0E4C6F000127DC28
:1033900002C049FE01C048FE0F0E0E010124016E5D
:1033A000000E0220036E0350475DD8A068D003E1F1
:1033B0000150465D64E3D8904535036ADF0FE96E3E
:1033C0000D0E0320EA6EEC6AED52EF6A010E455DC8
:1033D000EC0F55E2140F000112EF1CF00D01A1914A
:1033E0000E014DD00D01A1930E0149D00D01A19503
:1033F0000E0145D00D01A1970E0141D00D01A199FB
:103400000E013DD00D01A19B0E0139D00D01A19DF2
:103410000E0135D00D01A19F0E0131D00D01A291F9
:103420000E012DD00D01A2930E0129D00D01A29500
:103430000E0125D00D01A2970E0121D00D01A299F8
:103440000E011DD00D01A29B0E0119D00D01A29DF0
:103450000E0115D00D01A29F0E0111D00D01A391F7
:103460000E010DD00D01A3930E0109D00D01A395FE
:103470000E0105D00D01A3970E0101D00E010DD054
:103480000001D8900E014535036ADF0FE96E0D0E7D
:103490000320EA6EEC6AED52EF6A00010E01452B43
:1034A000BCD4000100EF16F0466A000E0D01A3A384
:1034B000010E4612D89046340E01466F000E0D01E3
:1034C000A3A1010E0E014611466ED8904634466FF8
:1034D000000E0D01A2AF010E0E014611466ED890EE
:1034E0004634466F000E0D01A2AD010E0E014611CD
:1034F000466ED8904634466F000E0D01A2AB010E09
:103500000E014611466ED8904634466F000E0D01EE
:10351000A2A9010E0E014611466ED8904634466FA0
:10352000000E0D01A2A7010E0E014611466ED890A5
:103530004634466F000E0D01A2A5010E0E01461184
:10354000466E476A000E0D01A3A7010E4712D890E0
:1035500047340E01466F000E0D01A3A5010E0E01AA
:103560004611476E446A000E0D01A1AF010E4412D0
:10357000D89044340E01466F000E0D01A1AD010E2E
:103580000E014611446ED8904434466F000E0D0172
:10359000A1AB010E0E014611446ED8904434466F23
:1035A000000E0D01A1A9010E0E014611446ED89026
:1035B0004434466F000E0D01A1A7010E0E01461105
:1035C000446ED8904434466F000E0D01A1A5010E43
:1035D0000E014611446ED8904434466F000E0D0122
:1035E000A1A3010E0E014611446ED8904434466FDB
:1035F000000E0D01A1A1010E0E014611446E486A94
:10360000000E0D01A2AF010E4812D89048340E01F1
:10361000466F000E0D01A2AD010E0E014611486E5F
:10362000D8904834466F000E0D01A2AB010E0E017A
:103630004611486ED8904834466F000E0D01A2A97D
:10364000010E0E014611486ED8904834466F000EA8
:103650000D01A2A7010E0E014611486ED890483404
:10366000466F000E0D01A2A5010E0E014611486E17
:10367000D8904834466F000E0D01A2A3010E0E0132
:103680004611486ED8904834466F000E0D01A2A135
:10369000010E0E014611486E496A000E0D01A3AFDE
:1036A000010E4912D89049340E01466F000E0D01EB
:1036B000A3AD010E0E014611496ED8904934466FF4
:1036C000000E0D01A3AB010E0E014611496ED890FC
:1036D0004934466F000E0D01A3A9010E0E014611DB
:1036E000496ED8904934466F000E0D01A3A7010E14
:1036F0000E014611496ED8904934466F000E0D01F7
:10370000A3A5010E0E014611496ED8904934466FAB
:10371000000E0D01A3A3010E0E014611496ED890B3
:103720004934466F000E0D01A3A1010E0E01461192
:10373000496E456A000E0D01A2A3010E4512D890F4
:1037400045340E01466F000E0D01A2A1010E0E01BF
:103750004611456E0F0E49164A6A00011200E82410
:10376000F76AF736790FF66E370EF7220A00F55032
:10377000FA6E0800F550F96E1A2F222F2A2F322FD9
:103780003A2F422F4A2F522F5A2F622F6A2F722F11
:103790007A2F822F8A2F922F9A2FA22FAA2FB22F01
:1037A000E824F76AF736BB0FF66E370EF7220A00E9
:1037B000F550FA6E0800F550F96E9E30A630AE3026
:1037C000B630BE30C630CE30D630DE30E630EE30E9
:1037D000F630FE3006310E3116311E3126312E31D3
:1037E0003631E824F76AF736FD0FF66E370EF7220A
:1037F0000A00F550FA6E0800F550F96E5A3262323E
:103800006A3272327A3282328A3292329A32A232F8
:10381000AA32B232BA32C232CA32D232DA32E232E8
:10382000EA32F232E824F76AF7363F0FF66E380EC6
:10383000F7220A00F550FA6E0800F550F96EDC33F5
:10384000E433EC33F433FC3304340C3414341C34DC
:1038500024342C3434343C3444344C3454345C34C8
:1038600064346C347434948082B002D01AAE02D0C6
:103870001AA406D0320E0E01456F000112EC05F0BD
:10388000948082B002D01AAE02D01AA4AAD01A94A0
:103890001D6A0D01C1B102D0C5A104D0BD81C19185
:1038A000C591A591C1B302D0C5A304D0BD83C19376
:1038B000C593A593C1B502D0C5A504D0BD85C1955A
:1038C000C595A595C1B702D0C5A704D0BD87C1973E
:1038D000C597A597C1B902D0C5A904D0BD89C19922
:1038E000C599A599C1BB02D0C5AB04D0BD8BC19B06
:1038F000C59BA59BC1BD02D0C5AD04D0BD8DC19DEA
:10390000C59DA59DC1BF02D0C5AF04D0BD8FC19FCD
:10391000C59FA59FC2B102D0C6A104D0BE81C291ED
:10392000C691A691C2B302D0C6A304D0BE83C293EF
:10393000C693A693C2B502D0C6A504D0BE85C295D3
:10394000C695A695C2B702D0C6A704D0BE87C297B7
:10395000C697A697C2B902D0C6A904D0BE89C2999B
:10396000C699A699C2BB02D0C6AB04D0BE8BC29B7F
:10397000C69BA69BC2BD02D0C6AD04D0BE8DC29D63
:10398000C69DA69DC2BF02D0C6AF04D0BE8FC29F47
:10399000C69FA69FC3B102D0C7A104D0BF81C39167
:1039A000C791A791C3B302D0C7A304D0BF83C39369
:1039B000C793A793C3B502D0C7A504D0BF85C3954D
:1039C000C795A795C3B702D0C7A704D0BF87C39731
:1039D000C797A7971A8E899892988996929608D039
:1039E0000001948082A003D01AAE01D01A9E0D016E
:1039F00000011200948282B202D030A002D01AA636
:103A000006D0320E0E01456F000112EC05F09482D3
:103A100082B202D030A002D01AA694D11A96000E1B
:103A20000D01A1B1010E0E01466F000E0D01A9B1ED
:103A3000010E0E01461907E10D01C1A102D00E01D0
:103A400002D0A5810E01000E0D01A1B3010E0E01E1
:103A5000466F000E0D01A9B3010E0E01461907E1D4
:103A60000D01C1A302D00E0102D0A5830E01000EEC
:103A70000D01A1B5010E0E01466F000E0D01A9B595
:103A8000010E0E01461907E10D01C1A502D00E017C
:103A900002D0A5850E01000E0D01A1B7010E0E0189
:103AA000466F000E0D01A9B7010E0E01461907E180
:103AB0000D01C1A702D00E0102D0A5870E01000E94
:103AC0000D01A1B9010E0E01466F000E0D01A9B93D
:103AD000010E0E01461907E10D01C1A902D00E0128
:103AE00002D0A5890E01000E0D01A1BB010E0E0131
:103AF000466F000E0D01A9BB010E0E01461907E12C
:103B00000D01C1AB02D00E0102D0A58B0E01000E3B
:103B10000D01A1BD010E0E01466F000E0D01A9BDE4
:103B2000010E0E01461907E10D01C1AD02D00E01D3
:103B300002D0A58D0E01000E0D01A1BF010E0E01D8
:103B4000466F000E0D01A9BF010E0E01461907E1D7
:103B50000D01C1AF02D00E0102D0A58F0E01000EE3
:103B60000D01A2B1010E0E01466F000E0D01AAB1AA
:103B7000010E0E01461907E10D01C2A102D00E018E
:103B800002D0A6810E01000E0D01A2B3010E0E019E
:103B9000466F000E0D01AAB3010E0E01461907E192
:103BA0000D01C2A302D00E0102D0A6830E01000EA9
:103BB0000D01A2B5010E0E01466F000E0D01AAB552
:103BC000010E0E01461907E10D01C2A502D00E013A
:103BD00002D0A6850E01000E0D01A2B7010E0E0146
:103BE000466F000E0D01AAB7010E0E01461907E13E
:103BF0000D01C2A702D00E0102D0A6870E01000E51
:103C00000D01A2B9010E0E01466F000E0D01AAB9F9
:103C1000010E0E01461907E10D01C2A902D00E01E5
:103C200002D0A6890E01000E0D01A2BB010E0E01ED
:103C3000466F000E0D01AABB010E0E01461907E1E9
:103C40000D01C2AB02D00E0102D0A68B0E01000EF8
:103C50000D01A2BD010E0E01466F000E0D01AABDA1
:103C6000010E0E01461907E10D01C2AD02D00E0191
:103C700002D0A68D0E01000E0D01A2BF010E0E0195
:103C8000466F000E0D01AABF010E0E01461907E195
:103C90000D01C2AF02D00E0102D0A68F0E01000EA0
:103CA0000D01A3B1010E0E01466F000E0D01ABB167
:103CB000010E0E01461907E10D01C3A102D00E014C
:103CC00002D0A7810E01000E0D01A3B3010E0E015B
:103CD000466F000E0D01ABB3010E0E01461907E150
:103CE0000D01C3A302D00E0102D0A7830E01000E66
:103CF0000D01A3B5010E0E01466F000E0D01ABB50F
:103D0000010E0E01461907E10D01C3A502D00E01F7
:103D100002D0A7850E01000E0D01A3B7010E0E0102
:103D2000466F000E0D01ABB7010E0E01461907E1FB
:103D30000D01C3A702D00E0102D0A7870E0130806B
:103D400008D00001948282A203D030A001D030902C
:103D50000E01000112000400010E635D0E01456FAB
:103D6000020E476F640E466F45CE48FE00012BECF5
:103D700013F0010E635D640FE96E020EEA6ED8B0B7
:103D8000EA2AEF500601655DD8A4D2EF35F0640E43
:103D900000016325E96E020EEA6ED8B0EA2AEF5000
:103DA0000601645DD8A4D2EF35F002016451AA087F
:103DB000D8A495D165512008D8A491D162C064F0EF
:103DC000200E0001656F1C0E666F35C067F036C0AF
:103DD00068F037C069F038C06AF039C06BF03AC09B
:103DE0006CF03BC06DF03CC06EF03DC06FF03EC06B
:103DF00070F03FC071F040C072F041C073F042C03B
:103E000074F043C075F0F2CF45FEF29EAA6A100E20
:103E1000A96EA69CA69EA680A8500E0145BFF28E54
:103E20000001766FF2CF45FEF29EAA6A110EA96ECE
:103E3000A69CA69EA680A8500E0145BFF28E00014A
:103E4000776FF2CF45FEF29EAA6A120EA96EA69C6B
:103E5000A69EA680A8500E0145BFF28E0001786F85
:103E6000F2CF45FEF29EAA6A130EA96EA69CA69EEC
:103E7000A680A8500E0145BFF28E0001796FF2CFE7
:103E800045FEF29EAA6A140EA96EA69CA69EA68066
:103E9000A8500E0145BFF28E00017A6FF2CF45FEA9
:103EA000F29EAA6A150EA96EA69CA69EA680A85090
:103EB0000E0145BFF28E00017B6FF2CF45FEF29EF0
:103EC000AA6A160EA96EA69CA69EA680A8500E01F0
:103ED00045BFF28E00017C6FF2CF45FEF29EAA6ACA
:103EE000170EA96EA69CA69EA680A8500E0145BFDF
:103EF000F28E00017D6F53C07EF054C07FF055C03C
:103F000080F056C081F009CE82F062C083F00BCE03
:103F100084F00DCE85F00FCE86F011CE87F013CE53
:103F200088F015CE89F017CE8AF019CE8BF01BCE13
:103F30008CF01DCE8DF01FCE8EF021CE8FF023CED3
:103F400090F025CE91F027CE92F029CE93F02BCE93
:103F500094F02DCE95F02FCE96F031CE97F00E0145
:103F6000476B640E466F340E486F00012BEC13F064
:103F700065C698F064C699F08A8693960A0E0E017B
:103F8000456F000112EC05F0645156EC13F06551D9
:103F900056EC13F0665156EC13F0675156EC13F0E3
:103FA000685156EC13F0695156EC13F06A5156EC17
:103FB00013F06B5156EC13F06C5156EC13F06D513D
:103FC00056EC13F06E5156EC13F06F5156EC13F0A3
:103FD000705156EC13F0715156EC13F0725156ECCF
:103FE00013F0735156EC13F0745156EC13F07551F5
:103FF00056EC13F0765156EC13F0775156EC13F063
:10400000785156EC13F0795156EC13F07A5156EC86
:1040100013F07B5156EC13F07C5156EC13F07D51AC
:1040200056EC13F07E5156EC13F07F5156EC13F022
:10403000805156EC13F0815156EC13F0825156EC3E
:1040400013F0835156EC13F0845156EC13F0855164
:1040500056EC13F0865156EC13F0875156EC13F0E2
:10406000885156EC13F0895156EC13F08A5156ECF6
:1040700013F08B5156EC13F08C5156EC13F08D511C
:1040800056EC13F08E5156EC13F08F5156EC13F0A2
:10409000905156EC13F0915156EC13F0925156ECAE
:1040A00013F0935156EC13F0945156EC13F09551D4
:1040B00056EC13F0965156EC13F0975156EC13F062
:1040C000985156EC13F0995156EC13F0030E0E0173
:1040D000456F000112EC05F08A96939602010001EB
:1040E00062510201645DD8A4CDEF35F0652D6AD22E
:1040F0000601696B66C268F668C669F60E01456B13
:104100004551020167110601686F06016B6B68C2B9
:104110006AF66AC66BF60E01456B455102016911DC
:1041200006016A6F06016953D8A413D268510F08BB
:10413000D8A00FD26A5168250E01456F06016B5158
:1041400069210E01466F4653D8B402D0060101D250
:1041500045511408D8B002D00601FBD106016B53BB
:1041600006E16A51080803E3010E6C6F12D06B532D
:1041700006E16A51100803E3020E6C6F0AD06B531C
:1041800006E16A51180803E3030E6C6F02D0010EBA
:104190006C6F6C2DA2D069530DE1685108080AE3D9
:1041A00044C06DF66851016E04E0D8906D33012E65
:1041B000FCD71AD0695303E16851080815E2695326
:1041C00013E168510F0810E3080E685D006E000EE1
:1041D0006959036E00C001F048C06DF6015204E059
:1041E000D8906D33012EFCD76A51080803E16B5358
:1041F00001E135D06A51070804E16B5302E16D9F7C
:104200002ED06A51060805E16B5303E13F0E6D178E
:1042100026D06A51050805E16B5303E11F0E6D17A7
:104220001ED06A51040805E16B5303E10F0E6D17B0
:1042300016D06A51030805E16B5303E1070E6D17B1
:104240000ED06A51020805E16B5303E1030E6D17AE
:1042500006D06A2D04D06B5302E1010E6D1762C0C7
:1042600064F0010E0001656F6CC666F06DC667F004
:104270000E01476B640E466F040E486F00012BEC75
:1042800013F065C668F064C669F08A8693960400E8
:10429000040E0E01456F000112EC05F0040064519C
:1042A00056EC13F0655156EC13F0665156EC13F0D2
:1042B000675156EC13F0685156EC13F0695156EC07
:1042C00013F00400030E0E01456F000112EC05F01F
:1042D00004008A9693963BD106016C510208D8A43B
:1042E000E0D044C06DF66851016E04E0D8906D33A3
:1042F000012EFCD748C06EF6070E6A5D0E01456FB1
:10430000000E06016B590E01466F4551080803E186
:10431000465301E183D0070E06016A5D0E01456F29
:10432000000E06016B590E01466F4551070805E165
:10433000465303E106016E9F70D0070E06016A5DC9
:104340000E01456F000E06016B590E01466F455177
:10435000060806E1465304E13F0E06016E175DD0E4
:10436000070E06016A5D0E01456F000E06016B59CE
:104370000E01466F4551050806E1465304E11F0E44
:1043800006016E174AD0070E06016A5D0E01456FE1
:10439000000E06016B590E01466F4551040806E1F7
:1043A000465304E10F0E06016E1737D0070E0601C3
:1043B0006A5D0E01456F000E06016B590E01466FD6
:1043C0004551030806E1465304E1070E06016E1746
:1043D00024D0070E06016A5D0E01456F000E06012E
:1043E0006B590E01466F4551020806E1465304E140
:1043F000030E06016E1711D0070E06016A5D0E014D
:10440000456F000E06016B590E01466F452D06D013
:10441000465304E1010E06016E170E0162C064F0FE
:10442000010E0001656F6CC666F06DC667F06EC662
:1044300068F00E01476B640E466F050E486F000171
:104440002BEC13F065C669F064C66AF08A86939611
:104450000400040E0E01456F000112EC05F004008B
:10446000645156EC13F0655156EC13F0665156EC5E
:1044700013F0675156EC13F0685156EC13F0695184
:1044800056EC13F06A5156EC13F00400030E0E01C3
:10449000456F000112EC05F004008A96939657D000
:1044A00006016C51030854E144C06DF66851016E79
:1044B00004E0D8906D33012EFCD748C06EF649C099
:1044C0006FF662C064F0010E0001656F6CC666F0A5
:1044D0006DC667F06EC668F06FC669F00E01476B77
:1044E000640E466F060E486F00012BEC13F065C694
:1044F0006AF064C66BF08A8693960400040E0E017F
:10450000456F000112EC05F00400645156EC13F005
:10451000655156EC13F0665156EC13F0675156ECAA
:1045200013F0685156EC13F0695156EC13F06A51D0
:1045300056EC13F06B5156EC13F00400030E0E0111
:10454000456F000112EC05F004008A96939606016F
:1045500038D062C064F0810E0001656F020E666F94
:104560000E01476B640E466F030E486F00012BEC83
:1045700013F065C667F064C668F08A8693960400F7
:10458000040E0E01456F000112EC05F004006451A9
:1045900056EC13F0655156EC13F0665156EC13F0DF
:1045A000675156EC13F0685156EC13F00400030EFB
:1045B0000E01456F000112EC05F004008A969396F7
:1045C0000601020165510708D8A4B1D000015AEFD5
:1045D00013F09D921EC06DF61FC06EF620C06FF6E0
:1045E00021C070F622C071F623C072F624C073F6A3
:1045F00025C074F626C075F627C076F628C077F673
:1046000029C078F62AC079F62BC07AF62CC07BF642
:104610002DC07CF662C064F0070E656F100E0601B7
:104620006C6F6CC666F06DC667F06EC668F06FC6DC
:1046300069F070C66AF071C66BF072C66CF073C632
:104640006DF074C66EF075C66FF076C670F077C602
:1046500071F078C672F079C673F07AC674F07BC6D2
:1046600075F07CC676F00E01476B640E466F130E34
:10467000486F00012BEC13F065C677F064C678F044
:104680008A8693960400040E0E01456F000112EC19
:1046900005F00400645156EC13F0655156EC13F02C
:1046A000665156EC13F0675156EC13F0685156EC16
:1046B00013F0695156EC13F06A5156EC13F06B513C
:1046C00056EC13F06C5156EC13F06D5156EC13F0A0
:1046D0006E5156EC13F06F5156EC13F0705156ECCE
:1046E00013F0715156EC13F0725156EC13F07351F4
:1046F00056EC13F0745156EC13F0755156EC13F060
:10470000765156EC13F0775156EC13F0785156EC85
:1047100013F00400030E0E01456F000112EC05F0CA
:1047200004008A9693969D8274EF35F002016551DC
:104730000508D8A476D20601696B66C268F668C619
:1047400069F60E01456B4551020167110601686F5C
:1047500006016B6B68C26AF66AC66BF60E01456BA2
:1047600045510201691106016A6F060168534FE164
:1047700069534DE16A534AE16B3D48D01A8462C0E7
:1047800064F0050E0001656F66C266F067C267F0EF
:1047900068C268F069C269F00E01476B640E466F2B
:1047A000060E486F00012BEC13F065C66AF064C674
:1047B0006BF08A8693960400040E0E01456F00018B
:1047C00012EC05F00400645156EC13F0655156EC00
:1047D00013F0665156EC13F0675156EC13F0685124
:1047E00056EC13F0695156EC13F06A5156EC13F085
:1047F0006B5156EC13F00400030E0E01456F0001DF
:1048000012EC05F004008A969396060107D2682DF3
:104810004FD069534DE16A534AE16B3D48D01A8647
:1048200062C064F0050E0001656F66C266F067C283
:1048300067F068C268F069C269F00E01476B640EE8
:10484000466F060E486F00012BEC13F065C66AF048
:1048500064C66BF08A8693960400040E0E01456FC1
:10486000000112EC05F00400645156EC13F06551A0
:1048700056EC13F0665156EC13F0675156EC13F0FA
:10488000685156EC13F0695156EC13F06A5156EC2E
:1048900013F06B5156EC13F00400030E0E01456F3C
:1048A000000112EC05F004008A9693960601B6D139
:1048B00068510208D8A4A5D06953D8A4A2D06A53DD
:1048C0004BE16B3D49D01A8862C064F0050E0001CF
:1048D000656F66C266F067C267F068C268F069C259
:1048E00069F00E01476B640E466F060E486F0001BB
:1048F0002BEC13F065C66AF064C66BF08A8693965B
:104900000400040E0E01456F000112EC05F00400D6
:10491000645156EC13F0655156EC13F0665156ECA9
:1049200013F0675156EC13F0685156EC13F06951CF
:1049300056EC13F06A5156EC13F06B5156EC13F031
:104940000400030E0E01456F000112EC05F0040097
:104950008A96939654D006016A5352E16B5350E104
:104960001A9800012EEC16F01A8433EC1CF01A860B
:10497000FAEC1CF062C064F0050E656F66C266F06A
:1049800067C267F068C268F069C269F00E01476BE0
:10499000640E466F060E486F00012BEC13F065C6DF
:1049A0006AF064C66BF08A8693960400040E0E01CA
:1049B000456F000112EC05F00400645156EC13F051
:1049C000655156EC13F0665156EC13F0675156ECF6
:1049D00013F0685156EC13F0695156EC13F06A511C
:1049E00056EC13F06B5156EC13F00400030E0E015D
:1049F000456F000112EC05F004008A9693960601BB
:104A00000DD168510308D8A4A5D06953D8A4A2D069
:104A10006A534BE16B3D49D01A8A62C064F0050EBF
:104A20000001656F66C266F067C267F068C268F031
:104A300069C269F00E01476B640E466F060E486F3F
:104A400000012BEC13F065C66AF064C66BF08A8631
:104A500093960400080E0E01456F000112EC05F05C
:104A60000400645156EC13F0655156EC13F0665196
:104A700056EC13F0675156EC13F0685156EC13F0F6
:104A8000695156EC13F06A5156EC13F06B5156EC29
:104A900013F00400080E0E01456F000112EC05F042
:104AA00004008A96939654D006016A5352E16B53E0
:104AB00050E11A9A00012EEC16F01A8433EC1CF027
:104AC0001A86FAEC1CF062C064F0050E656F66C2CF
:104AD00066F067C267F068C268F069C269F00E01EB
:104AE000476B640E466F060E486F00012BEC13F007
:104AF00065C66AF064C66BF08A8693960400040E5D
:104B00000E01456F000112EC05F00400645156ECF3
:104B100013F0655156EC13F0665156EC13F06751E3
:104B200056EC13F0685156EC13F0695156EC13F043
:104B30006A5156EC13F06B5156EC13F00400030E5F
:104B40000E01456F000112EC05F004008A96939661
:104B5000060164D06851640861E169535FE16AC687
:104B600062F0F250006EF29EAA6A1D0EA96E62C03B
:104B7000A8FFA69CA69EA6840F01550EA76EAA0E9E
:104B8000A76EA682A6B2FED7A6940050F21262C00B
:104B900064F0050E0001656F66C266F067C267F0DB
:104BA00068C268F069C269F00E01476B640E466F17
:104BB000060E486F00012BEC13F065C66AF064C660
:104BC0006BF08A8693960400040E0E01456F000177
:104BD00012EC05F00400645156EC13F0655156ECEC
:104BE00013F0665156EC13F0675156EC13F0685110
:104BF00056EC13F0695156EC13F06A5156EC13F071
:104C00006B5156EC13F00400030E0E01456F0001CA
:104C100012EC05F004008A969396060175EF35F0C4
:104C2000020165512108D8A4C8EF2AF0F250006EA5
:104C3000F29EAA6AA96A0F0EA86EA69CA69EA684DA
:104C40000F01550EA76EAA0EA76EA682A6B2FED7BA
:104C5000A6940050F212F2CF00F0F29EAA6A010E62
:104C6000A96E67C2A8FFA69CA69EA684550EA76E35
:104C7000AA0EA76EA682A6B2FED7A6940050F21284
:104C8000F2CF00F0F29EAA6A020EA96E68C2A8FFD7
:104C9000A69CA69EA684550EA76EAA0EA76EA682F7
:104CA000A6B2FED7A6940050F212F2CF00F0F29E08
:104CB000AA6A030EA96E69C2A8FFA69CA69EA68436
:104CC000550EA76EAA0EA76EA682A6B2FED7A69410
:104CD0000050F212F2CF00F0F29EAA6A040EA96E02
:104CE0006AC2A8FFA69CA69EA684550EA76EAA0E11
:104CF000A76EA682A6B2FED7A6940050F212F2CFFB
:104D000000F0F29EAA6A050EA96E6BC2A8FFA69CCF
:104D1000A69EA684550EA76EAA0EA76EA682A6B260
:104D2000FED7A6940050F212F2CF00F0F29EAA6ACB
:104D3000060EA96E6CC2A8FFA69CA69EA684550E60
:104D4000A76EAA0EA76EA682A6B2FED7A6940050A2
:104D5000F212F2CF00F0F29EAA6A070EA96E6DC29F
:104D6000A8FFA69CA69EA684550EA76EAA0EA76EA7
:104D7000A682A6B2FED7A6940050F212F2CF00F09F
:104D8000F29EAA6A080EA96E6EC2A8FFA69CA69EF5
:104D9000A684550EA76EAA0EA76EA682A6B2FED74F
:104DA000A6940050F212F2CF00F0F29EAA6A090E09
:104DB000A96E6FC2A8FFA69CA69EA684550EA76EDC
:104DC000AA0EA76EA682A6B2FED7A6940050F21233
:104DD000F2CF00F0F29EAA6A0A0EA96E70C2A8FF76
:104DE000A69CA69EA684550EA76EAA0EA76EA682A6
:104DF000A6B2FED7A6940050F212F2CF00F0F29EB7
:104E0000AA6A0B0EA96E71C2A8FFA69CA69EA684D4
:104E1000550EA76EAA0EA76EA682A6B2FED7A694BE
:104E20000050F212F2CF00F0F29EAA6A0C0EA96EA8
:104E300072C2A8FFA69CA69EA684550EA76EAA0EB7
:104E4000A76EA682A6B2FED7A6940050F212F2CFA9
:104E500000F0F29EAA6A0D0EA96E73C2A8FFA69C6E
:104E6000A69EA684550EA76EAA0EA76EA682A6B20F
:104E7000FED7A6940050F212F2CF00F0F29EAA6A7A
:104E80000E0EA96E74C2A8FFA69CA69EA684550EFF
:104E9000A76EAA0EA76EA682A6B2FED7A694005051
:104EA000F212F2CF00F0F29EAA6A0F0EA96E75C23E
:104EB000A8FFA69CA69EA684550EA76EAA0EA76E56
:104EC000A682A6B2FED7A6940050F212F2CF00F04E
:104ED000F29EAA6A100EA96E76C2A8FFA69CA69E94
:104EE000A684550EA76EAA0EA76EA682A6B2FED7FE
:104EF000A6940050F212F2CF00F0F29EAA6A110EB0
:104F0000A96E77C2A8FFA69CA69EA684550EA76E82
:104F1000AA0EA76EA682A6B2FED7A6940050F212E1
:104F2000F2CF00F0F29EAA6A120EA96E78C2A8FF14
:104F3000A69CA69EA684550EA76EAA0EA76EA68254
:104F4000A6B2FED7A6940050F212F2CF00F0F29E65
:104F5000AA6A130EA96E79C2A8FFA69CA69EA68473
:104F6000550EA76EAA0EA76EA682A6B2FED7A6946D
:104F70000050F212F2CF00F0F29EAA6A140EA96E4F
:104F80007AC2A8FFA69CA69EA684550EA76EAA0E5E
:104F9000A76EA682A6B2FED7A6940050F212F2CF58
:104FA00000F0F29EAA6A150EA96E7BC2A8FFA69C0D
:104FB000A69EA684550EA76EAA0EA76EA682A6B2BE
:104FC000FED7A6940050F212F2CF00F0F29EAA6A29
:104FD000160EA96E7CC2A8FFA69CA69EA684550E9E
:104FE000A76EAA0EA76EA682A6B2FED7A694005000
:104FF000F212F2CF00F0F29EAA6A170EA96E7DC2DD
:10500000A8FFA69CA69EA684550EA76EAA0EA76E04
:10501000A682A6B2FED7A6940050F212F2CF00F0FC
:10502000F29EAA6A180EA96E7EC2A8FFA69CA69E32
:10503000A684550EA76EAA0EA76EA682A6B2FED7AC
:10504000A6940050F212F2CF00F0F29EAA6A190E56
:10505000A96E7FC2A8FFA69CA69EA684550EA76E29
:10506000AA0EA76EA682A6B2FED7A6940050F21290
:10507000F2CF00F0F29EAA6A1A0EA96E80C2A8FFB3
:10508000A69CA69EA684550EA76EAA0EA76EA68203
:10509000A6B2FED7A6940050F212F2CF00F0F29E14
:1050A000AA6A1B0EA96E81C2A8FFA69CA69EA68412
:1050B000550EA76EAA0EA76EA682A6B2FED7A6941C
:1050C0000050F212F2CF00F0F29EAA6A1C0EA96EF6
:1050D00082C2A8FFA69CA69EA684550EA76EAA0E05
:1050E000A76EA682A6B2FED7A6940050F212F2CF07
:1050F00000F0F29EAA6A1D0EA96E83C2A8FFA69CAC
:10510000A69EA684550EA76EAA0EA76EA682A6B26C
:10511000FED7A6940050F212F2CF00F0F29EAA6AD7
:105120001E0EA96E84C2A8FFA69CA69EA684550E3C
:10513000A76EAA0EA76EA682A6B2FED7A6940050AE
:10514000F212F2CF00F0F29EAA6A1F0EA96E85C27B
:10515000A8FFA69CA69EA684550EA76EAA0EA76EB3
:10516000A682A6B2FED7A6940050F212F2CF00F0AB
:10517000F29EAA6A200EA96E86C2A8FFA69CA69ED1
:10518000A684550EA76EAA0EA76EA682A6B2FED75B
:10519000A6940050F212F2CF00F0F29EAA6A210EFD
:1051A000A96E87C2A8FFA69CA69EA684550EA76ED0
:1051B000AA0EA76EA682A6B2FED7A6940050F2123F
:1051C000F2CF00F0F29EAA6A220EA96E88C2A8FF52
:1051D000A69CA69EA684550EA76EAA0EA76EA682B2
:1051E000A6B2FED7A6940050F212F2CF00F0F29EC3
:1051F000AA6A230EA96E89C2A8FFA69CA69EA684B1
:10520000550EA76EAA0EA76EA682A6B2FED7A694CA
:105210000050F212F2CF00F0F29EAA6A240EA96E9C
:105220008AC2A8FFA69CA69EA684550EA76EAA0EAB
:10523000A76EA682A6B2FED7A6940050F212F2CFB5
:1052400000F0F29EAA6A250EA96E8BC2A8FFA69C4A
:10525000A69EA684550EA76EAA0EA76EA682A6B21B
:10526000FED7A6940050F212F2CF00F0F29EAA6A86
:10527000260EA96E8CC2A8FFA69CA69EA684550EDB
:10528000A76EAA0EA76EA682A6B2FED7A69400505D
:10529000F212F2CF00F0F29EAA6A270EA96E8DC21A
:1052A000A8FFA69CA69EA684550EA76EAA0EA76E62
:1052B000A682A6B2FED7A6940050F212F2CF00F05A
:1052C000F29EAA6A280EA96E8EC2A8FFA69CA69E70
:1052D000A684550EA76EAA0EA76EA682A6B2FED70A
:1052E000A6940050F212F2CF00F0F29EAA6A290EA4
:1052F000A96E8FC2A8FFA69CA69EA684550EA76E77
:10530000AA0EA76EA682A6B2FED7A6940050F212ED
:10531000F2CF00F0F29EAA6A2A0EA96E90C2A8FFF0
:10532000A69CA69EA684550EA76EAA0EA76EA68260
:10533000A6B2FED7A6940050F212F2CF00F0F29E71
:10534000AA6A2B0EA96E91C2A8FFA69CA69EA6844F
:10535000550EA76EAA0EA76EA682A6B2FED7A69479
:105360000050F212F2CF00F0F29EAA6A2C0EA96E43
:1053700092C2A8FFA69CA69EA684550EA76EAA0E52
:10538000A76EA682A6B2FED7A6940050F212F2CF64
:1053900000F0F29EAA6A2D0EA96E93C2A8FFA69CE9
:1053A000A69EA684550EA76EAA0EA76EA682A6B2CA
:1053B000FED7A6940050F212F2CF00F0F29EAA6A35
:1053C0002E0EA96E94C2A8FFA69CA69EA684550E7A
:1053D000A76EAA0EA76EA682A6B2FED7A69400500C
:1053E000F212F2CF00F0F29EAA6A2F0EA96E95C2B9
:1053F000A8FFA69CA69EA684550EA76EAA0EA76E11
:10540000A682A6B2FED7A6940050F212F2CF00F008
:10541000F29EAA6A300EA96E96C2A8FFA69CA69E0E
:10542000A684550EA76EAA0EA76EA682A6B2FED7B8
:10543000A6940050F212F2CF00F0F29EAA6A310E4A
:10544000A96E97C2A8FFA69CA69EA684550EA76E1D
:10545000AA0EA76EA682A6B2FED7A6940050F2129C
:105460000E013D6B3C6B0400980E3C25E96E020E6C
:105470003D21EA6EEFCF3EFE3E510D0805E03D5363
:1054800003E13C510F0827E2720E3C25E96E0A0E3B
:105490003D21EA6EEF6A320E3C25456F000E3D213C
:1054A000466FF250006EF29E46CEAAFF45CEA9FF8F
:1054B0003ECEA8FFA69CA69EA6840F01550EA76E01
:1054C000AA0EA76EA682A6B2FED7A6940050F2122C
:1054D0002DD026D00E01720E3C25E96E0A0E3D211C
:1054E000EA6E3ECEEFFF320E3C25456F000E3D21A9
:1054F000466FF250006EF29E46CEAAFF45CEA9FF3F
:105500003ECEA8FFA69CA69EA6840F01550EA76EB0
:10551000AA0EA76EA682A6B2FED7A6940050F212DB
:105520000E013C2BD8B43D2B9ED70F0162C064F016
:10553000210E0001656F0E01476B640E466F020E6F
:10554000486F00012BEC13F065C666F064C667F087
:105550008A8693960A0E0E01456F000112EC05F043
:10556000645156EC13F0655156EC13F0665156EC4D
:1055700013F0675156EC13F0030E0E01456F000156
:1055800012EC05F08A969396FF0074EF35F0020155
:1055900065512208D8A474EF35F00E01406B040E5B
:1055A0003F6F426B416B446B436B0400640E3F25BD
:1055B000E96E020E4021EA6EEF500D0805E04253FD
:1055C00003E141511E0820E25D0E3F25456F000EAC
:1055D0004021466FF250006EF29E46CEAAFF45CEA5
:1055E000A9FF0D0EA86EA69CA69EA6840F01550EBF
:1055F000A76EAA0EA76EA682A6B2FED7A6940050EA
:10560000F21247D03AD00E01810E4125016E0A0EEA
:105610004221036E640E3F25E96E020E4021EA6EC0
:10562000EFCF47FE03C0EAFF01C0E9FF47CEEFFF1F
:105630005D0E3F25456F000E4021466F640E3F25ED
:10564000E96E020E4021EA6EEFCF47FEF250006E87
:10565000F29E46CEAAFF45CEA9FF47CEA8FFA69C44
:10566000A69EA6840F01550EA76EAA0EA76EA6824F
:10567000A6B2FED7A6940050F2120E0140CE03F05F
:105680003F513F2BD8B4402B412BD8B4422B8DD760
:105690000F01810E0E014125E96E0A0E4221EA6ECC
:1056A000EF6A426B416B3F2BD8B4402B0400640E71
:1056B0003F25E96E020E4021EA6EEF500D0805E02D
:1056C000425303E141511E0820E25D0E3F25456F24
:1056D000000E4021466FF250006EF29E46CEAAFFA9
:1056E00045CEA9FF0D0EA86EA69CA69EA6840F010E
:1056F000550EA76EAA0EA76EA682A6B2FED7A694D6
:105700000050F21247D03AD00E01A10E4125016E91
:105710000A0E4221036E640E3F25E96E020E4021FF
:10572000EA6EEFCF47FE03C0EAFF01C0E9FF47CEB4
:10573000EFFF5D0E3F25456F000E4021466F640E62
:105740003F25E96E020E4021EA6EEFCF47FEF25090
:10575000006EF29E46CEAAFF45CEA9FF47CEA8FF17
:10576000A69CA69EA6840F01550EA76EAA0EA76E34
:10577000A682A6B2FED7A6940050F2120E0140CE29
:1057800003F03F513F2BD8B4402B412BD8B4422BD0
:105790008DD70F01A10E0E014125E96E0A0E42219F
:1057A000EA6EEF6A426B416B3F2BD8B4402B04008A
:1057B000640E3F25E96E020E4021EA6EEF500D089F
:1057C00005E0425303E141511E0820E25D0E3F25F2
:1057D000456F000E4021466FF250006EF29E46CE9D
:1057E000AAFF45CEA9FF0D0EA86EA69CA69EA68474
:1057F0000F01550EA76EAA0EA76EA682A6B2FED7FF
:10580000A6940050F21247D03AD00E01C10E4125A5
:10581000016E0A0E4221036E640E3F25E96E020EF0
:105820004021EA6EEFCF47FE03C0EAFF01C0E9FF67
:1058300047CEEFFF5D0E3F25456F000E4021466FBE
:10584000640E3F25E96E020E4021EA6EEFCF47FE5F
:10585000F250006EF29E46CEAAFF45CEA9FF47CE7B
:10586000A8FFA69CA69EA6840F01550EA76EAA0EA1
:10587000A76EA682A6B2FED7A6940050F2120E0121
:1058800040CE03F03F513F2BD8B4402B412BD8B42E
:10589000422B8DD70F01C10E0E014125E96E0A0E74
:1058A0004221EA6EEF6A426B416B3F2BD8B4402B2A
:1058B0000400640E3F25E96E020E4021EA6EEF50AF
:1058C0000D0805E0425303E141511E0820E25D0E40
:1058D0003F25456F000E4021466FF250006EF29E4C
:1058E00046CEAAFF45CEA9FF0D0EA86EA69CA69E89
:1058F000A6840F01550EA76EAA0EA76EA682A6B2A9
:10590000FED7A6940050F21247D03AD00E01E10E15
:105910004125016E0A0E4221036E640E3F25E96E99
:10592000020E4021EA6EEFCF47FE03C0EAFF01C03E
:10593000E9FF47CEEFFF5D0E3F25456F000E40218A
:10594000466F640E3F25E96E020E4021EA6EEFCFEE
:1059500047FEF250006EF29E46CEAAFF45CEA9FF4A
:1059600047CEA8FFA69CA69EA6840F01550EA76E43
:10597000AA0EA76EA682A6B2FED7A6940050F21277
:105980000E0140CE03F03F513F2BD8B4402B412BAA
:10599000D8B4422B8DD70F01E10E0E014125E96EDF
:1059A0000A0E4221EA6EEF6A426B416B3F2BD8B47C
:1059B000402B0400640E3F25E96E020E4021EA6E82
:1059C000EF500D0805E0425303E141511E0820E26B
:1059D0005D0E3F25456F000E4021466FF250006E70
:1059E000F29E46CEAAFF45CEA9FF0D0EA86EA69C3C
:1059F000A69EA6840F01550EA76EAA0EA76EA682BC
:105A0000A6B2FED7A6940050F21247D03AD00E01AB
:105A1000010E4125016E0B0E4221036E640E3F25DF
:105A2000E96E020E4021EA6EEFCF47FE03C0EAFFA7
:105A300001C0E9FF47CEEFFF5D0E3F25456F000E29
:105A40004021466F640E3F25E96E020E4021EA6E4A
:105A5000EFCF47FEF250006EF29E46CEAAFF45CE33
:105A6000A9FF47CEA8FFA69CA69EA6840F01550EAF
:105A7000A76EAA0EA76EA682A6B2FED7A694005065
:105A8000F2120E0140CE03F03F513F2BD8B4402B11
:105A9000412BD8B4422B8DD70F01010E0E014125A9
:105AA000E96E0B0E4221EA6EEF6A426B416B3F2BAF
:105AB000D8B4402B0400640E3F25E96E020E40214D
:105AC000EA6EEF500D0805E0425303E141511E0814
:105AD00020E25D0E3F25456F000E4021466FF250DB
